{
  "contractName": "DogChain",
  "abi": [
    {
      "inputs": [
        {
          "internalType": "uint256",
          "name": "_authId",
          "type": "uint256"
        },
        {
          "internalType": "bytes32",
          "name": "_authName",
          "type": "bytes32"
        }
      ],
      "name": "registerAuthority",
      "outputs": [],
      "stateMutability": "nonpayable",
      "type": "function"
    },
    {
      "inputs": [
        {
          "internalType": "uint256",
          "name": "_authId",
          "type": "uint256"
        }
      ],
      "name": "getAuthorityData",
      "outputs": [
        {
          "components": [
            {
              "internalType": "bytes32",
              "name": "authorityName",
              "type": "bytes32"
            },
            {
              "internalType": "bool",
              "name": "exists",
              "type": "bool"
            }
          ],
          "internalType": "struct DogChain.authority",
          "name": "",
          "type": "tuple"
        }
      ],
      "stateMutability": "view",
      "type": "function",
      "constant": true
    },
    {
      "inputs": [],
      "name": "getAllBreeders",
      "outputs": [
        {
          "internalType": "uint256[]",
          "name": "",
          "type": "uint256[]"
        }
      ],
      "stateMutability": "view",
      "type": "function",
      "constant": true
    },
    {
      "inputs": [],
      "name": "getAllDoctors",
      "outputs": [
        {
          "internalType": "uint256[]",
          "name": "",
          "type": "uint256[]"
        }
      ],
      "stateMutability": "view",
      "type": "function",
      "constant": true
    },
    {
      "inputs": [],
      "name": "getAllDogs",
      "outputs": [
        {
          "internalType": "uint256[]",
          "name": "",
          "type": "uint256[]"
        }
      ],
      "stateMutability": "view",
      "type": "function",
      "constant": true
    },
    {
      "inputs": [
        {
          "internalType": "uint256[]",
          "name": "_breederIds",
          "type": "uint256[]"
        }
      ],
      "name": "getBreedersList",
      "outputs": [
        {
          "components": [
            {
              "internalType": "bytes32",
              "name": "breederName",
              "type": "bytes32"
            },
            {
              "internalType": "uint256[]",
              "name": "dogIds",
              "type": "uint256[]"
            },
            {
              "internalType": "uint256[]",
              "name": "soldDogIds",
              "type": "uint256[]"
            },
            {
              "internalType": "bool",
              "name": "exists",
              "type": "bool"
            }
          ],
          "internalType": "struct DogChain.breeder[]",
          "name": "",
          "type": "tuple[]"
        }
      ],
      "stateMutability": "view",
      "type": "function",
      "constant": true
    },
    {
      "inputs": [
        {
          "internalType": "uint256[]",
          "name": "_docIds",
          "type": "uint256[]"
        }
      ],
      "name": "getDoctorsList",
      "outputs": [
        {
          "components": [
            {
              "internalType": "bytes32",
              "name": "doctorName",
              "type": "bytes32"
            },
            {
              "internalType": "bytes32[]",
              "name": "hospitalNames",
              "type": "bytes32[]"
            },
            {
              "internalType": "uint256",
              "name": "currentHospital",
              "type": "uint256"
            },
            {
              "internalType": "bool",
              "name": "exists",
              "type": "bool"
            },
            {
              "internalType": "uint256[]",
              "name": "vaccinationRecordIds",
              "type": "uint256[]"
            },
            {
              "internalType": "uint256[]",
              "name": "treatmentRecordIds",
              "type": "uint256[]"
            }
          ],
          "internalType": "struct DogChain.doctor[]",
          "name": "",
          "type": "tuple[]"
        }
      ],
      "stateMutability": "view",
      "type": "function",
      "constant": true
    },
    {
      "inputs": [
        {
          "internalType": "uint256[]",
          "name": "_dogIds",
          "type": "uint256[]"
        }
      ],
      "name": "getDogsList",
      "outputs": [
        {
          "components": [
            {
              "internalType": "bytes32",
              "name": "dogName",
              "type": "bytes32"
            },
            {
              "internalType": "bytes32",
              "name": "breed",
              "type": "bytes32"
            },
            {
              "internalType": "bytes32",
              "name": "colour",
              "type": "bytes32"
            },
            {
              "internalType": "enum DogChain.dogSex",
              "name": "sex",
              "type": "uint8"
            },
            {
              "internalType": "bytes19",
              "name": "dateOfBirth",
              "type": "bytes19"
            },
            {
              "internalType": "uint256",
              "name": "fatherId",
              "type": "uint256"
            },
            {
              "internalType": "bytes32",
              "name": "fatherName",
              "type": "bytes32"
            },
            {
              "internalType": "uint256",
              "name": "motherId",
              "type": "uint256"
            },
            {
              "internalType": "bytes32",
              "name": "motherName",
              "type": "bytes32"
            },
            {
              "internalType": "uint256",
              "name": "breederId",
              "type": "uint256"
            },
            {
              "internalType": "uint256[]",
              "name": "ownerIds",
              "type": "uint256[]"
            },
            {
              "internalType": "uint256",
              "name": "currentOwner",
              "type": "uint256"
            },
            {
              "internalType": "uint256[]",
              "name": "vaccineIds",
              "type": "uint256[]"
            },
            {
              "internalType": "uint256[]",
              "name": "treatmentIds",
              "type": "uint256[]"
            },
            {
              "internalType": "bool",
              "name": "exists",
              "type": "bool"
            }
          ],
          "internalType": "struct DogChain.dog[]",
          "name": "",
          "type": "tuple[]"
        }
      ],
      "stateMutability": "view",
      "type": "function",
      "constant": true
    },
    {
      "inputs": [
        {
          "internalType": "uint256[]",
          "name": "_vaccIds",
          "type": "uint256[]"
        }
      ],
      "name": "getVaccinesList",
      "outputs": [
        {
          "components": [
            {
              "internalType": "uint256",
              "name": "dogId",
              "type": "uint256"
            },
            {
              "internalType": "uint256",
              "name": "ownerId",
              "type": "uint256"
            },
            {
              "internalType": "bytes19",
              "name": "vaccinatedDate",
              "type": "bytes19"
            },
            {
              "internalType": "uint256",
              "name": "dogAgeYears",
              "type": "uint256"
            },
            {
              "internalType": "uint256",
              "name": "dogAgeMonths",
              "type": "uint256"
            },
            {
              "internalType": "uint256",
              "name": "doctorId",
              "type": "uint256"
            },
            {
              "internalType": "bytes32",
              "name": "hospitalName",
              "type": "bytes32"
            },
            {
              "internalType": "bytes32",
              "name": "vaccineName",
              "type": "bytes32"
            },
            {
              "internalType": "bool",
              "name": "exists",
              "type": "bool"
            }
          ],
          "internalType": "struct DogChain.vaccine[]",
          "name": "",
          "type": "tuple[]"
        }
      ],
      "stateMutability": "view",
      "type": "function",
      "constant": true
    },
    {
      "inputs": [
        {
          "internalType": "uint256[]",
          "name": "_treatIds",
          "type": "uint256[]"
        }
      ],
      "name": "getTreatmentList",
      "outputs": [
        {
          "components": [
            {
              "internalType": "uint256",
              "name": "dogId",
              "type": "uint256"
            },
            {
              "internalType": "uint256",
              "name": "ownerId",
              "type": "uint256"
            },
            {
              "internalType": "bytes19",
              "name": "admissionDate",
              "type": "bytes19"
            },
            {
              "internalType": "uint256",
              "name": "dogAgeYears",
              "type": "uint256"
            },
            {
              "internalType": "uint256",
              "name": "dogAgeMonths",
              "type": "uint256"
            },
            {
              "internalType": "uint256",
              "name": "doctorId",
              "type": "uint256"
            },
            {
              "internalType": "bytes32",
              "name": "hospitalName",
              "type": "bytes32"
            },
            {
              "internalType": "bytes32[]",
              "name": "symptoms",
              "type": "bytes32[]"
            },
            {
              "internalType": "bytes32",
              "name": "verdict",
              "type": "bytes32"
            },
            {
              "internalType": "bytes32[]",
              "name": "medicinesPrescribed",
              "type": "bytes32[]"
            },
            {
              "internalType": "bool",
              "name": "exists",
              "type": "bool"
            }
          ],
          "internalType": "struct DogChain.treatment[]",
          "name": "",
          "type": "tuple[]"
        }
      ],
      "stateMutability": "view",
      "type": "function",
      "constant": true
    },
    {
      "inputs": [
        {
          "internalType": "uint256",
          "name": "_breederId",
          "type": "uint256"
        }
      ],
      "name": "isBreederPresent",
      "outputs": [
        {
          "internalType": "bool",
          "name": "",
          "type": "bool"
        }
      ],
      "stateMutability": "view",
      "type": "function",
      "constant": true
    },
    {
      "inputs": [
        {
          "internalType": "uint256",
          "name": "_docId",
          "type": "uint256"
        }
      ],
      "name": "isDoctorPresent",
      "outputs": [
        {
          "internalType": "bool",
          "name": "",
          "type": "bool"
        }
      ],
      "stateMutability": "view",
      "type": "function",
      "constant": true
    },
    {
      "inputs": [
        {
          "internalType": "uint256",
          "name": "_dogId",
          "type": "uint256"
        }
      ],
      "name": "isDogPresent",
      "outputs": [
        {
          "internalType": "bool",
          "name": "",
          "type": "bool"
        }
      ],
      "stateMutability": "view",
      "type": "function",
      "constant": true
    },
    {
      "inputs": [
        {
          "internalType": "uint256",
          "name": "_vaccId",
          "type": "uint256"
        }
      ],
      "name": "isVaccineDataPresent",
      "outputs": [
        {
          "internalType": "bool",
          "name": "",
          "type": "bool"
        }
      ],
      "stateMutability": "view",
      "type": "function",
      "constant": true
    },
    {
      "inputs": [
        {
          "internalType": "uint256",
          "name": "_treatmentId",
          "type": "uint256"
        }
      ],
      "name": "isTreatmentDataPresent",
      "outputs": [
        {
          "internalType": "bool",
          "name": "",
          "type": "bool"
        }
      ],
      "stateMutability": "view",
      "type": "function",
      "constant": true
    },
    {
      "inputs": [
        {
          "internalType": "uint256",
          "name": "_breederId",
          "type": "uint256"
        },
        {
          "internalType": "bytes32",
          "name": "_breederName",
          "type": "bytes32"
        }
      ],
      "name": "registerBreeder",
      "outputs": [],
      "stateMutability": "nonpayable",
      "type": "function"
    },
    {
      "inputs": [
        {
          "internalType": "uint256",
          "name": "_breederId",
          "type": "uint256"
        }
      ],
      "name": "getBreederData",
      "outputs": [
        {
          "components": [
            {
              "internalType": "bytes32",
              "name": "breederName",
              "type": "bytes32"
            },
            {
              "internalType": "uint256[]",
              "name": "dogIds",
              "type": "uint256[]"
            },
            {
              "internalType": "uint256[]",
              "name": "soldDogIds",
              "type": "uint256[]"
            },
            {
              "internalType": "bool",
              "name": "exists",
              "type": "bool"
            }
          ],
          "internalType": "struct DogChain.breeder",
          "name": "",
          "type": "tuple"
        }
      ],
      "stateMutability": "view",
      "type": "function",
      "constant": true
    },
    {
      "inputs": [
        {
          "internalType": "uint256",
          "name": "_breederId",
          "type": "uint256"
        }
      ],
      "name": "getTotalDogIds",
      "outputs": [
        {
          "internalType": "uint256[]",
          "name": "",
          "type": "uint256[]"
        }
      ],
      "stateMutability": "view",
      "type": "function",
      "constant": true
    },
    {
      "inputs": [
        {
          "internalType": "uint256",
          "name": "_breederId",
          "type": "uint256"
        }
      ],
      "name": "getSoldDogIds",
      "outputs": [
        {
          "internalType": "uint256[]",
          "name": "",
          "type": "uint256[]"
        }
      ],
      "stateMutability": "view",
      "type": "function",
      "constant": true
    },
    {
      "inputs": [
        {
          "internalType": "uint256",
          "name": "_breederId",
          "type": "uint256"
        }
      ],
      "name": "getCurrentDogIds",
      "outputs": [
        {
          "internalType": "uint256[]",
          "name": "",
          "type": "uint256[]"
        }
      ],
      "stateMutability": "view",
      "type": "function",
      "constant": true
    },
    {
      "inputs": [
        {
          "internalType": "uint256",
          "name": "_docId",
          "type": "uint256"
        },
        {
          "internalType": "bytes32",
          "name": "_docName",
          "type": "bytes32"
        },
        {
          "internalType": "bytes32",
          "name": "_hospitalName",
          "type": "bytes32"
        }
      ],
      "name": "registerDoctor",
      "outputs": [],
      "stateMutability": "nonpayable",
      "type": "function"
    },
    {
      "inputs": [
        {
          "internalType": "uint256",
          "name": "_docId",
          "type": "uint256"
        }
      ],
      "name": "getDoctorData",
      "outputs": [
        {
          "components": [
            {
              "internalType": "bytes32",
              "name": "doctorName",
              "type": "bytes32"
            },
            {
              "internalType": "bytes32[]",
              "name": "hospitalNames",
              "type": "bytes32[]"
            },
            {
              "internalType": "uint256",
              "name": "currentHospital",
              "type": "uint256"
            },
            {
              "internalType": "bool",
              "name": "exists",
              "type": "bool"
            },
            {
              "internalType": "uint256[]",
              "name": "vaccinationRecordIds",
              "type": "uint256[]"
            },
            {
              "internalType": "uint256[]",
              "name": "treatmentRecordIds",
              "type": "uint256[]"
            }
          ],
          "internalType": "struct DogChain.doctor",
          "name": "",
          "type": "tuple"
        }
      ],
      "stateMutability": "view",
      "type": "function",
      "constant": true
    },
    {
      "inputs": [
        {
          "internalType": "uint256",
          "name": "_docId",
          "type": "uint256"
        }
      ],
      "name": "getDoctorVaccinations",
      "outputs": [
        {
          "internalType": "uint256[]",
          "name": "",
          "type": "uint256[]"
        }
      ],
      "stateMutability": "view",
      "type": "function",
      "constant": true
    },
    {
      "inputs": [
        {
          "internalType": "uint256",
          "name": "_docId",
          "type": "uint256"
        }
      ],
      "name": "getDoctorTreatments",
      "outputs": [
        {
          "internalType": "uint256[]",
          "name": "",
          "type": "uint256[]"
        }
      ],
      "stateMutability": "view",
      "type": "function",
      "constant": true
    },
    {
      "inputs": [
        {
          "internalType": "uint256",
          "name": "_docId",
          "type": "uint256"
        },
        {
          "internalType": "bytes32",
          "name": "_newHospitalName",
          "type": "bytes32"
        }
      ],
      "name": "changeHospital",
      "outputs": [],
      "stateMutability": "nonpayable",
      "type": "function"
    },
    {
      "inputs": [
        {
          "internalType": "uint256",
          "name": "_docId",
          "type": "uint256"
        }
      ],
      "name": "getWorkedHospitals",
      "outputs": [
        {
          "internalType": "bytes32[]",
          "name": "",
          "type": "bytes32[]"
        }
      ],
      "stateMutability": "view",
      "type": "function",
      "constant": true
    },
    {
      "inputs": [
        {
          "internalType": "uint256",
          "name": "_docId",
          "type": "uint256"
        }
      ],
      "name": "getCurrentWorkingHospital",
      "outputs": [
        {
          "internalType": "bytes32",
          "name": "",
          "type": "bytes32"
        }
      ],
      "stateMutability": "view",
      "type": "function",
      "constant": true
    },
    {
      "inputs": [
        {
          "internalType": "uint256",
          "name": "_dogId",
          "type": "uint256"
        },
        {
          "internalType": "bytes32",
          "name": "_dogName",
          "type": "bytes32"
        },
        {
          "internalType": "bytes32",
          "name": "_breed",
          "type": "bytes32"
        },
        {
          "internalType": "bytes32",
          "name": "_colour",
          "type": "bytes32"
        },
        {
          "internalType": "enum DogChain.dogSex",
          "name": "_sex",
          "type": "uint8"
        },
        {
          "internalType": "bytes19",
          "name": "_dob",
          "type": "bytes19"
        },
        {
          "internalType": "uint256",
          "name": "_fatherId",
          "type": "uint256"
        },
        {
          "internalType": "uint256",
          "name": "_motherId",
          "type": "uint256"
        },
        {
          "internalType": "uint256",
          "name": "_breederId",
          "type": "uint256"
        }
      ],
      "name": "dogBirthRegistration",
      "outputs": [],
      "stateMutability": "nonpayable",
      "type": "function"
    },
    {
      "inputs": [
        {
          "internalType": "uint256",
          "name": "_dogId",
          "type": "uint256"
        }
      ],
      "name": "getDogData",
      "outputs": [
        {
          "components": [
            {
              "internalType": "bytes32",
              "name": "dogName",
              "type": "bytes32"
            },
            {
              "internalType": "bytes32",
              "name": "breed",
              "type": "bytes32"
            },
            {
              "internalType": "bytes32",
              "name": "colour",
              "type": "bytes32"
            },
            {
              "internalType": "enum DogChain.dogSex",
              "name": "sex",
              "type": "uint8"
            },
            {
              "internalType": "bytes19",
              "name": "dateOfBirth",
              "type": "bytes19"
            },
            {
              "internalType": "uint256",
              "name": "fatherId",
              "type": "uint256"
            },
            {
              "internalType": "bytes32",
              "name": "fatherName",
              "type": "bytes32"
            },
            {
              "internalType": "uint256",
              "name": "motherId",
              "type": "uint256"
            },
            {
              "internalType": "bytes32",
              "name": "motherName",
              "type": "bytes32"
            },
            {
              "internalType": "uint256",
              "name": "breederId",
              "type": "uint256"
            },
            {
              "internalType": "uint256[]",
              "name": "ownerIds",
              "type": "uint256[]"
            },
            {
              "internalType": "uint256",
              "name": "currentOwner",
              "type": "uint256"
            },
            {
              "internalType": "uint256[]",
              "name": "vaccineIds",
              "type": "uint256[]"
            },
            {
              "internalType": "uint256[]",
              "name": "treatmentIds",
              "type": "uint256[]"
            },
            {
              "internalType": "bool",
              "name": "exists",
              "type": "bool"
            }
          ],
          "internalType": "struct DogChain.dog",
          "name": "",
          "type": "tuple"
        }
      ],
      "stateMutability": "view",
      "type": "function",
      "constant": true
    },
    {
      "inputs": [
        {
          "internalType": "uint256",
          "name": "_dogId",
          "type": "uint256"
        },
        {
          "internalType": "uint256",
          "name": "_currentOwnerId",
          "type": "uint256"
        },
        {
          "internalType": "uint256",
          "name": "_newOwnerId",
          "type": "uint256"
        }
      ],
      "name": "transferDogOwnership",
      "outputs": [],
      "stateMutability": "nonpayable",
      "type": "function"
    },
    {
      "inputs": [
        {
          "internalType": "uint256",
          "name": "_dogId",
          "type": "uint256"
        }
      ],
      "name": "getDogBreeder",
      "outputs": [
        {
          "internalType": "uint256",
          "name": "",
          "type": "uint256"
        }
      ],
      "stateMutability": "view",
      "type": "function",
      "constant": true
    },
    {
      "inputs": [
        {
          "internalType": "uint256",
          "name": "_dogId",
          "type": "uint256"
        }
      ],
      "name": "getDogOwnersList",
      "outputs": [
        {
          "internalType": "uint256[]",
          "name": "",
          "type": "uint256[]"
        }
      ],
      "stateMutability": "view",
      "type": "function",
      "constant": true
    },
    {
      "inputs": [
        {
          "internalType": "uint256",
          "name": "_dogId",
          "type": "uint256"
        }
      ],
      "name": "getDogCurrentOwner",
      "outputs": [
        {
          "internalType": "uint256",
          "name": "",
          "type": "uint256"
        }
      ],
      "stateMutability": "view",
      "type": "function",
      "constant": true
    },
    {
      "inputs": [
        {
          "internalType": "uint256",
          "name": "_dogId",
          "type": "uint256"
        }
      ],
      "name": "getDogVaccines",
      "outputs": [
        {
          "internalType": "uint256[]",
          "name": "",
          "type": "uint256[]"
        }
      ],
      "stateMutability": "view",
      "type": "function",
      "constant": true
    },
    {
      "inputs": [
        {
          "internalType": "uint256",
          "name": "_dogId",
          "type": "uint256"
        }
      ],
      "name": "getDogTreatments",
      "outputs": [
        {
          "internalType": "uint256[]",
          "name": "",
          "type": "uint256[]"
        }
      ],
      "stateMutability": "view",
      "type": "function",
      "constant": true
    },
    {
      "inputs": [
        {
          "internalType": "uint256",
          "name": "_vaccId",
          "type": "uint256"
        },
        {
          "internalType": "uint256",
          "name": "_dogId",
          "type": "uint256"
        },
        {
          "internalType": "bytes19",
          "name": "_vaccDate",
          "type": "bytes19"
        },
        {
          "internalType": "uint256",
          "name": "_dogAgeYears",
          "type": "uint256"
        },
        {
          "internalType": "uint256",
          "name": "_dogAgeMonths",
          "type": "uint256"
        },
        {
          "internalType": "uint256",
          "name": "_docId",
          "type": "uint256"
        },
        {
          "internalType": "bytes32",
          "name": "_vaccName",
          "type": "bytes32"
        }
      ],
      "name": "vaccinateDog",
      "outputs": [],
      "stateMutability": "nonpayable",
      "type": "function"
    },
    {
      "inputs": [
        {
          "internalType": "uint256",
          "name": "_vaccId",
          "type": "uint256"
        }
      ],
      "name": "getVaccineData",
      "outputs": [
        {
          "components": [
            {
              "internalType": "uint256",
              "name": "dogId",
              "type": "uint256"
            },
            {
              "internalType": "uint256",
              "name": "ownerId",
              "type": "uint256"
            },
            {
              "internalType": "bytes19",
              "name": "vaccinatedDate",
              "type": "bytes19"
            },
            {
              "internalType": "uint256",
              "name": "dogAgeYears",
              "type": "uint256"
            },
            {
              "internalType": "uint256",
              "name": "dogAgeMonths",
              "type": "uint256"
            },
            {
              "internalType": "uint256",
              "name": "doctorId",
              "type": "uint256"
            },
            {
              "internalType": "bytes32",
              "name": "hospitalName",
              "type": "bytes32"
            },
            {
              "internalType": "bytes32",
              "name": "vaccineName",
              "type": "bytes32"
            },
            {
              "internalType": "bool",
              "name": "exists",
              "type": "bool"
            }
          ],
          "internalType": "struct DogChain.vaccine",
          "name": "",
          "type": "tuple"
        }
      ],
      "stateMutability": "view",
      "type": "function",
      "constant": true
    },
    {
      "inputs": [
        {
          "internalType": "uint256",
          "name": "_treatmentId",
          "type": "uint256"
        },
        {
          "internalType": "uint256",
          "name": "_dogId",
          "type": "uint256"
        },
        {
          "internalType": "bytes19",
          "name": "_admissionDate",
          "type": "bytes19"
        },
        {
          "internalType": "uint256",
          "name": "_dogAgeYears",
          "type": "uint256"
        },
        {
          "internalType": "uint256",
          "name": "_dogAgeMonths",
          "type": "uint256"
        },
        {
          "internalType": "uint256",
          "name": "_docId",
          "type": "uint256"
        },
        {
          "internalType": "bytes32[]",
          "name": "_symptoms",
          "type": "bytes32[]"
        },
        {
          "internalType": "bytes32",
          "name": "_verdict",
          "type": "bytes32"
        },
        {
          "internalType": "bytes32[]",
          "name": "_medicines",
          "type": "bytes32[]"
        }
      ],
      "name": "treatDog",
      "outputs": [],
      "stateMutability": "nonpayable",
      "type": "function"
    },
    {
      "inputs": [
        {
          "internalType": "uint256",
          "name": "_treatmentId",
          "type": "uint256"
        }
      ],
      "name": "getDogTreatmentData",
      "outputs": [
        {
          "components": [
            {
              "internalType": "uint256",
              "name": "dogId",
              "type": "uint256"
            },
            {
              "internalType": "uint256",
              "name": "ownerId",
              "type": "uint256"
            },
            {
              "internalType": "bytes19",
              "name": "admissionDate",
              "type": "bytes19"
            },
            {
              "internalType": "uint256",
              "name": "dogAgeYears",
              "type": "uint256"
            },
            {
              "internalType": "uint256",
              "name": "dogAgeMonths",
              "type": "uint256"
            },
            {
              "internalType": "uint256",
              "name": "doctorId",
              "type": "uint256"
            },
            {
              "internalType": "bytes32",
              "name": "hospitalName",
              "type": "bytes32"
            },
            {
              "internalType": "bytes32[]",
              "name": "symptoms",
              "type": "bytes32[]"
            },
            {
              "internalType": "bytes32",
              "name": "verdict",
              "type": "bytes32"
            },
            {
              "internalType": "bytes32[]",
              "name": "medicinesPrescribed",
              "type": "bytes32[]"
            },
            {
              "internalType": "bool",
              "name": "exists",
              "type": "bool"
            }
          ],
          "internalType": "struct DogChain.treatment",
          "name": "",
          "type": "tuple"
        }
      ],
      "stateMutability": "view",
      "type": "function",
      "constant": true
    }
  ],
  "bytecode": "0x608060405234801561001057600080fd5b5061564280620000216000396000f3fe608060405234801561001057600080fd5b506004361061023d5760003560e01c80636ce5c0e71161013b578063aec412f5116100b8578063c66961891161007c578063c669618914610806578063ca4c116014610836578063e363b32014610866578063f0d9509014610882578063ff0a3cd9146108a05761023d565b8063aec412f51461072a578063b377b8d41461075a578063b88690451461078a578063bd276fee146107ba578063c0a1c347146107d65761023d565b80637a9d848d116100ff5780637a9d848d1461063a5780637fef96a41461066a578063806f253a1461069a57806387007ee9146106ca5780639a7c05cb146106fa5761023d565b80636ce5c0e714610572578063736be4011461058e57806373e74244146105be5780637459a35d146105ee57806378ee12ff1461060a5761023d565b806329a4041c116101c9578063480372471161018d5780634803724714610482578063500392ed146104b257806359a2a83b146104e25780635a9ec3b9146105125780636c89c07e146105425761023d565b806329a4041c146103cc578063322c2629146103ea578063386c460e1461041a5780633fc516281461043657806340cd9972146104525761023d565b80631e859912116102105780631e859912146102f057806320721e2914610320578063207ffda7146103505780632171169a1461038057806328676d5a1461039c5761023d565b80630b03d4b5146102425780631228af6514610272578063180cad13146102a2578063181fe0df146102d2575b600080fd5b61025c60048036038101906102579190613b41565b6108bc565b604051610269919061527f565b60405180910390f35b61028c60048036038101906102879190613b41565b610b2e565b60405161029991906150a5565b60405180910390f35b6102bc60048036038101906102b79190613b41565b610bdc565b6040516102c9919061525d565b60405180910390f35b6102da610da3565b6040516102e79190615068565b60405180910390f35b61030a60048036038101906103059190613b41565b610dfb565b6040516103179190615068565b60405180910390f35b61033a60048036038101906103359190613b41565b610ecc565b604051610347919061508a565b60405180910390f35b61036a60048036038101906103659190613b00565b610f0a565b6040516103779190615046565b60405180910390f35b61039a60048036038101906103959190613cbb565b611066565b005b6103b660048036038101906103b19190613b00565b611344565b6040516103c39190614fe0565b60405180910390f35b6103d461153e565b6040516103e19190615068565b60405180910390f35b61040460048036038101906103ff9190613b41565b611596565b604051610411919061508a565b60405180910390f35b610434600480360381019061042f9190613b6a565b6115d4565b005b610450600480360381019061044b9190613ba6565b61169e565b005b61046c60048036038101906104679190613b41565b61176f565b604051610479919061508a565b60405180910390f35b61049c60048036038101906104979190613b41565b6117ad565b6040516104a9919061508a565b60405180910390f35b6104cc60048036038101906104c79190613b41565b6117eb565b6040516104d991906152c3565b60405180910390f35b6104fc60048036038101906104f79190613b41565b611914565b60405161050991906152a1565b60405180910390f35b61052c60048036038101906105279190613b00565b611aed565b6040516105399190615024565b60405180910390f35b61055c60048036038101906105579190613b41565b611cf9565b6040516105699190615068565b60405180910390f35b61058c60048036038101906105879190613b6a565b611e6e565b005b6105a860048036038101906105a39190613b41565b611ebc565b6040516105b59190615068565b60405180910390f35b6105d860048036038101906105d39190613b41565b611f8d565b6040516105e5919061523b565b60405180910390f35b61060860048036038101906106039190613b6a565b6120f2565b005b610624600480360381019061061f9190613b00565b612169565b6040516106319190615002565b60405180910390f35b610654600480360381019061064f9190613b41565b61240e565b60405161066191906152df565b60405180910390f35b610684600480360381019061067f9190613b41565b612491565b6040516106919190615068565b60405180910390f35b6106b460048036038101906106af9190613b41565b612562565b6040516106c19190614f9c565b60405180910390f35b6106e460048036038101906106df9190613b41565b612633565b6040516106f19190615220565b60405180910390f35b610714600480360381019061070f9190613b41565b6126e8565b6040516107219190615068565b60405180910390f35b610744600480360381019061073f9190613b41565b6127b9565b6040516107519190615068565b60405180910390f35b610774600480360381019061076f9190613b00565b61288a565b6040516107819190614fbe565b60405180910390f35b6107a4600480360381019061079f9190613b41565b612a22565b6040516107b19190615068565b60405180910390f35b6107d460048036038101906107cf9190613db1565b612af3565b005b6107f060048036038101906107eb9190613b41565b612d79565b6040516107fd919061508a565b60405180910390f35b610820600480360381019061081b9190613b41565b612db7565b60405161082d91906152df565b60405180910390f35b610850600480360381019061084b9190613b41565b612e65565b60405161085d9190615068565b60405180910390f35b610880600480360381019061087b9190613e4f565b612f36565b005b61088a61322a565b6040516108979190615068565b60405180910390f35b6108ba60048036038101906108b59190613bf5565b613282565b005b6108c461373d565b60016000838152602001908152602001600020600d0160009054906101000a900460ff16610927576040517f08c379a000000000000000000000000000000000000000000000000000000000815260040161091e90615160565b60405180910390fd5b60016000838152602001908152602001600020604051806101e00160405290816000820154815260200160018201548152602001600282015481526020016003820160009054906101000a900460ff16600181111561098257fe5b600181111561098d57fe5b81526020016003820160019054906101000a900460681b6cffffffffffffffffffffffffff19166cffffffffffffffffffffffffff19168152602001600482015481526020016005820154815260200160068201548152602001600782015481526020016008820154815260200160098201805480602002602001604051908101604052809291908181526020018280548015610a4957602002820191906000526020600020905b815481526020019060010190808311610a35575b50505050508152602001600a8201548152602001600b8201805480602002602001604051908101604052809291908181526020018280548015610aab57602002820191906000526020600020905b815481526020019060010190808311610a97575b50505050508152602001600c8201805480602002602001604051908101604052809291908181526020018280548015610b0357602002820191906000526020600020905b815481526020019060010190808311610aef575b50505050508152602001600d820160009054906101000a900460ff1615151515815250509050919050565b60006003600083815260200190815260200160002060030160009054906101000a900460ff16610b93576040517f08c379a0000000000000000000000000000000000000000000000000000000008152600401610b8a90615140565b60405180910390fd5b60036000838152602001908152602001600020600101600360008481526020019081526020016000206002015481548110610bca57fe5b90600052602060002001549050919050565b610be46137df565b6003600083815260200190815260200160002060030160009054906101000a900460ff16610c47576040517f08c379a0000000000000000000000000000000000000000000000000000000008152600401610c3e90615140565b60405180910390fd5b600360008381526020019081526020016000206040518060c00160405290816000820154815260200160018201805480602002602001604051908101604052809291908181526020018280548015610cbe57602002820191906000526020600020905b815481526020019060010190808311610caa575b50505050508152602001600282015481526020016003820160009054906101000a900460ff1615151515815260200160048201805480602002602001604051908101604052809291908181526020018280548015610d3b57602002820191906000526020600020905b815481526020019060010190808311610d27575b5050505050815260200160058201805480602002602001604051908101604052809291908181526020018280548015610d9357602002820191906000526020600020905b815481526020019060010190808311610d7f575b5050505050815250509050919050565b60606007805480602002602001604051908101604052809291908181526020018280548015610df157602002820191906000526020600020905b815481526020019060010190808311610ddd575b5050505050905090565b60606002600083815260200190815260200160002060030160009054906101000a900460ff16610e60576040517f08c379a0000000000000000000000000000000000000000000000000000000008152600401610e5790615100565b60405180910390fd5b60026000838152602001908152602001600020600201805480602002602001604051908101604052809291908181526020018280548015610ec057602002820191906000526020600020905b815481526020019060010190808311610eac575b50505050509050919050565b600060016000838152602001908152602001600020600d0160009054906101000a900460ff1615610f005760019050610f05565b600090505b919050565b606080825167ffffffffffffffff81118015610f2557600080fd5b50604051908082528060200260200182016040528015610f5f57816020015b610f4c61381a565b815260200190600190039081610f445790505b50905060005b835181101561105c5760056000858381518110610f7e57fe5b602002602001015181526020019081526020016000206040518061012001604052908160008201548152602001600182015481526020016002820160009054906101000a900460681b6cffffffffffffffffffffffffff19166cffffffffffffffffffffffffff1916815260200160038201548152602001600482015481526020016005820154815260200160068201548152602001600782015481526020016008820160009054906101000a900460ff16151515158152505082828151811061104457fe5b60200260200101819052508080600101915050610f65565b5080915050919050565b60016000898152602001908152602001600020600d0160009054906101000a900460ff166110c9576040517f08c379a00000000000000000000000000000000000000000000000000000000081526004016110c090615160565b60405180910390fd5b6003600085815260200190815260200160002060030160009054906101000a900460ff1661112c576040517f08c379a000000000000000000000000000000000000000000000000000000000815260040161112390615140565b60405180910390fd5b87600660008b81526020019081526020016000206000018190555061115088612db7565b600660008b81526020019081526020016000206001018190555086600660008b815260200190815260200160002060020160006101000a81548172ffffffffffffffffffffffffffffffffffffff021916908360681c021790555085600660008b81526020019081526020016000206003018190555084600660008b81526020019081526020016000206004018190555083600660008b81526020019081526020016000206005018190555061120584610b2e565b600660008b81526020019081526020016000206006018190555082600660008b8152602001908152602001600020600701908051906020019061124992919061387e565b5081600660008b81526020019081526020016000206008018190555080600660008b8152602001908152602001600020600901908051906020019061128f92919061387e565b506001600660008b8152602001908152602001600020600a0160006101000a81548160ff02191690831515021790555060016000898152602001908152602001600020600c0189908060018154018082558091505060019003906000526020600020016000909190919091505560036000858152602001908152602001600020600501899080600181540180825580915050600190039060005260206000200160009091909190915055505050505050505050565b606080825167ffffffffffffffff8111801561135f57600080fd5b5060405190808252806020026020018201604052801561139957816020015b6113866137df565b81526020019060019003908161137e5790505b50905060005b835181101561153457600360008583815181106113b857fe5b602002602001015181526020019081526020016000206040518060c0016040529081600082015481526020016001820180548060200260200160405190810160405280929190818152602001828054801561143257602002820191906000526020600020905b81548152602001906001019080831161141e575b50505050508152602001600282015481526020016003820160009054906101000a900460ff16151515158152602001600482018054806020026020016040519081016040528092919081815260200182805480156114af57602002820191906000526020600020905b81548152602001906001019080831161149b575b505050505081526020016005820180548060200260200160405190810160405280929190818152602001828054801561150757602002820191906000526020600020905b8154815260200190600101908083116114f3575b50505050508152505082828151811061151c57fe5b6020026020010181905250808060010191505061139f565b5080915050919050565b6060600980548060200260200160405190810160405280929190818152602001828054801561158c57602002820191906000526020600020905b815481526020019060010190808311611578575b5050505050905090565b60006003600083815260200190815260200160002060030160009054906101000a900460ff16156115ca57600190506115cf565b600090505b919050565b6003600083815260200190815260200160002060030160009054906101000a900460ff16611637576040517f08c379a000000000000000000000000000000000000000000000000000000000815260040161162e90615140565b60405180910390fd5b6003600083815260200190815260200160002060010181908060018154018082558091505060019003906000526020600020016000909190919091505560036000838152602001908152602001600020600201600081548092919060010191905055505050565b816003600085815260200190815260200160002060000181905550600360008481526020019081526020016000206001018190806001815401808255809150506001900390600052602060002001600090919091909150556000600360008581526020019081526020016000206002018190555060016003600085815260200190815260200160002060030160006101000a81548160ff0219169083151502179055506008839080600181540180825580915050600190039060005260206000200160009091909190915055505050565b60006005600083815260200190815260200160002060080160009054906101000a900460ff16156117a357600190506117a8565b600090505b919050565b600060066000838152602001908152602001600020600a0160009054906101000a900460ff16156117e157600190506117e6565b600090505b919050565b6117f361381a565b6005600083815260200190815260200160002060080160009054906101000a900460ff16611856576040517f08c379a000000000000000000000000000000000000000000000000000000000815260040161184d906151e0565b60405180910390fd5b600560008381526020019081526020016000206040518061012001604052908160008201548152602001600182015481526020016002820160009054906101000a900460681b6cffffffffffffffffffffffffff19166cffffffffffffffffffffffffff1916815260200160038201548152602001600482015481526020016005820154815260200160068201548152602001600782015481526020016008820160009054906101000a900460ff1615151515815250509050919050565b61191c6138cb565b60066000838152602001908152602001600020600a0160009054906101000a900460ff1661197f576040517f08c379a0000000000000000000000000000000000000000000000000000000008152600401611976906150c0565b60405180910390fd5b600660008381526020019081526020016000206040518061016001604052908160008201548152602001600182015481526020016002820160009054906101000a900460681b6cffffffffffffffffffffffffff19166cffffffffffffffffffffffffff191681526020016003820154815260200160048201548152602001600582015481526020016006820154815260200160078201805480602002602001604051908101604052809291908181526020018280548015611a6057602002820191906000526020600020905b815481526020019060010190808311611a4c575b505050505081526020016008820154815260200160098201805480602002602001604051908101604052809291908181526020018280548015611ac257602002820191906000526020600020905b815481526020019060010190808311611aae575b50505050508152602001600a820160009054906101000a900460ff1615151515815250509050919050565b606080825167ffffffffffffffff81118015611b0857600080fd5b50604051908082528060200260200182016040528015611b4257816020015b611b2f6138cb565b815260200190600190039081611b275790505b50905060005b8351811015611cef5760066000858381518110611b6157fe5b602002602001015181526020019081526020016000206040518061016001604052908160008201548152602001600182015481526020016002820160009054906101000a900460681b6cffffffffffffffffffffffffff19166cffffffffffffffffffffffffff191681526020016003820154815260200160048201548152602001600582015481526020016006820154815260200160078201805480602002602001604051908101604052809291908181526020018280548015611c4557602002820191906000526020600020905b815481526020019060010190808311611c31575b505050505081526020016008820154815260200160098201805480602002602001604051908101604052809291908181526020018280548015611ca757602002820191906000526020600020905b815481526020019060010190808311611c93575b50505050508152602001600a820160009054906101000a900460ff161515151581525050828281518110611cd757fe5b60200260200101819052508080600101915050611b48565b5080915050919050565b60606002600083815260200190815260200160002060030160009054906101000a900460ff16611d5e576040517f08c379a0000000000000000000000000000000000000000000000000000000008152600401611d5590615100565b60405180910390fd5b6060611d6983610dfb565b51611d7384612a22565b510367ffffffffffffffff81118015611d8b57600080fd5b50604051908082528060200260200182016040528015611dba5781602001602082028036833780820191505090505b50905060006060611dca85612a22565b905060005b8151811015611e62576000808781526020019081526020016000206000838381518110611df857fe5b6020026020010151815260200190815260200160002060009054906101000a900460ff16611e5557818181518110611e2c57fe5b6020026020010151848481518110611e4057fe5b60200260200101818152505082806001019350505b8080600101915050611dcf565b50829350505050919050565b80600460008481526020019081526020016000206000018190555060016004600084815260200190815260200160002060010160006101000a81548160ff0219169083151502179055505050565b606060016000838152602001908152602001600020600d0160009054906101000a900460ff16611f21576040517f08c379a0000000000000000000000000000000000000000000000000000000008152600401611f1890615160565b60405180910390fd5b60016000838152602001908152602001600020600901805480602002602001604051908101604052809291908181526020018280548015611f8157602002820191906000526020600020905b815481526020019060010190808311611f6d575b50505050509050919050565b611f9561393d565b6002600083815260200190815260200160002060030160009054906101000a900460ff16611ff8576040517f08c379a0000000000000000000000000000000000000000000000000000000008152600401611fef90615100565b60405180910390fd5b60026000838152602001908152602001600020604051806080016040529081600082015481526020016001820180548060200260200160405190810160405280929190818152602001828054801561206f57602002820191906000526020600020905b81548152602001906001019080831161205b575b50505050508152602001600282018054806020026020016040519081016040528092919081815260200182805480156120c757602002820191906000526020600020905b8154815260200190600101908083116120b3575b505050505081526020016003820160009054906101000a900460ff1615151515815250509050919050565b80600260008481526020019081526020016000206000018190555060016002600084815260200190815260200160002060030160006101000a81548160ff02191690831515021790555060078290806001815401808255809150506001900390600052602060002001600090919091909150555050565b606080825167ffffffffffffffff8111801561218457600080fd5b506040519080825280602002602001820160405280156121be57816020015b6121ab61373d565b8152602001906001900390816121a35790505b50905060005b835181101561240457600160008583815181106121dd57fe5b60200260200101518152602001908152602001600020604051806101e00160405290816000820154815260200160018201548152602001600282015481526020016003820160009054906101000a900460ff16600181111561223b57fe5b600181111561224657fe5b81526020016003820160019054906101000a900460681b6cffffffffffffffffffffffffff19166cffffffffffffffffffffffffff1916815260200160048201548152602001600582015481526020016006820154815260200160078201548152602001600882015481526020016009820180548060200260200160405190810160405280929190818152602001828054801561230257602002820191906000526020600020905b8154815260200190600101908083116122ee575b50505050508152602001600a8201548152602001600b820180548060200260200160405190810160405280929190818152602001828054801561236457602002820191906000526020600020905b815481526020019060010190808311612350575b50505050508152602001600c82018054806020026020016040519081016040528092919081815260200182805480156123bc57602002820191906000526020600020905b8154815260200190600101908083116123a8575b50505050508152602001600d820160009054906101000a900460ff1615151515815250508282815181106123ec57fe5b602002602001018190525080806001019150506121c4565b5080915050919050565b600060016000838152602001908152602001600020600d0160009054906101000a900460ff16612473576040517f08c379a000000000000000000000000000000000000000000000000000000000815260040161246a90615160565b60405180910390fd5b60016000838152602001908152602001600020600801549050919050565b60606003600083815260200190815260200160002060030160009054906101000a900460ff166124f6576040517f08c379a00000000000000000000000000000000000000000000000000000000081526004016124ed90615140565b60405180910390fd5b6003600083815260200190815260200160002060040180548060200260200160405190810160405280929190818152602001828054801561255657602002820191906000526020600020905b815481526020019060010190808311612542575b50505050509050919050565b60606003600083815260200190815260200160002060030160009054906101000a900460ff166125c7576040517f08c379a00000000000000000000000000000000000000000000000000000000081526004016125be90615140565b60405180910390fd5b6003600083815260200190815260200160002060010180548060200260200160405190810160405280929190818152602001828054801561262757602002820191906000526020600020905b815481526020019060010190808311612613575b50505050509050919050565b61263b61396a565b6004600083815260200190815260200160002060010160009054906101000a900460ff1661269e576040517f08c379a0000000000000000000000000000000000000000000000000000000008152600401612695906151a0565b60405180910390fd5b60046000838152602001908152602001600020604051806040016040529081600082015481526020016001820160009054906101000a900460ff1615151515815250509050919050565b606060016000838152602001908152602001600020600d0160009054906101000a900460ff1661274d576040517f08c379a000000000000000000000000000000000000000000000000000000000815260040161274490615160565b60405180910390fd5b60016000838152602001908152602001600020600c018054806020026020016040519081016040528092919081815260200182805480156127ad57602002820191906000526020600020905b815481526020019060010190808311612799575b50505050509050919050565b60606003600083815260200190815260200160002060030160009054906101000a900460ff1661281e576040517f08c379a000000000000000000000000000000000000000000000000000000000815260040161281590615140565b60405180910390fd5b6003600083815260200190815260200160002060050180548060200260200160405190810160405280929190818152602001828054801561287e57602002820191906000526020600020905b81548152602001906001019080831161286a575b50505050509050919050565b606080825167ffffffffffffffff811180156128a557600080fd5b506040519080825280602002602001820160405280156128df57816020015b6128cc61393d565b8152602001906001900390816128c45790505b50905060005b8351811015612a1857600260008583815181106128fe57fe5b60200260200101518152602001908152602001600020604051806080016040529081600082015481526020016001820180548060200260200160405190810160405280929190818152602001828054801561297857602002820191906000526020600020905b815481526020019060010190808311612964575b50505050508152602001600282018054806020026020016040519081016040528092919081815260200182805480156129d057602002820191906000526020600020905b8154815260200190600101908083116129bc575b505050505081526020016003820160009054906101000a900460ff161515151581525050828281518110612a0057fe5b602002602001018190525080806001019150506128e5565b5080915050919050565b60606002600083815260200190815260200160002060030160009054906101000a900460ff16612a87576040517f08c379a0000000000000000000000000000000000000000000000000000000008152600401612a7e90615100565b60405180910390fd5b60026000838152602001908152602001600020600101805480602002602001604051908101604052809291908181526020018280548015612ae757602002820191906000526020600020905b815481526020019060010190808311612ad3575b50505050509050919050565b60016000878152602001908152602001600020600d0160009054906101000a900460ff16612b56576040517f08c379a0000000000000000000000000000000000000000000000000000000008152600401612b4d90615160565b60405180910390fd5b6003600083815260200190815260200160002060030160009054906101000a900460ff16612bb9576040517f08c379a0000000000000000000000000000000000000000000000000000000008152600401612bb090615140565b60405180910390fd5b856005600089815260200190815260200160002060000181905550612bdd86612db7565b6005600089815260200190815260200160002060010181905550846005600089815260200190815260200160002060020160006101000a81548172ffffffffffffffffffffffffffffffffffffff021916908360681c0217905550836005600089815260200190815260200160002060030181905550826005600089815260200190815260200160002060040181905550816005600089815260200190815260200160002060050181905550612c9282610b2e565b600560008981526020019081526020016000206006018190555080600560008981526020019081526020016000206007018190555060016005600089815260200190815260200160002060080160006101000a81548160ff02191690831515021790555060016000878152602001908152602001600020600b018790806001815401808255809150506001900390600052602060002001600090919091909150556003600083815260200190815260200160002060040187908060018154018082558091505060019003906000526020600020016000909190919091505550505050505050565b60006002600083815260200190815260200160002060030160009054906101000a900460ff1615612dad5760019050612db2565b600090505b919050565b600060016000838152602001908152602001600020600d0160009054906101000a900460ff16612e1c576040517f08c379a0000000000000000000000000000000000000000000000000000000008152600401612e1390615160565b60405180910390fd5b6001600083815260200190815260200160002060090160016000848152602001908152602001600020600a015481548110612e5357fe5b90600052602060002001549050919050565b606060016000838152602001908152602001600020600d0160009054906101000a900460ff16612eca576040517f08c379a0000000000000000000000000000000000000000000000000000000008152600401612ec190615160565b60405180910390fd5b60016000838152602001908152602001600020600b01805480602002602001604051908101604052809291908181526020018280548015612f2a57602002820191906000526020600020905b815481526020019060010190808311612f16575b50505050509050919050565b60016000848152602001908152602001600020600d0160009054906101000a900460ff16612f99576040517f08c379a0000000000000000000000000000000000000000000000000000000008152600401612f9090615160565b60405180910390fd5b6002600083815260200190815260200160002060030160009054906101000a900460ff16612ffc576040517f08c379a0000000000000000000000000000000000000000000000000000000008152600401612ff390615120565b60405180910390fd5b600080838152602001908152602001600020600084815260200190815260200160002060009054906101000a900460ff161561306d576040517f08c379a0000000000000000000000000000000000000000000000000000000008152600401613064906150e0565b60405180910390fd5b6002600082815260200190815260200160002060030160009054906101000a900460ff166130d0576040517f08c379a00000000000000000000000000000000000000000000000000000000081526004016130c7906151c0565b60405180910390fd5b60026000838152602001908152602001600020600201839080600181540180825580915050600190039060005260206000200160009091909190915055600260008281526020019081526020016000206001018390806001815401808255809150506001900390600052602060002001600090919091909150556001600084815260200190815260200160002060090181908060018154018082558091505060019003906000526020600020016000909190919091505560016000848152602001908152602001600020600a01600081548092919060010191905055506001600080848152602001908152602001600020600085815260200190815260200160002060006101000a81548160ff0219169083151502179055506000806000838152602001908152602001600020600085815260200190815260200160002060006101000a81548160ff021916908315150217905550505050565b6060600880548060200260200160405190810160405280929190818152602001828054801561327857602002820191906000526020600020905b815481526020019060010190808311613264575b5050505050905090565b60008314806132b1575060016000848152602001908152602001600020600d0160009054906101000a900460ff165b6132f0576040517f08c379a00000000000000000000000000000000000000000000000000000000081526004016132e790615200565b60405180910390fd5b600082148061331f575060016000838152602001908152602001600020600d0160009054906101000a900460ff165b61335e576040517f08c379a000000000000000000000000000000000000000000000000000000000815260040161335590615180565b60405180910390fd5b6002600082815260200190815260200160002060030160009054906101000a900460ff166133c1576040517f08c379a00000000000000000000000000000000000000000000000000000000081526004016133b890615100565b60405180910390fd5b87600160008b81526020019081526020016000206000018190555086600160008b81526020019081526020016000206001018190555085600160008b81526020019081526020016000206002018190555084600160008b815260200190815260200160002060030160006101000a81548160ff0219169083600181111561344457fe5b021790555083600160008b815260200190815260200160002060030160016101000a81548172ffffffffffffffffffffffffffffffffffffff021916908360681c021790555060008314156134ef576000600160008b8152602001908152602001600020600401819055507f506172656e74207769746820756e6b6e6f776e20706564696772656500000000600160008b81526020019081526020016000206005018190555061353c565b82600160008b8152602001908152602001600020600401819055506001600084815260200190815260200160002060000154600160008b8152602001908152602001600020600501819055505b60008214156135a1576000600160008b8152602001908152602001600020600601819055507f506172656e74207769746820756e6b6e6f776e20706564696772656500000000600160008b8152602001908152602001600020600701819055506135ee565b81600160008b8152602001908152602001600020600601819055506001600083815260200190815260200160002060000154600160008b8152602001908152602001600020600701819055505b80600160008b815260200190815260200160002060080181905550600160008a8152602001908152602001600020600901819080600181540180825580915050600190039060005260206000200160009091909190915055600260008281526020019081526020016000206001018990806001815401808255809150506001900390600052602060002001600090919091909150556000600160008b8152602001908152602001600020600a018190555060018060008b8152602001908152602001600020600d0160006101000a81548160ff0219169083151502179055506009899080600181540180825580915050600190039060005260206000200160009091909190915055600080600083815260200190815260200160002060008b815260200190815260200160002060006101000a81548160ff021916908315150217905550505050505050505050565b604051806101e001604052806000801916815260200160008019168152602001600080191681526020016000600181111561377457fe5b815260200160006cffffffffffffffffffffffffff191681526020016000815260200160008019168152602001600081526020016000801916815260200160008152602001606081526020016000815260200160608152602001606081526020016000151581525090565b6040518060c0016040528060008019168152602001606081526020016000815260200160001515815260200160608152602001606081525090565b604051806101200160405280600081526020016000815260200160006cffffffffffffffffffffffffff1916815260200160008152602001600081526020016000815260200160008019168152602001600080191681526020016000151581525090565b8280548282559060005260206000209081019282156138ba579160200282015b828111156138b957825182559160200191906001019061389e565b5b5090506138c79190613989565b5090565b604051806101600160405280600081526020016000815260200160006cffffffffffffffffffffffffff19168152602001600081526020016000815260200160008152602001600080191681526020016060815260200160008019168152602001606081526020016000151581525090565b60405180608001604052806000801916815260200160608152602001606081526020016000151581525090565b6040518060400160405280600080191681526020016000151581525090565b5b808211156139a257600081600090555060010161398a565b5090565b600082601f8301126139b757600080fd5b81356139ca6139c582615327565b6152fa565b915081818352602084019350602081019050838560208402820111156139ef57600080fd5b60005b83811015613a1f5781613a058882613ac1565b8452602084019350602083019250506001810190506139f2565b5050505092915050565b600082601f830112613a3a57600080fd5b8135613a4d613a488261534f565b6152fa565b91508181835260208401935060208101905083856020840282011115613a7257600080fd5b60005b83811015613aa25781613a888882613aeb565b845260208401935060208301925050600181019050613a75565b5050505092915050565b600081359050613abb816155b7565b92915050565b600081359050613ad0816155ce565b92915050565b600081359050613ae5816155e5565b92915050565b600081359050613afa816155f5565b92915050565b600060208284031215613b1257600080fd5b600082013567ffffffffffffffff811115613b2c57600080fd5b613b3884828501613a29565b91505092915050565b600060208284031215613b5357600080fd5b6000613b6184828501613aeb565b91505092915050565b60008060408385031215613b7d57600080fd5b6000613b8b85828601613aeb565b9250506020613b9c85828601613ac1565b9150509250929050565b600080600060608486031215613bbb57600080fd5b6000613bc986828701613aeb565b9350506020613bda86828701613ac1565b9250506040613beb86828701613ac1565b9150509250925092565b60008060008060008060008060006101208a8c031215613c1457600080fd5b6000613c228c828d01613aeb565b9950506020613c338c828d01613ac1565b9850506040613c448c828d01613ac1565b9750506060613c558c828d01613ac1565b9650506080613c668c828d01613ad6565b95505060a0613c778c828d01613aac565b94505060c0613c888c828d01613aeb565b93505060e0613c998c828d01613aeb565b925050610100613cab8c828d01613aeb565b9150509295985092959850929598565b60008060008060008060008060006101208a8c031215613cda57600080fd5b6000613ce88c828d01613aeb565b9950506020613cf98c828d01613aeb565b9850506040613d0a8c828d01613aac565b9750506060613d1b8c828d01613aeb565b9650506080613d2c8c828d01613aeb565b95505060a0613d3d8c828d01613aeb565b94505060c08a013567ffffffffffffffff811115613d5a57600080fd5b613d668c828d016139a6565b93505060e0613d778c828d01613ac1565b9250506101008a013567ffffffffffffffff811115613d9557600080fd5b613da18c828d016139a6565b9150509295985092959850929598565b600080600080600080600060e0888a031215613dcc57600080fd5b6000613dda8a828b01613aeb565b9750506020613deb8a828b01613aeb565b9650506040613dfc8a828b01613aac565b9550506060613e0d8a828b01613aeb565b9450506080613e1e8a828b01613aeb565b93505060a0613e2f8a828b01613aeb565b92505060c0613e408a828b01613ac1565b91505092959891949750929550565b600080600060608486031215613e6457600080fd5b6000613e7286828701613aeb565b9350506020613e8386828701613aeb565b9250506040613e9486828701613aeb565b9150509250925092565b6000613eaa838361430e565b60208301905092915050565b6000613ec28383614780565b905092915050565b6000613ed68383614854565b905092915050565b6000613eea8383614982565b905092915050565b6000613efe8383614c24565b905092915050565b6000613f128383614e10565b6101208301905092915050565b6000613f2b8383614f7e565b60208301905092915050565b6000613f42826153e7565b613f4c818561548f565b9350613f5783615377565b8060005b83811015613f88578151613f6f8882613e9e565b9750613f7a83615434565b925050600181019050613f5b565b5085935050505092915050565b6000613fa0826153e7565b613faa81856154a0565b9350613fb583615377565b8060005b83811015613fe6578151613fcd8882613e9e565b9750613fd883615434565b925050600181019050613fb9565b5085935050505092915050565b6000613ffe826153f2565b61400881856154b1565b93508360208202850161401a85615387565b8060005b8581101561405657848403895281516140378582613eb6565b945061404283615441565b925060208a0199505060018101905061401e565b50829750879550505050505092915050565b6000614073826153fd565b61407d81856154c2565b93508360208202850161408f85615397565b8060005b858110156140cb57848403895281516140ac8582613eca565b94506140b78361544e565b925060208a01995050600181019050614093565b50829750879550505050505092915050565b60006140e882615408565b6140f281856154d3565b935083602082028501614104856153a7565b8060005b8581101561414057848403895281516141218582613ede565b945061412c8361545b565b925060208a01995050600181019050614108565b50829750879550505050505092915050565b600061415d82615413565b61416781856154e4565b935083602082028501614179856153b7565b8060005b858110156141b557848403895281516141968582613ef2565b94506141a183615468565b925060208a0199505060018101905061417d565b50829750879550505050505092915050565b60006141d28261541e565b6141dc81856154f5565b93506141e7836153c7565b8060005b838110156142185781516141ff8882613f06565b975061420a83615475565b9250506001810190506141eb565b5085935050505092915050565b600061423082615429565b61423a8185615506565b9350614245836153d7565b8060005b8381101561427657815161425d8882613f1f565b975061426883615482565b925050600181019050614249565b5085935050505092915050565b600061428e82615429565b6142988185615517565b93506142a3836153d7565b8060005b838110156142d45781516142bb8882613f1f565b97506142c683615482565b9250506001810190506142a7565b5085935050505092915050565b6142ea81615539565b82525050565b6142f981615539565b82525050565b61430881615545565b82525050565b61431781615571565b82525050565b61432681615571565b82525050565b61433581615598565b82525050565b6000614348602283615528565b91507f5472656174656d656e74207265636f726420646f6573206e6f7420657869737460008301527f732e0000000000000000000000000000000000000000000000000000000000006020830152604082019050919050565b60006143ae603583615528565b91507f4272656564657220646f6573206e6f74206861766520616e79207065726d697360008301527f73696f6e20746f2073656c6c207468697320646f6700000000000000000000006020830152604082019050919050565b6000614414602683615528565b91507f427265656465722f4f776e6572206163636f756e7420646f6573206e6f74206560008301527f78697374732e00000000000000000000000000000000000000000000000000006020830152604082019050919050565b600061447a603783615528565b91507f427265656465722f4f776e6572206163636f756e74206f662063757272656e7460008301527f206f776e657220646f6573206e6f74206578697374732e0000000000000000006020830152604082019050919050565b60006144e0601f83615528565b91507f446f63746f72206163636f756e7420646f6573206e6f74206578697374732e006000830152602082019050919050565b6000614520601c83615528565b91507f446f67206163636f756e7420646f6573206e6f74206578697374732e000000006000830152602082019050919050565b6000614560602a83615528565b91507f446f67206163636f756e74206f6620746865206d6f7468657220646f6573206e60008301527f6f74206578697374732e000000000000000000000000000000000000000000006020830152604082019050919050565b60006145c6602183615528565b91507f417574686f72697479206163636f756e7420646f6573206e6f7420657869737460008301527f73000000000000000000000000000000000000000000000000000000000000006020830152604082019050919050565b600061462c603383615528565b91507f427265656465722f4f776e6572206163636f756e74206f66206e6577206f776e60008301527f657220646f6573206e6f74206578697374732e000000000000000000000000006020830152604082019050919050565b6000614692602383615528565b91507f56616363696e6174696f6e207265636f726420646f6573206e6f74206578697360008301527f74732e00000000000000000000000000000000000000000000000000000000006020830152604082019050919050565b60006146f8602a83615528565b91507f446f67206163636f756e74206f66207468652066617468657220646f6573206e60008301527f6f74206578697374732e000000000000000000000000000000000000000000006020830152604082019050919050565b604082016000820151614767600085018261430e565b50602082015161477a60208501826142e1565b50505050565b6000608083016000830151614798600086018261430e565b50602083015184820360208601526147b08282614225565b915050604083015184820360408601526147ca8282614225565b91505060608301516147df60608601826142e1565b508091505092915050565b6000608083016000830151614802600086018261430e565b506020830151848203602086015261481a8282614225565b915050604083015184820360408601526148348282614225565b915050606083015161484960608601826142e1565b508091505092915050565b600060c08301600083015161486c600086018261430e565b50602083015184820360208601526148848282613f37565b91505060408301516148996040860182614f7e565b5060608301516148ac60608601826142e1565b50608083015184820360808601526148c48282614225565b91505060a083015184820360a08601526148de8282614225565b9150508091505092915050565b600060c083016000830151614903600086018261430e565b506020830151848203602086015261491b8282613f37565b91505060408301516149306040860182614f7e565b50606083015161494360608601826142e1565b506080830151848203608086015261495b8282614225565b91505060a083015184820360a08601526149758282614225565b9150508091505092915050565b60006101e08301600083015161499b600086018261430e565b5060208301516149ae602086018261430e565b5060408301516149c1604086018261430e565b5060608301516149d4606086018261432c565b5060808301516149e760808601826142ff565b5060a08301516149fa60a0860182614f7e565b5060c0830151614a0d60c086018261430e565b5060e0830151614a2060e0860182614f7e565b50610100830151614a3561010086018261430e565b50610120830151614a4a610120860182614f7e565b50610140830151848203610140860152614a648282614225565b915050610160830151614a7b610160860182614f7e565b50610180830151848203610180860152614a958282614225565b9150506101a08301518482036101a0860152614ab18282614225565b9150506101c0830151614ac86101c08601826142e1565b508091505092915050565b60006101e083016000830151614aec600086018261430e565b506020830151614aff602086018261430e565b506040830151614b12604086018261430e565b506060830151614b25606086018261432c565b506080830151614b3860808601826142ff565b5060a0830151614b4b60a0860182614f7e565b5060c0830151614b5e60c086018261430e565b5060e0830151614b7160e0860182614f7e565b50610100830151614b8661010086018261430e565b50610120830151614b9b610120860182614f7e565b50610140830151848203610140860152614bb58282614225565b915050610160830151614bcc610160860182614f7e565b50610180830151848203610180860152614be68282614225565b9150506101a08301518482036101a0860152614c028282614225565b9150506101c0830151614c196101c08601826142e1565b508091505092915050565b600061016083016000830151614c3d6000860182614f7e565b506020830151614c506020860182614f7e565b506040830151614c6360408601826142ff565b506060830151614c766060860182614f7e565b506080830151614c896080860182614f7e565b5060a0830151614c9c60a0860182614f7e565b5060c0830151614caf60c086018261430e565b5060e083015184820360e0860152614cc78282613f37565b915050610100830151614cde61010086018261430e565b50610120830151848203610120860152614cf88282613f37565b915050610140830151614d0f6101408601826142e1565b508091505092915050565b600061016083016000830151614d336000860182614f7e565b506020830151614d466020860182614f7e565b506040830151614d5960408601826142ff565b506060830151614d6c6060860182614f7e565b506080830151614d7f6080860182614f7e565b5060a0830151614d9260a0860182614f7e565b5060c0830151614da560c086018261430e565b5060e083015184820360e0860152614dbd8282613f37565b915050610100830151614dd461010086018261430e565b50610120830151848203610120860152614dee8282613f37565b915050610140830151614e056101408601826142e1565b508091505092915050565b61012082016000820151614e276000850182614f7e565b506020820151614e3a6020850182614f7e565b506040820151614e4d60408501826142ff565b506060820151614e606060850182614f7e565b506080820151614e736080850182614f7e565b5060a0820151614e8660a0850182614f7e565b5060c0820151614e9960c085018261430e565b5060e0820151614eac60e085018261430e565b50610100820151614ec16101008501826142e1565b50505050565b61012082016000820151614ede6000850182614f7e565b506020820151614ef16020850182614f7e565b506040820151614f0460408501826142ff565b506060820151614f176060850182614f7e565b506080820151614f2a6080850182614f7e565b5060a0820151614f3d60a0850182614f7e565b5060c0820151614f5060c085018261430e565b5060e0820151614f6360e085018261430e565b50610100820151614f786101008501826142e1565b50505050565b614f878161558e565b82525050565b614f968161558e565b82525050565b60006020820190508181036000830152614fb68184613f95565b905092915050565b60006020820190508181036000830152614fd88184613ff3565b905092915050565b60006020820190508181036000830152614ffa8184614068565b905092915050565b6000602082019050818103600083015261501c81846140dd565b905092915050565b6000602082019050818103600083015261503e8184614152565b905092915050565b6000602082019050818103600083015261506081846141c7565b905092915050565b600060208201905081810360008301526150828184614283565b905092915050565b600060208201905061509f60008301846142f0565b92915050565b60006020820190506150ba600083018461431d565b92915050565b600060208201905081810360008301526150d98161433b565b9050919050565b600060208201905081810360008301526150f9816143a1565b9050919050565b6000602082019050818103600083015261511981614407565b9050919050565b600060208201905081810360008301526151398161446d565b9050919050565b60006020820190508181036000830152615159816144d3565b9050919050565b6000602082019050818103600083015261517981614513565b9050919050565b6000602082019050818103600083015261519981614553565b9050919050565b600060208201905081810360008301526151b9816145b9565b9050919050565b600060208201905081810360008301526151d98161461f565b9050919050565b600060208201905081810360008301526151f981614685565b9050919050565b60006020820190508181036000830152615219816146eb565b9050919050565b60006040820190506152356000830184614751565b92915050565b6000602082019050818103600083015261525581846147ea565b905092915050565b6000602082019050818103600083015261527781846148eb565b905092915050565b600060208201905081810360008301526152998184614ad3565b905092915050565b600060208201905081810360008301526152bb8184614d1a565b905092915050565b6000610120820190506152d96000830184614ec7565b92915050565b60006020820190506152f46000830184614f8d565b92915050565b6000604051905081810181811067ffffffffffffffff8211171561531d57600080fd5b8060405250919050565b600067ffffffffffffffff82111561533e57600080fd5b602082029050602081019050919050565b600067ffffffffffffffff82111561536657600080fd5b602082029050602081019050919050565b6000819050602082019050919050565b6000819050602082019050919050565b6000819050602082019050919050565b6000819050602082019050919050565b6000819050602082019050919050565b6000819050602082019050919050565b6000819050602082019050919050565b600081519050919050565b600081519050919050565b600081519050919050565b600081519050919050565b600081519050919050565b600081519050919050565b600081519050919050565b6000602082019050919050565b6000602082019050919050565b6000602082019050919050565b6000602082019050919050565b6000602082019050919050565b6000602082019050919050565b6000602082019050919050565b600082825260208201905092915050565b600082825260208201905092915050565b600082825260208201905092915050565b600082825260208201905092915050565b600082825260208201905092915050565b600082825260208201905092915050565b600082825260208201905092915050565b600082825260208201905092915050565b600082825260208201905092915050565b600082825260208201905092915050565b60008115159050919050565b60007fffffffffffffffffffffffffffffffffffffff0000000000000000000000000082169050919050565b6000819050919050565b6000819050615589826155aa565b919050565b6000819050919050565b60006155a38261557b565b9050919050565b600281106155b457fe5b50565b6155c081615545565b81146155cb57600080fd5b50565b6155d781615571565b81146155e257600080fd5b50565b600281106155f257600080fd5b50565b6155fe8161558e565b811461560957600080fd5b5056fea2646970667358221220e98a2d9f200df9f75db69b917ddda2a30358fa64a2464d6fcd409fc019714cbe64736f6c63430007000033",
  "immutableReferences": {},
  "source": "// SPDX-License-Identifier: GPL-3.0\npragma solidity ^0.7.0;\npragma experimental ABIEncoderV2;\n\ncontract DogChain{\n    enum dogSex{ dog, bitch }\n    \n    // struct for dog data\n    struct dog{\n        bytes32 dogName;\n        bytes32 breed;\n        bytes32 colour;\n        dogSex sex;\n        bytes19 dateOfBirth;\n        uint fatherId;\n        bytes32 fatherName;\n        uint motherId;\n        bytes32 motherName;\n        uint breederId;\n        uint[] ownerIds;\n        uint currentOwner;\n        uint[] vaccineIds;\n        uint[] treatmentIds;\n        bool exists;\n    }\n    \n    // struct for breeder data\n    struct breeder{\n        bytes32 breederName;\n        uint[] dogIds;\n        uint[] soldDogIds;\n        bool exists;\n    }\n    \n    // struct for doctor data\n    struct doctor{\n        bytes32 doctorName;\n        bytes32[] hospitalNames;\n        uint currentHospital;\n        bool exists;\n        uint[] vaccinationRecordIds;\n        uint[] treatmentRecordIds;\n    }\n    \n    // struct for authority data\n    struct authority{\n        bytes32 authorityName;\n        bool exists;\n    }\n    \n    // struct for vaccine data\n    struct vaccine{\n        uint dogId;\n        uint ownerId;\n        bytes19 vaccinatedDate;\n        uint dogAgeYears;\n        uint dogAgeMonths;\n        uint doctorId;\n        bytes32 hospitalName;\n        bytes32 vaccineName;\n        bool exists;\n    }\n    \n    // struct for treatment data\n    struct treatment{\n        uint dogId;\n        uint ownerId;\n        bytes19 admissionDate;\n        uint dogAgeYears;\n        uint dogAgeMonths;\n        uint doctorId;\n        bytes32 hospitalName;\n        bytes32[] symptoms;\n        bytes32 verdict;\n        bytes32[] medicinesPrescribed;\n        bool exists;\n    }\n    \n    // mapping for finding whether a dog of an owner is sold or not\n    mapping ( uint => mapping ( uint => bool) ) private allSoldDogs;\n    \n    mapping ( uint => dog ) private kennelClub;     // mapping for dog data\n    mapping ( uint => breeder ) private breeders;   // mapping for breeder data\n    mapping ( uint => doctor ) private doctors;     // mapping for doctor data\n    mapping ( uint => authority ) private kennelClubAuthority;      // mapping for authority data\n    mapping ( uint => vaccine ) private vaccinationRecord;          // mapping for vaccination data\n    mapping ( uint => treatment ) private treatmentRecord;          // mapping for treatment data\n    \n    uint[] private breederUsers;    // array to store all breeder's id\n    uint[] private doctorUsers;     // array to store all doctor's id\n    uint[] private dogs;            // array to store all dog's id\n    \n    \n    // AUTHORITY FUNCTIONS\n    \n    // Function to store the data of an authority account\n    function registerAuthority(\n        uint _authId,\n        bytes32 _authName\n    ) public {\n        kennelClubAuthority[_authId].authorityName = _authName;\n        kennelClubAuthority[_authId].exists = true;\n    }\n    \n    // Function to retrieve the data of an authority account\n    function getAuthorityData(uint _authId) public view returns (authority memory) {\n        require(kennelClubAuthority[_authId].exists, 'Authority account does not exists');\n        \n        return kennelClubAuthority[_authId];\n    }\n    \n    // Function to retrieve the id's of all breeder accounts\n    function getAllBreeders() public view returns (uint[] memory) {\n        return breederUsers;\n    }\n    \n    // Function to retrieve the id's of all doctor accounts\n    function getAllDoctors() public view returns (uint[] memory) {\n        return doctorUsers;\n    }\n    \n    // Function to retrieve the id's of all dog accounts\n    function getAllDogs() public view returns (uint[] memory) {\n        return dogs;\n    }\n    \n    // Function to retrieve the details of a list of breeder accounts\n    function getBreedersList(uint[] memory _breederIds) public view returns (breeder[] memory) {\n        breeder[] memory _breeders = new breeder[](_breederIds.length);\n        for(uint i = 0; i < _breederIds.length; i++) {\n            _breeders[i] = breeders[_breederIds[i]];\n        }\n        return _breeders;\n    }\n    \n    // Function to retrieve the details of a list of doctor accounts\n    function getDoctorsList(uint[] memory _docIds) public view returns (doctor[] memory) {\n        doctor[] memory _doctors = new doctor[](_docIds.length);\n        for(uint i = 0; i < _docIds.length; i++) {\n            _doctors[i] = doctors[_docIds[i]];\n        }\n        return _doctors;\n    }\n    \n    // Function to retrieve the details of a list of dog accounts\n    function getDogsList(uint[] memory _dogIds) public view returns (dog[] memory) {\n        dog[] memory _dogs = new dog[](_dogIds.length);\n        for(uint i = 0; i < _dogIds.length; i++) {\n            _dogs[i] = kennelClub[_dogIds[i]];\n        }\n        return _dogs;\n    }\n    \n    // Function to retrieve the details of a list of vaccine data\n    function getVaccinesList(uint[] memory _vaccIds) public view returns (vaccine[] memory) {\n        vaccine[] memory _vaccines = new vaccine[](_vaccIds.length);\n        for(uint i = 0; i < _vaccIds.length; i++) {\n            _vaccines[i] = vaccinationRecord[_vaccIds[i]];\n        }\n        return _vaccines;\n    }\n    \n    // Function to retrieve the details of a list of treatment data\n    function getTreatmentList(uint[] memory _treatIds) public view returns (treatment[] memory) {\n        treatment[] memory _treatments = new treatment[](_treatIds.length);\n        for(uint i = 0; i < _treatIds.length; i++) {\n            _treatments[i] = treatmentRecord[_treatIds[i]];\n        }\n        return _treatments;\n    }\n    \n    // Function to check whether a breeder account exists or not\n    function isBreederPresent(uint _breederId) public view returns(bool) {\n        if (breeders[_breederId].exists) {\n            return true;\n        } else {\n            return false;\n        }\n    }\n    \n    // Function to check whether a doctor account exists or not\n    function isDoctorPresent(uint _docId) public view returns(bool) {\n        if (doctors[_docId].exists) {\n            return true;\n        } else {\n            return false;\n        }\n    }\n    \n    // Function to check whether a dog account exists or not\n    function isDogPresent(uint _dogId) public view returns(bool) {\n        if (kennelClub[_dogId].exists) {\n            return true;\n        } else {\n            return false;\n        }\n    }\n    \n    // Function to check whether a vaccine data exists or not\n    function isVaccineDataPresent(uint _vaccId) public view returns(bool) {\n        if (vaccinationRecord[_vaccId].exists) {\n            return true;\n        } else {\n            return false;\n        }\n    }\n    \n    // Function to check whether a treatment data exists or not\n    function isTreatmentDataPresent(uint _treatmentId) public view returns(bool) {\n        if (treatmentRecord[_treatmentId].exists) {\n            return true;\n        } else {\n            return false;\n        }\n    }\n    \n    // BREEDER/OWNER FUNCTIONS\n    \n    // Function to store the data of a breeder/owner\n    function registerBreeder(\n        uint _breederId,\n        bytes32 _breederName\n    ) public {\n        breeders[_breederId].breederName = _breederName;\n        breeders[_breederId].exists = true;\n        breederUsers.push(_breederId);\n    }\n    \n    //Function to retreive the data of a breeder/owner\n    function getBreederData(uint _breederId) public view returns (breeder memory) {\n        require(breeders[_breederId].exists, 'Breeder/Owner account does not exists.');\n        \n        return breeders[_breederId];\n    }\n    \n    // Function to retreive the ids of all the dogs of a particular owner\n    function getTotalDogIds(uint _breederId) public view returns(uint[] memory) {\n        require(breeders[_breederId].exists, 'Breeder/Owner account does not exists.');\n        \n        return breeders[_breederId].dogIds;\n    }\n    \n    // Function to retreive the ids of all the sold dogs of a particular owner\n    function getSoldDogIds(uint _breederId) public view returns(uint[] memory) {\n        require(breeders[_breederId].exists, 'Breeder/Owner account does not exists.');\n        \n        return breeders[_breederId].soldDogIds;\n    }\n    \n    // Function to retreive the ids of all the dogs of a particular owner that he/she owns currently\n    function getCurrentDogIds(uint _breederId) public view returns(uint[] memory) {\n        require(breeders[_breederId].exists, 'Breeder/Owner account does not exists.');\n        \n        uint[] memory _currentDogIds = new uint[](getTotalDogIds(_breederId).length - getSoldDogIds(_breederId).length);\n        uint j = 0;\n        uint[] memory _totalDogs = getTotalDogIds(_breederId);\n        \n        for(uint i = 0; i < _totalDogs.length; i++) {\n            if (!allSoldDogs[_breederId][_totalDogs[i]]) {\n                _currentDogIds[j] = _totalDogs[i];\n                j++;\n            }\n        }\n        return _currentDogIds;\n    }\n    \n    \n    // DOCTOR FUNCTIONS\n    \n    // Function to store the data of a doctor account\n    function registerDoctor(\n        uint _docId, \n        bytes32 _docName,\n        bytes32 _hospitalName\n    ) public{\n        doctors[_docId].doctorName = _docName;\n        doctors[_docId].hospitalNames.push(_hospitalName);\n        doctors[_docId].currentHospital = 0;\n        doctors[_docId].exists = true;\n        doctorUsers.push(_docId);\n    }\n    \n    // Function to retreive the details of a doctor account\n    function getDoctorData(uint _docId) public view returns (doctor memory) {\n        require(doctors[_docId].exists, \"Doctor account does not exists.\");\n        \n        return doctors[_docId];\n    }\n    \n    // Function to retreive the ids of all the vaccinations that a doctor have done\n    function getDoctorVaccinations(uint _docId) public view returns (uint[] memory) {\n        require(doctors[_docId].exists, \"Doctor account does not exists.\");\n        \n        return doctors[_docId].vaccinationRecordIds;\n    }\n    \n    // Function to retreive the ids of all the treatments that a doctor have done\n    function getDoctorTreatments(uint _docId) public view returns (uint[] memory) {\n        require(doctors[_docId].exists, \"Doctor account does not exists.\");\n        \n        return doctors[_docId].treatmentRecordIds;\n    }\n    \n    // Function to change the current working hospital\n    function changeHospital(uint _docId, bytes32 _newHospitalName) public {\n        require(doctors[_docId].exists, \"Doctor account does not exists.\");\n        \n        doctors[_docId].hospitalNames.push(_newHospitalName);\n        doctors[_docId].currentHospital++;\n    }\n    \n    // Function to get the list of names of all the hospitals that a doctor have worked\n    function getWorkedHospitals(uint _docId) public view returns(bytes32[] memory) {\n        require(doctors[_docId].exists, \"Doctor account does not exists.\");\n        \n        return doctors[_docId].hospitalNames;\n    }\n    \n    // Function to get the current working hospital of a doctor\n    function getCurrentWorkingHospital(uint _docId) public view returns (bytes32) {\n        require(doctors[_docId].exists, \"Doctor account does not exists.\");\n        \n        return doctors[_docId].hospitalNames[doctors[_docId].currentHospital];\n    }\n    \n    \n    // DOG FUNCTIONS\n    \n    // Function to store the data of a dog\n    function dogBirthRegistration(\n        uint _dogId,\n        bytes32 _dogName,\n        bytes32 _breed,\n        bytes32 _colour,\n        dogSex _sex,\n        bytes19 _dob,\n        uint _fatherId,\n        uint _motherId,\n        uint _breederId\n    ) public {\n        require(_fatherId == 0 || kennelClub[_fatherId].exists, 'Dog account of the father does not exists.');\n        require(_motherId == 0 || kennelClub[_motherId].exists, 'Dog account of the mother does not exists.');\n        require(breeders[_breederId].exists, 'Breeder/Owner account does not exists.');\n        \n        kennelClub[_dogId].dogName = _dogName;\n        kennelClub[_dogId].breed = _breed;\n        kennelClub[_dogId].colour = _colour;\n        kennelClub[_dogId].sex = _sex;\n        kennelClub[_dogId].dateOfBirth = _dob;\n        if (_fatherId == 0) {\n            kennelClub[_dogId].fatherId = 0;\n            kennelClub[_dogId].fatherName = \"Parent with unknown pedigree\";\n        } else {\n            kennelClub[_dogId].fatherId = _fatherId;\n            kennelClub[_dogId].fatherName = kennelClub[_fatherId].dogName;\n        }\n        if (_motherId == 0) {\n            kennelClub[_dogId].motherId = 0;\n            kennelClub[_dogId].motherName = \"Parent with unknown pedigree\";\n        } else {\n            kennelClub[_dogId].motherId = _motherId;\n            kennelClub[_dogId].motherName = kennelClub[_motherId].dogName;\n        }\n        kennelClub[_dogId].breederId = _breederId;\n        kennelClub[_dogId].ownerIds.push(_breederId);\n        breeders[_breederId].dogIds.push(_dogId);\n        kennelClub[_dogId].currentOwner = 0;\n        kennelClub[_dogId].exists = true;\n        dogs.push(_dogId);\n        allSoldDogs[_breederId][_dogId] = false;\n    }\n    \n    // Function to get the details of a dog\n    function getDogData(uint _dogId) public view returns (dog memory) {\n        require(kennelClub[_dogId].exists, 'Dog account does not exists.');\n        \n        return kennelClub[_dogId];\n    }\n    \n    // Function to sell/transfer ownership of a dog\n    function transferDogOwnership(uint _dogId, uint _currentOwnerId, uint _newOwnerId) public {\n        require(kennelClub[_dogId].exists, 'Dog account does not exists.');\n        require(breeders[_currentOwnerId].exists, 'Breeder/Owner account of current owner does not exists.');\n        require(!allSoldDogs[_currentOwnerId][_dogId], 'Breeder does not have any permission to sell this dog');\n        require(breeders[_newOwnerId].exists, 'Breeder/Owner account of new owner does not exists.');\n        \n        breeders[_currentOwnerId].soldDogIds.push(_dogId);\n        breeders[_newOwnerId].dogIds.push(_dogId);\n        kennelClub[_dogId].ownerIds.push(_newOwnerId);\n        kennelClub[_dogId].currentOwner++;\n        allSoldDogs[_currentOwnerId][_dogId] = true;\n        allSoldDogs[_newOwnerId][_dogId] = false;\n    }\n    \n    // Function to get the id of a dog's breeder\n    function getDogBreeder(uint _dogId) public view returns(uint) {\n        require(kennelClub[_dogId].exists, 'Dog account does not exists.');\n        \n        return kennelClub[_dogId].breederId;\n    }\n    \n    // Function to retreive the ids of all the previous and current owners of a dog\n    function getDogOwnersList(uint _dogId) public view returns (uint[] memory) {\n        require(kennelClub[_dogId].exists, 'Dog account does not exists.');\n        \n        return kennelClub[_dogId].ownerIds;\n    }\n    \n    // Function to retreive the id of the current owner of a dog\n    function getDogCurrentOwner(uint _dogId) public view returns(uint) {\n        require(kennelClub[_dogId].exists, 'Dog account does not exists.');\n        \n        return kennelClub[_dogId].ownerIds[kennelClub[_dogId].currentOwner];\n    }\n    \n    // Function to get the ids of all the vaccines which have done to a dog\n    function getDogVaccines(uint _dogId) public view returns(uint[] memory) {\n        require(kennelClub[_dogId].exists, 'Dog account does not exists.');\n        \n        return kennelClub[_dogId].vaccineIds;\n    }\n    \n    // Function to get the ids of all the treatments which have done to a dog\n    function getDogTreatments(uint _dogId) public view returns(uint[] memory) {\n        require(kennelClub[_dogId].exists, 'Dog account does not exists.');\n        \n        return kennelClub[_dogId].treatmentIds;\n    }\n    \n    \n    // VACCINATION FUNCTIONS\n    \n    // Function to store the data of a vaccination.\n    function vaccinateDog(\n        uint _vaccId,\n        uint _dogId,\n        bytes19 _vaccDate,\n        uint _dogAgeYears,\n        uint _dogAgeMonths,\n        uint _docId,\n        bytes32 _vaccName\n    ) public {\n        require(kennelClub[_dogId].exists, 'Dog account does not exists.');\n        require(doctors[_docId].exists, \"Doctor account does not exists.\");\n        \n        vaccinationRecord[_vaccId].dogId = _dogId;\n        vaccinationRecord[_vaccId].ownerId = getDogCurrentOwner(_dogId);\n        vaccinationRecord[_vaccId].vaccinatedDate = _vaccDate;\n        vaccinationRecord[_vaccId].dogAgeYears = _dogAgeYears;\n        vaccinationRecord[_vaccId].dogAgeMonths = _dogAgeMonths;\n        vaccinationRecord[_vaccId].doctorId = _docId;\n        vaccinationRecord[_vaccId].hospitalName = getCurrentWorkingHospital(_docId);\n        vaccinationRecord[_vaccId].vaccineName = _vaccName;\n        vaccinationRecord[_vaccId].exists = true;\n        kennelClub[_dogId].vaccineIds.push(_vaccId);\n        doctors[_docId].vaccinationRecordIds.push(_vaccId);\n    }\n    \n    // Function to get the details of a vaccination with a particular id\n    function getVaccineData(uint _vaccId) public view returns (vaccine memory){\n        require(vaccinationRecord[_vaccId].exists, 'Vaccination record does not exists.');\n        \n        return vaccinationRecord[_vaccId];\n    }\n    \n    \n    // TREATMENT FUNCTIONS\n    \n    // Function to store the data of a treatment\n    function treatDog(\n        uint _treatmentId,\n        uint _dogId,\n        bytes19 _admissionDate,\n        uint _dogAgeYears,\n        uint _dogAgeMonths,\n        uint _docId,\n        bytes32[] memory _symptoms,\n        bytes32 _verdict,\n        bytes32[] memory _medicines\n    ) public {\n        require(kennelClub[_dogId].exists, 'Dog account does not exists.');\n        require(doctors[_docId].exists, \"Doctor account does not exists.\");\n        \n        treatmentRecord[_treatmentId].dogId = _dogId;\n        treatmentRecord[_treatmentId].ownerId = getDogCurrentOwner(_dogId);\n        treatmentRecord[_treatmentId].admissionDate = _admissionDate;\n        treatmentRecord[_treatmentId].dogAgeYears = _dogAgeYears;\n        treatmentRecord[_treatmentId].dogAgeMonths = _dogAgeMonths;\n        treatmentRecord[_treatmentId].doctorId = _docId;\n        treatmentRecord[_treatmentId].hospitalName = getCurrentWorkingHospital(_docId);\n        treatmentRecord[_treatmentId].symptoms = _symptoms;\n        treatmentRecord[_treatmentId].verdict = _verdict;\n        treatmentRecord[_treatmentId].medicinesPrescribed = _medicines;\n        treatmentRecord[_treatmentId].exists = true;\n        kennelClub[_dogId].treatmentIds.push(_treatmentId);\n        doctors[_docId].treatmentRecordIds.push(_treatmentId);\n    }\n    \n    // Function to get the details of a treatment with a particular id\n    function getDogTreatmentData(uint _treatmentId) public view returns (treatment memory) {\n        require(treatmentRecord[_treatmentId].exists, 'Treatement record does not exists.');\n        \n        return treatmentRecord[_treatmentId];\n    }\n}",
  "sourcePath": "/home/mikhil/ced-b5-020-project/DogChain/Backend/contracts/DogChain.sol",
  "compiler": {
    "name": "solc",
    "version": "0.7.0+commit.9e61f92b.Emscripten.clang"
  },
  "schemaVersion": "3.3.0",
  "updatedAt": "2021-01-01T13:02:49.352Z",
  "networkType": "ethereum",
  "devdoc": {
    "kind": "dev",
    "methods": {},
    "version": 1
  },
  "userdoc": {
    "kind": "user",
    "methods": {},
    "version": 1
  }
}