{
  "contractName": "DogChain",
  "abi": [
    {
      "inputs": [
        {
          "internalType": "uint256",
          "name": "_authId",
          "type": "uint256"
        },
        {
          "internalType": "bytes32",
          "name": "_authName",
          "type": "bytes32"
        }
      ],
      "name": "registerAuthority",
      "outputs": [],
      "stateMutability": "nonpayable",
      "type": "function"
    },
    {
      "inputs": [
        {
          "internalType": "uint256",
          "name": "_authId",
          "type": "uint256"
        }
      ],
      "name": "getAuthorityData",
      "outputs": [
        {
          "components": [
            {
              "internalType": "bytes32",
              "name": "authorityName",
              "type": "bytes32"
            },
            {
              "internalType": "bool",
              "name": "exists",
              "type": "bool"
            }
          ],
          "internalType": "struct DogChain.authority",
          "name": "",
          "type": "tuple"
        }
      ],
      "stateMutability": "view",
      "type": "function",
      "constant": true
    },
    {
      "inputs": [],
      "name": "getAllBreeders",
      "outputs": [
        {
          "components": [
            {
              "internalType": "bytes32",
              "name": "breederName",
              "type": "bytes32"
            },
            {
              "internalType": "uint256[]",
              "name": "dogIds",
              "type": "uint256[]"
            },
            {
              "internalType": "uint256[]",
              "name": "soldDogIds",
              "type": "uint256[]"
            },
            {
              "internalType": "bool",
              "name": "exists",
              "type": "bool"
            }
          ],
          "internalType": "struct DogChain.breeder[]",
          "name": "",
          "type": "tuple[]"
        }
      ],
      "stateMutability": "view",
      "type": "function",
      "constant": true
    },
    {
      "inputs": [],
      "name": "getAllDoctors",
      "outputs": [
        {
          "components": [
            {
              "internalType": "bytes32",
              "name": "doctorName",
              "type": "bytes32"
            },
            {
              "internalType": "bytes32[]",
              "name": "hospitalNames",
              "type": "bytes32[]"
            },
            {
              "internalType": "uint256",
              "name": "currentHospital",
              "type": "uint256"
            },
            {
              "internalType": "bool",
              "name": "exists",
              "type": "bool"
            },
            {
              "internalType": "uint256[]",
              "name": "vaccinatedDogs",
              "type": "uint256[]"
            },
            {
              "internalType": "uint256[]",
              "name": "treatedDogs",
              "type": "uint256[]"
            }
          ],
          "internalType": "struct DogChain.doctor[]",
          "name": "",
          "type": "tuple[]"
        }
      ],
      "stateMutability": "view",
      "type": "function",
      "constant": true
    },
    {
      "inputs": [],
      "name": "getAllDogs",
      "outputs": [
        {
          "components": [
            {
              "internalType": "bytes32",
              "name": "dogName",
              "type": "bytes32"
            },
            {
              "internalType": "bytes32",
              "name": "breed",
              "type": "bytes32"
            },
            {
              "internalType": "bytes32",
              "name": "colour",
              "type": "bytes32"
            },
            {
              "internalType": "enum DogChain.dogSex",
              "name": "sex",
              "type": "uint8"
            },
            {
              "internalType": "bytes19",
              "name": "dateOfBirth",
              "type": "bytes19"
            },
            {
              "internalType": "uint256",
              "name": "fatherId",
              "type": "uint256"
            },
            {
              "internalType": "bytes32",
              "name": "fatherName",
              "type": "bytes32"
            },
            {
              "internalType": "uint256",
              "name": "motherId",
              "type": "uint256"
            },
            {
              "internalType": "bytes32",
              "name": "motherName",
              "type": "bytes32"
            },
            {
              "internalType": "uint256",
              "name": "breederId",
              "type": "uint256"
            },
            {
              "internalType": "uint256[]",
              "name": "ownerIds",
              "type": "uint256[]"
            },
            {
              "internalType": "uint256",
              "name": "currentOwner",
              "type": "uint256"
            },
            {
              "internalType": "uint256[]",
              "name": "vaccineIds",
              "type": "uint256[]"
            },
            {
              "internalType": "uint256[]",
              "name": "treatmentIds",
              "type": "uint256[]"
            },
            {
              "internalType": "bool",
              "name": "exists",
              "type": "bool"
            }
          ],
          "internalType": "struct DogChain.dog[]",
          "name": "",
          "type": "tuple[]"
        }
      ],
      "stateMutability": "view",
      "type": "function",
      "constant": true
    },
    {
      "inputs": [
        {
          "internalType": "uint256",
          "name": "_breederId",
          "type": "uint256"
        },
        {
          "internalType": "bytes32",
          "name": "_breederName",
          "type": "bytes32"
        }
      ],
      "name": "registerBreeder",
      "outputs": [],
      "stateMutability": "nonpayable",
      "type": "function"
    },
    {
      "inputs": [
        {
          "internalType": "uint256",
          "name": "_breederId",
          "type": "uint256"
        }
      ],
      "name": "getBreederData",
      "outputs": [
        {
          "components": [
            {
              "internalType": "bytes32",
              "name": "breederName",
              "type": "bytes32"
            },
            {
              "internalType": "uint256[]",
              "name": "dogIds",
              "type": "uint256[]"
            },
            {
              "internalType": "uint256[]",
              "name": "soldDogIds",
              "type": "uint256[]"
            },
            {
              "internalType": "bool",
              "name": "exists",
              "type": "bool"
            }
          ],
          "internalType": "struct DogChain.breeder",
          "name": "",
          "type": "tuple"
        }
      ],
      "stateMutability": "view",
      "type": "function",
      "constant": true
    },
    {
      "inputs": [
        {
          "internalType": "uint256",
          "name": "_breederId",
          "type": "uint256"
        }
      ],
      "name": "getTotalDogIds",
      "outputs": [
        {
          "internalType": "uint256[]",
          "name": "",
          "type": "uint256[]"
        }
      ],
      "stateMutability": "view",
      "type": "function",
      "constant": true
    },
    {
      "inputs": [
        {
          "internalType": "uint256",
          "name": "_breederId",
          "type": "uint256"
        }
      ],
      "name": "getSoldDogIds",
      "outputs": [
        {
          "internalType": "uint256[]",
          "name": "",
          "type": "uint256[]"
        }
      ],
      "stateMutability": "view",
      "type": "function",
      "constant": true
    },
    {
      "inputs": [
        {
          "internalType": "uint256[]",
          "name": "_dogIds",
          "type": "uint256[]"
        }
      ],
      "name": "getDogGroupDetails",
      "outputs": [
        {
          "components": [
            {
              "internalType": "bytes32",
              "name": "dogName",
              "type": "bytes32"
            },
            {
              "internalType": "bytes32",
              "name": "breed",
              "type": "bytes32"
            },
            {
              "internalType": "bytes32",
              "name": "colour",
              "type": "bytes32"
            },
            {
              "internalType": "enum DogChain.dogSex",
              "name": "sex",
              "type": "uint8"
            },
            {
              "internalType": "bytes19",
              "name": "dateOfBirth",
              "type": "bytes19"
            },
            {
              "internalType": "uint256",
              "name": "fatherId",
              "type": "uint256"
            },
            {
              "internalType": "bytes32",
              "name": "fatherName",
              "type": "bytes32"
            },
            {
              "internalType": "uint256",
              "name": "motherId",
              "type": "uint256"
            },
            {
              "internalType": "bytes32",
              "name": "motherName",
              "type": "bytes32"
            },
            {
              "internalType": "uint256",
              "name": "breederId",
              "type": "uint256"
            },
            {
              "internalType": "uint256[]",
              "name": "ownerIds",
              "type": "uint256[]"
            },
            {
              "internalType": "uint256",
              "name": "currentOwner",
              "type": "uint256"
            },
            {
              "internalType": "uint256[]",
              "name": "vaccineIds",
              "type": "uint256[]"
            },
            {
              "internalType": "uint256[]",
              "name": "treatmentIds",
              "type": "uint256[]"
            },
            {
              "internalType": "bool",
              "name": "exists",
              "type": "bool"
            }
          ],
          "internalType": "struct DogChain.dog[]",
          "name": "",
          "type": "tuple[]"
        }
      ],
      "stateMutability": "view",
      "type": "function",
      "constant": true
    },
    {
      "inputs": [
        {
          "internalType": "uint256",
          "name": "_docId",
          "type": "uint256"
        },
        {
          "internalType": "bytes32",
          "name": "_docName",
          "type": "bytes32"
        },
        {
          "internalType": "bytes32",
          "name": "_hospitalName",
          "type": "bytes32"
        }
      ],
      "name": "registerDoctor",
      "outputs": [],
      "stateMutability": "nonpayable",
      "type": "function"
    },
    {
      "inputs": [
        {
          "internalType": "uint256",
          "name": "_docId",
          "type": "uint256"
        }
      ],
      "name": "getDoctorData",
      "outputs": [
        {
          "components": [
            {
              "internalType": "bytes32",
              "name": "doctorName",
              "type": "bytes32"
            },
            {
              "internalType": "bytes32[]",
              "name": "hospitalNames",
              "type": "bytes32[]"
            },
            {
              "internalType": "uint256",
              "name": "currentHospital",
              "type": "uint256"
            },
            {
              "internalType": "bool",
              "name": "exists",
              "type": "bool"
            },
            {
              "internalType": "uint256[]",
              "name": "vaccinatedDogs",
              "type": "uint256[]"
            },
            {
              "internalType": "uint256[]",
              "name": "treatedDogs",
              "type": "uint256[]"
            }
          ],
          "internalType": "struct DogChain.doctor",
          "name": "",
          "type": "tuple"
        }
      ],
      "stateMutability": "view",
      "type": "function",
      "constant": true
    },
    {
      "inputs": [
        {
          "internalType": "uint256",
          "name": "_docId",
          "type": "uint256"
        },
        {
          "internalType": "bytes32",
          "name": "_newHospitalName",
          "type": "bytes32"
        }
      ],
      "name": "changeHospital",
      "outputs": [],
      "stateMutability": "nonpayable",
      "type": "function"
    },
    {
      "inputs": [
        {
          "internalType": "uint256",
          "name": "_docId",
          "type": "uint256"
        }
      ],
      "name": "getWorkedHospitals",
      "outputs": [
        {
          "internalType": "bytes32[]",
          "name": "",
          "type": "bytes32[]"
        }
      ],
      "stateMutability": "view",
      "type": "function",
      "constant": true
    },
    {
      "inputs": [
        {
          "internalType": "uint256",
          "name": "_docId",
          "type": "uint256"
        }
      ],
      "name": "getCurrentWorkingHospital",
      "outputs": [
        {
          "internalType": "bytes32",
          "name": "",
          "type": "bytes32"
        }
      ],
      "stateMutability": "view",
      "type": "function",
      "constant": true
    },
    {
      "inputs": [
        {
          "internalType": "uint256",
          "name": "_dogId",
          "type": "uint256"
        },
        {
          "internalType": "bytes32",
          "name": "_dogName",
          "type": "bytes32"
        },
        {
          "internalType": "bytes32",
          "name": "_breed",
          "type": "bytes32"
        },
        {
          "internalType": "bytes32",
          "name": "_colour",
          "type": "bytes32"
        },
        {
          "internalType": "enum DogChain.dogSex",
          "name": "_sex",
          "type": "uint8"
        },
        {
          "internalType": "bytes19",
          "name": "_dob",
          "type": "bytes19"
        },
        {
          "internalType": "uint256",
          "name": "_fatherId",
          "type": "uint256"
        },
        {
          "internalType": "uint256",
          "name": "_motherId",
          "type": "uint256"
        },
        {
          "internalType": "uint256",
          "name": "_breederId",
          "type": "uint256"
        }
      ],
      "name": "dogBirthRegistration",
      "outputs": [],
      "stateMutability": "nonpayable",
      "type": "function"
    },
    {
      "inputs": [
        {
          "internalType": "uint256",
          "name": "_dogId",
          "type": "uint256"
        }
      ],
      "name": "getDogData",
      "outputs": [
        {
          "components": [
            {
              "internalType": "bytes32",
              "name": "dogName",
              "type": "bytes32"
            },
            {
              "internalType": "bytes32",
              "name": "breed",
              "type": "bytes32"
            },
            {
              "internalType": "bytes32",
              "name": "colour",
              "type": "bytes32"
            },
            {
              "internalType": "enum DogChain.dogSex",
              "name": "sex",
              "type": "uint8"
            },
            {
              "internalType": "bytes19",
              "name": "dateOfBirth",
              "type": "bytes19"
            },
            {
              "internalType": "uint256",
              "name": "fatherId",
              "type": "uint256"
            },
            {
              "internalType": "bytes32",
              "name": "fatherName",
              "type": "bytes32"
            },
            {
              "internalType": "uint256",
              "name": "motherId",
              "type": "uint256"
            },
            {
              "internalType": "bytes32",
              "name": "motherName",
              "type": "bytes32"
            },
            {
              "internalType": "uint256",
              "name": "breederId",
              "type": "uint256"
            },
            {
              "internalType": "uint256[]",
              "name": "ownerIds",
              "type": "uint256[]"
            },
            {
              "internalType": "uint256",
              "name": "currentOwner",
              "type": "uint256"
            },
            {
              "internalType": "uint256[]",
              "name": "vaccineIds",
              "type": "uint256[]"
            },
            {
              "internalType": "uint256[]",
              "name": "treatmentIds",
              "type": "uint256[]"
            },
            {
              "internalType": "bool",
              "name": "exists",
              "type": "bool"
            }
          ],
          "internalType": "struct DogChain.dog",
          "name": "",
          "type": "tuple"
        }
      ],
      "stateMutability": "view",
      "type": "function",
      "constant": true
    },
    {
      "inputs": [
        {
          "internalType": "uint256",
          "name": "_dogId",
          "type": "uint256"
        },
        {
          "internalType": "uint256",
          "name": "_oldOwnerId",
          "type": "uint256"
        },
        {
          "internalType": "uint256",
          "name": "_newOwnerId",
          "type": "uint256"
        }
      ],
      "name": "sellDog",
      "outputs": [],
      "stateMutability": "nonpayable",
      "type": "function"
    },
    {
      "inputs": [
        {
          "internalType": "uint256",
          "name": "_dogId",
          "type": "uint256"
        }
      ],
      "name": "getDogBreeder",
      "outputs": [
        {
          "components": [
            {
              "internalType": "bytes32",
              "name": "breederName",
              "type": "bytes32"
            },
            {
              "internalType": "uint256[]",
              "name": "dogIds",
              "type": "uint256[]"
            },
            {
              "internalType": "uint256[]",
              "name": "soldDogIds",
              "type": "uint256[]"
            },
            {
              "internalType": "bool",
              "name": "exists",
              "type": "bool"
            }
          ],
          "internalType": "struct DogChain.breeder",
          "name": "",
          "type": "tuple"
        }
      ],
      "stateMutability": "view",
      "type": "function",
      "constant": true
    },
    {
      "inputs": [
        {
          "internalType": "uint256",
          "name": "_dogId",
          "type": "uint256"
        }
      ],
      "name": "getDogOwnersList",
      "outputs": [
        {
          "components": [
            {
              "internalType": "bytes32",
              "name": "breederName",
              "type": "bytes32"
            },
            {
              "internalType": "uint256[]",
              "name": "dogIds",
              "type": "uint256[]"
            },
            {
              "internalType": "uint256[]",
              "name": "soldDogIds",
              "type": "uint256[]"
            },
            {
              "internalType": "bool",
              "name": "exists",
              "type": "bool"
            }
          ],
          "internalType": "struct DogChain.breeder[]",
          "name": "",
          "type": "tuple[]"
        }
      ],
      "stateMutability": "view",
      "type": "function",
      "constant": true
    },
    {
      "inputs": [
        {
          "internalType": "uint256",
          "name": "_dogId",
          "type": "uint256"
        }
      ],
      "name": "getDogCurrentOwner",
      "outputs": [
        {
          "components": [
            {
              "internalType": "bytes32",
              "name": "breederName",
              "type": "bytes32"
            },
            {
              "internalType": "uint256[]",
              "name": "dogIds",
              "type": "uint256[]"
            },
            {
              "internalType": "uint256[]",
              "name": "soldDogIds",
              "type": "uint256[]"
            },
            {
              "internalType": "bool",
              "name": "exists",
              "type": "bool"
            }
          ],
          "internalType": "struct DogChain.breeder",
          "name": "",
          "type": "tuple"
        }
      ],
      "stateMutability": "view",
      "type": "function",
      "constant": true
    },
    {
      "inputs": [
        {
          "internalType": "uint256",
          "name": "_dogId",
          "type": "uint256"
        }
      ],
      "name": "getDogVaccines",
      "outputs": [
        {
          "components": [
            {
              "internalType": "uint256",
              "name": "dogId",
              "type": "uint256"
            },
            {
              "internalType": "uint256",
              "name": "ownerId",
              "type": "uint256"
            },
            {
              "internalType": "bytes19",
              "name": "vaccinatedDate",
              "type": "bytes19"
            },
            {
              "internalType": "uint256",
              "name": "dogAgeYears",
              "type": "uint256"
            },
            {
              "internalType": "uint256",
              "name": "dogAgeMonths",
              "type": "uint256"
            },
            {
              "internalType": "uint256",
              "name": "doctorId",
              "type": "uint256"
            },
            {
              "internalType": "bytes32",
              "name": "hospitalName",
              "type": "bytes32"
            },
            {
              "internalType": "bytes32",
              "name": "vaccineName",
              "type": "bytes32"
            },
            {
              "internalType": "bool",
              "name": "exists",
              "type": "bool"
            }
          ],
          "internalType": "struct DogChain.vaccine[]",
          "name": "",
          "type": "tuple[]"
        }
      ],
      "stateMutability": "view",
      "type": "function",
      "constant": true
    },
    {
      "inputs": [
        {
          "internalType": "uint256",
          "name": "_dogId",
          "type": "uint256"
        }
      ],
      "name": "getDogTreatments",
      "outputs": [
        {
          "components": [
            {
              "internalType": "uint256",
              "name": "dogId",
              "type": "uint256"
            },
            {
              "internalType": "uint256",
              "name": "ownerId",
              "type": "uint256"
            },
            {
              "internalType": "bytes19",
              "name": "admissionDate",
              "type": "bytes19"
            },
            {
              "internalType": "uint256",
              "name": "dogAgeYears",
              "type": "uint256"
            },
            {
              "internalType": "uint256",
              "name": "dogAgeMonths",
              "type": "uint256"
            },
            {
              "internalType": "uint256",
              "name": "doctorId",
              "type": "uint256"
            },
            {
              "internalType": "bytes32",
              "name": "hospitalName",
              "type": "bytes32"
            },
            {
              "internalType": "bytes32[]",
              "name": "symptoms",
              "type": "bytes32[]"
            },
            {
              "internalType": "bytes32",
              "name": "verdict",
              "type": "bytes32"
            },
            {
              "internalType": "bytes32[]",
              "name": "medicinesPrescribed",
              "type": "bytes32[]"
            },
            {
              "internalType": "bool",
              "name": "exists",
              "type": "bool"
            }
          ],
          "internalType": "struct DogChain.treatment[]",
          "name": "",
          "type": "tuple[]"
        }
      ],
      "stateMutability": "view",
      "type": "function",
      "constant": true
    },
    {
      "inputs": [
        {
          "internalType": "uint256",
          "name": "_vaccId",
          "type": "uint256"
        },
        {
          "internalType": "uint256",
          "name": "_dogId",
          "type": "uint256"
        },
        {
          "internalType": "uint256",
          "name": "_ownerId",
          "type": "uint256"
        },
        {
          "internalType": "bytes19",
          "name": "_vaccDate",
          "type": "bytes19"
        },
        {
          "internalType": "uint256",
          "name": "_dogAgeYears",
          "type": "uint256"
        },
        {
          "internalType": "uint256",
          "name": "_dogAgeMonths",
          "type": "uint256"
        },
        {
          "internalType": "uint256",
          "name": "_docId",
          "type": "uint256"
        },
        {
          "internalType": "bytes32",
          "name": "_hospitalName",
          "type": "bytes32"
        },
        {
          "internalType": "bytes32",
          "name": "_vaccName",
          "type": "bytes32"
        }
      ],
      "name": "vaccinateDog",
      "outputs": [],
      "stateMutability": "nonpayable",
      "type": "function"
    },
    {
      "inputs": [
        {
          "internalType": "uint256",
          "name": "_vaccId",
          "type": "uint256"
        }
      ],
      "name": "getVaccineData",
      "outputs": [
        {
          "components": [
            {
              "internalType": "uint256",
              "name": "dogId",
              "type": "uint256"
            },
            {
              "internalType": "uint256",
              "name": "ownerId",
              "type": "uint256"
            },
            {
              "internalType": "bytes19",
              "name": "vaccinatedDate",
              "type": "bytes19"
            },
            {
              "internalType": "uint256",
              "name": "dogAgeYears",
              "type": "uint256"
            },
            {
              "internalType": "uint256",
              "name": "dogAgeMonths",
              "type": "uint256"
            },
            {
              "internalType": "uint256",
              "name": "doctorId",
              "type": "uint256"
            },
            {
              "internalType": "bytes32",
              "name": "hospitalName",
              "type": "bytes32"
            },
            {
              "internalType": "bytes32",
              "name": "vaccineName",
              "type": "bytes32"
            },
            {
              "internalType": "bool",
              "name": "exists",
              "type": "bool"
            }
          ],
          "internalType": "struct DogChain.vaccine",
          "name": "",
          "type": "tuple"
        }
      ],
      "stateMutability": "view",
      "type": "function",
      "constant": true
    },
    {
      "inputs": [
        {
          "internalType": "uint256",
          "name": "_treatmentId",
          "type": "uint256"
        },
        {
          "internalType": "uint256",
          "name": "_dogId",
          "type": "uint256"
        },
        {
          "internalType": "uint256",
          "name": "_ownerId",
          "type": "uint256"
        },
        {
          "internalType": "bytes19",
          "name": "_admissionDate",
          "type": "bytes19"
        },
        {
          "internalType": "uint256",
          "name": "_dogAgeYears",
          "type": "uint256"
        },
        {
          "internalType": "uint256",
          "name": "_dogAgeMonths",
          "type": "uint256"
        },
        {
          "internalType": "uint256",
          "name": "_docId",
          "type": "uint256"
        },
        {
          "internalType": "bytes32",
          "name": "_hospitalName",
          "type": "bytes32"
        },
        {
          "internalType": "bytes32[]",
          "name": "_symptoms",
          "type": "bytes32[]"
        },
        {
          "internalType": "bytes32",
          "name": "_verdict",
          "type": "bytes32"
        },
        {
          "internalType": "bytes32[]",
          "name": "_medicines",
          "type": "bytes32[]"
        }
      ],
      "name": "treatDog",
      "outputs": [],
      "stateMutability": "nonpayable",
      "type": "function"
    },
    {
      "inputs": [
        {
          "internalType": "uint256",
          "name": "_treatmentId",
          "type": "uint256"
        }
      ],
      "name": "getDogTreatmentData",
      "outputs": [
        {
          "components": [
            {
              "internalType": "uint256",
              "name": "dogId",
              "type": "uint256"
            },
            {
              "internalType": "uint256",
              "name": "ownerId",
              "type": "uint256"
            },
            {
              "internalType": "bytes19",
              "name": "admissionDate",
              "type": "bytes19"
            },
            {
              "internalType": "uint256",
              "name": "dogAgeYears",
              "type": "uint256"
            },
            {
              "internalType": "uint256",
              "name": "dogAgeMonths",
              "type": "uint256"
            },
            {
              "internalType": "uint256",
              "name": "doctorId",
              "type": "uint256"
            },
            {
              "internalType": "bytes32",
              "name": "hospitalName",
              "type": "bytes32"
            },
            {
              "internalType": "bytes32[]",
              "name": "symptoms",
              "type": "bytes32[]"
            },
            {
              "internalType": "bytes32",
              "name": "verdict",
              "type": "bytes32"
            },
            {
              "internalType": "bytes32[]",
              "name": "medicinesPrescribed",
              "type": "bytes32[]"
            },
            {
              "internalType": "bool",
              "name": "exists",
              "type": "bool"
            }
          ],
          "internalType": "struct DogChain.treatment",
          "name": "",
          "type": "tuple"
        }
      ],
      "stateMutability": "view",
      "type": "function",
      "constant": true
    }
  ],
  "bytecode": "0x608060405234801561001057600080fd5b50614e5c806100206000396000f3fe608060405234801561001057600080fd5b50600436106101a95760003560e01c8063736be401116100f95780639a7c05cb11610097578063ca4c116011610071578063ca4c116014610562578063daae298314610592578063f0d95090146105ae578063ff0a3cd9146105cc576101a9565b80639a7c05cb146104d2578063b886904514610502578063c669618914610532576101a9565b8063769354f7116100d3578063769354f7146104125780637a9d848d14610442578063806f253a1461047257806387007ee9146104a2576101a9565b8063736be4011461039657806373e74244146103c65780637459a35d146103f6576101a9565b806329a4041c116101665780634fb641f8116101405780634fb641f8146102fe578063500392ed1461031a57806359a2a83b1461034a5780636ce5c0e71461037a576101a9565b806329a4041c146102a8578063386c460e146102c65780633fc51628146102e2576101a9565b80630b03d4b5146101ae5780631228af65146101de578063180cad131461020e578063181fe0df1461023e5780631b98db201461025c5780631e85991214610278575b600080fd5b6101c860048036038101906101c3919061348f565b6105e8565b6040516101d59190614ab4565b60405180910390f35b6101f860048036038101906101f3919061348f565b610858565b604051610205919061491a565b60405180910390f35b6102286004803603810190610223919061348f565b610906565b6040516102359190614a92565b60405180910390f35b610246610acd565b604051610253919061484e565b60405180910390f35b61027660048036038101906102719190613609565b610c16565b005b610292600480360381019061028d919061348f565b610de1565b60405161029f91906148f8565b60405180910390f35b6102b0610eb2565b6040516102bd9190614892565b60405180910390f35b6102e060048036038101906102db91906134b8565b611107565b005b6102fc60048036038101906102f791906134f4565b6111d1565b005b61031860048036038101906103139190613778565b6112a2565b005b610334600480360381019061032f919061348f565b6115c5565b6040516103419190614af8565b60405180910390f35b610364600480360381019061035f919061348f565b6116ee565b6040516103719190614ad6565b60405180910390f35b610394600480360381019061038f91906134b8565b6118c7565b005b6103b060048036038101906103ab919061348f565b611915565b6040516103bd919061484e565b60405180910390f35b6103e060048036038101906103db919061348f565b611ae9565b6040516103ed9190614a70565b60405180910390f35b610410600480360381019061040b91906134b8565b611c4e565b005b61042c6004803603810190610427919061344e565b611cc4565b6040516104399190614892565b60405180910390f35b61045c6004803603810190610457919061348f565b611f13565b6040516104699190614a70565b60405180910390f35b61048c6004803603810190610487919061348f565b61208c565b604051610499919061482c565b60405180910390f35b6104bc60048036038101906104b7919061348f565b61215d565b6040516104c99190614a55565b60405180910390f35b6104ec60048036038101906104e7919061348f565b612212565b6040516104f991906148b4565b60405180910390f35b61051c6004803603810190610517919061348f565b61245a565b60405161052991906148f8565b60405180910390f35b61054c6004803603810190610547919061348f565b61252b565b6040516105599190614a70565b60405180910390f35b61057c6004803603810190610577919061348f565b6126ce565b60405161058991906148d6565b60405180910390f35b6105ac60048036038101906105a79190613658565b612866565b005b6105b6612bb2565b6040516105c39190614870565b60405180910390f35b6105e660048036038101906105e19190613543565b612d5d565b005b6105f061308b565b600080838152602001908152602001600020600d0160009054906101000a900460ff16610652576040517f08c379a0000000000000000000000000000000000000000000000000000000008152600401610649906149b5565b60405180910390fd5b600080838152602001908152602001600020604051806101e00160405290816000820154815260200160018201548152602001600282015481526020016003820160009054906101000a900460ff1660018111156106ac57fe5b60018111156106b757fe5b81526020016003820160019054906101000a900460681b6cffffffffffffffffffffffffff19166cffffffffffffffffffffffffff1916815260200160048201548152602001600582015481526020016006820154815260200160078201548152602001600882015481526020016009820180548060200260200160405190810160405280929190818152602001828054801561077357602002820191906000526020600020905b81548152602001906001019080831161075f575b50505050508152602001600a8201548152602001600b82018054806020026020016040519081016040528092919081815260200182805480156107d557602002820191906000526020600020905b8154815260200190600101908083116107c1575b50505050508152602001600c820180548060200260200160405190810160405280929190818152602001828054801561082d57602002820191906000526020600020905b815481526020019060010190808311610819575b50505050508152602001600d820160009054906101000a900460ff1615151515815250509050919050565b60006002600083815260200190815260200160002060030160009054906101000a900460ff166108bd576040517f08c379a00000000000000000000000000000000000000000000000000000000081526004016108b490614995565b60405180910390fd5b600260008381526020019081526020016000206001016002600084815260200190815260200160002060020154815481106108f457fe5b90600052602060002001549050919050565b61090e61312d565b6002600083815260200190815260200160002060030160009054906101000a900460ff16610971576040517f08c379a000000000000000000000000000000000000000000000000000000000815260040161096890614995565b60405180910390fd5b600260008381526020019081526020016000206040518060c001604052908160008201548152602001600182018054806020026020016040519081016040528092919081815260200182805480156109e857602002820191906000526020600020905b8154815260200190600101908083116109d4575b50505050508152602001600282015481526020016003820160009054906101000a900460ff1615151515815260200160048201805480602002602001604051908101604052809291908181526020018280548015610a6557602002820191906000526020600020905b815481526020019060010190808311610a51575b5050505050815260200160058201805480602002602001604051908101604052809291908181526020018280548015610abd57602002820191906000526020600020905b815481526020019060010190808311610aa9575b5050505050815250509050919050565b60608060005b600680549050811015610c0e576001600060068381548110610af157fe5b906000526020600020015481526020019081526020016000206040518060800160405290816000820154815260200160018201805480602002602001604051908101604052809291908181526020018280548015610b6e57602002820191906000526020600020905b815481526020019060010190808311610b5a575b5050505050815260200160028201805480602002602001604051908101604052809291908181526020018280548015610bc657602002820191906000526020600020905b815481526020019060010190808311610bb2575b505050505081526020016003820160009054906101000a900460ff161515151581525050828281518110610bf657fe5b60200260200101819052508080600101915050610ad3565b508091505090565b600080848152602001908152602001600020600d0160009054906101000a900460ff16610c78576040517f08c379a0000000000000000000000000000000000000000000000000000000008152600401610c6f906149b5565b60405180910390fd5b6001600083815260200190815260200160002060030160009054906101000a900460ff16610cdb576040517f08c379a0000000000000000000000000000000000000000000000000000000008152600401610cd290614975565b60405180910390fd5b6001600082815260200190815260200160002060030160009054906101000a900460ff16610d3e576040517f08c379a0000000000000000000000000000000000000000000000000000000008152600401610d3590614a15565b60405180910390fd5b60016000838152602001908152602001600020600201839080600181540180825580915050600190039060005260206000200160009091909190915055600080848152602001908152602001600020600901819080600181540180825580915050600190039060005260206000200160009091909190915055600080848152602001908152602001600020600a0160008154809291906001019190505550505050565b60606001600083815260200190815260200160002060030160009054906101000a900460ff16610e46576040517f08c379a0000000000000000000000000000000000000000000000000000000008152600401610e3d90614955565b60405180910390fd5b60016000838152602001908152602001600020600201805480602002602001604051908101604052809291908181526020018280548015610ea657602002820191906000526020600020905b815481526020019060010190808311610e92575b50505050509050919050565b60608060005b6008805490508110156110ff5760008060088381548110610ed557fe5b90600052602060002001548152602001908152602001600020604051806101e00160405290816000820154815260200160018201548152602001600282015481526020016003820160009054906101000a900460ff166001811115610f3657fe5b6001811115610f4157fe5b81526020016003820160019054906101000a900460681b6cffffffffffffffffffffffffff19166cffffffffffffffffffffffffff19168152602001600482015481526020016005820154815260200160068201548152602001600782015481526020016008820154815260200160098201805480602002602001604051908101604052809291908181526020018280548015610ffd57602002820191906000526020600020905b815481526020019060010190808311610fe9575b50505050508152602001600a8201548152602001600b820180548060200260200160405190810160405280929190818152602001828054801561105f57602002820191906000526020600020905b81548152602001906001019080831161104b575b50505050508152602001600c82018054806020026020016040519081016040528092919081815260200182805480156110b757602002820191906000526020600020905b8154815260200190600101908083116110a3575b50505050508152602001600d820160009054906101000a900460ff1615151515815250508282815181106110e757fe5b60200260200101819052508080600101915050610eb8565b508091505090565b6002600083815260200190815260200160002060030160009054906101000a900460ff1661116a576040517f08c379a000000000000000000000000000000000000000000000000000000000815260040161116190614995565b60405180910390fd5b6002600083815260200190815260200160002060010181908060018154018082558091505060019003906000526020600020016000909190919091505560026000838152602001908152602001600020600201600081548092919060010191905055505050565b816002600085815260200190815260200160002060000181905550600260008481526020019081526020016000206001018190806001815401808255809150506001900390600052602060002001600090919091909150556000600260008581526020019081526020016000206002018190555060016002600085815260200190815260200160002060030160006101000a81548160ff0219169083151502179055506007839080600181540180825580915050600190039060005260206000200160009091909190915055505050565b600080898152602001908152602001600020600d0160009054906101000a900460ff16611304576040517f08c379a00000000000000000000000000000000000000000000000000000000081526004016112fb906149b5565b60405180910390fd5b6001600088815260200190815260200160002060030160009054906101000a900460ff16611367576040517f08c379a000000000000000000000000000000000000000000000000000000000815260040161135e90614955565b60405180910390fd5b6002600084815260200190815260200160002060030160009054906101000a900460ff166113ca576040517f08c379a00000000000000000000000000000000000000000000000000000000081526004016113c190614995565b60405180910390fd5b816113d484610858565b14611414576040517f08c379a000000000000000000000000000000000000000000000000000000000815260040161140b906149d5565b60405180910390fd5b87600460008b81526020019081526020016000206000018190555086600460008b81526020019081526020016000206001018190555085600460008b815260200190815260200160002060020160006101000a81548172ffffffffffffffffffffffffffffffffffffff021916908360681c021790555084600460008b81526020019081526020016000206003018190555083600460008b81526020019081526020016000206004018190555082600460008b81526020019081526020016000206005018190555081600460008b81526020019081526020016000206006018190555080600460008b8152602001908152602001600020600701819055506001600460008b815260200190815260200160002060080160006101000a81548160ff021916908315150217905550600080898152602001908152602001600020600b0189908060018154018082558091505060019003906000526020600020016000909190919091505560026000848152602001908152602001600020600401889080600181540180825580915050600190039060005260206000200160009091909190915055505050505050505050565b6115cd613168565b6004600083815260200190815260200160002060080160009054906101000a900460ff16611630576040517f08c379a000000000000000000000000000000000000000000000000000000000815260040161162790614a35565b60405180910390fd5b600460008381526020019081526020016000206040518061012001604052908160008201548152602001600182015481526020016002820160009054906101000a900460681b6cffffffffffffffffffffffffff19166cffffffffffffffffffffffffff1916815260200160038201548152602001600482015481526020016005820154815260200160068201548152602001600782015481526020016008820160009054906101000a900460ff1615151515815250509050919050565b6116f66131cc565b60056000838152602001908152602001600020600a0160009054906101000a900460ff16611759576040517f08c379a000000000000000000000000000000000000000000000000000000000815260040161175090614935565b60405180910390fd5b600560008381526020019081526020016000206040518061016001604052908160008201548152602001600182015481526020016002820160009054906101000a900460681b6cffffffffffffffffffffffffff19166cffffffffffffffffffffffffff19168152602001600382015481526020016004820154815260200160058201548152602001600682015481526020016007820180548060200260200160405190810160405280929190818152602001828054801561183a57602002820191906000526020600020905b815481526020019060010190808311611826575b50505050508152602001600882015481526020016009820180548060200260200160405190810160405280929190818152602001828054801561189c57602002820191906000526020600020905b815481526020019060010190808311611888575b50505050508152602001600a820160009054906101000a900460ff1615151515815250509050919050565b80600360008481526020019081526020016000206000018190555060016003600084815260200190815260200160002060010160006101000a81548160ff0219169083151502179055505050565b6060600080838152602001908152602001600020600d0160009054906101000a900460ff16611979576040517f08c379a0000000000000000000000000000000000000000000000000000000008152600401611970906149b5565b60405180910390fd5b606060005b60008085815260200190815260200160002060090180549050811015611adf576001600080600087815260200190815260200160002060090183815481106119c257fe5b906000526020600020015481526020019081526020016000206040518060800160405290816000820154815260200160018201805480602002602001604051908101604052809291908181526020018280548015611a3f57602002820191906000526020600020905b815481526020019060010190808311611a2b575b5050505050815260200160028201805480602002602001604051908101604052809291908181526020018280548015611a9757602002820191906000526020600020905b815481526020019060010190808311611a83575b505050505081526020016003820160009054906101000a900460ff161515151581525050828281518110611ac757fe5b6020026020010181905250808060010191505061197e565b5080915050919050565b611af161323e565b6001600083815260200190815260200160002060030160009054906101000a900460ff16611b54576040517f08c379a0000000000000000000000000000000000000000000000000000000008152600401611b4b90614955565b60405180910390fd5b600160008381526020019081526020016000206040518060800160405290816000820154815260200160018201805480602002602001604051908101604052809291908181526020018280548015611bcb57602002820191906000526020600020905b815481526020019060010190808311611bb7575b5050505050815260200160028201805480602002602001604051908101604052809291908181526020018280548015611c2357602002820191906000526020600020905b815481526020019060010190808311611c0f575b505050505081526020016003820160009054906101000a900460ff1615151515815250509050919050565b806001600084815260200190815260200160002060000181905550600180600084815260200190815260200160002060030160006101000a81548160ff02191690831515021790555060068290806001815401808255809150506001900390600052602060002001600090919091909150555050565b60608060005b8351811015611f0957600080858381518110611ce257fe5b60200260200101518152602001908152602001600020604051806101e00160405290816000820154815260200160018201548152602001600282015481526020016003820160009054906101000a900460ff166001811115611d4057fe5b6001811115611d4b57fe5b81526020016003820160019054906101000a900460681b6cffffffffffffffffffffffffff19166cffffffffffffffffffffffffff19168152602001600482015481526020016005820154815260200160068201548152602001600782015481526020016008820154815260200160098201805480602002602001604051908101604052809291908181526020018280548015611e0757602002820191906000526020600020905b815481526020019060010190808311611df3575b50505050508152602001600a8201548152602001600b8201805480602002602001604051908101604052809291908181526020018280548015611e6957602002820191906000526020600020905b815481526020019060010190808311611e55575b50505050508152602001600c8201805480602002602001604051908101604052809291908181526020018280548015611ec157602002820191906000526020600020905b815481526020019060010190808311611ead575b50505050508152602001600d820160009054906101000a900460ff161515151581525050828281518110611ef157fe5b60200260200101819052508080600101915050611cca565b5080915050919050565b611f1b61323e565b600080838152602001908152602001600020600d0160009054906101000a900460ff16611f7d576040517f08c379a0000000000000000000000000000000000000000000000000000000008152600401611f74906149b5565b60405180910390fd5b60016000806000858152602001908152602001600020600801548152602001908152602001600020604051806080016040529081600082015481526020016001820180548060200260200160405190810160405280929190818152602001828054801561200957602002820191906000526020600020905b815481526020019060010190808311611ff5575b505050505081526020016002820180548060200260200160405190810160405280929190818152602001828054801561206157602002820191906000526020600020905b81548152602001906001019080831161204d575b505050505081526020016003820160009054906101000a900460ff1615151515815250509050919050565b60606002600083815260200190815260200160002060030160009054906101000a900460ff166120f1576040517f08c379a00000000000000000000000000000000000000000000000000000000081526004016120e890614995565b60405180910390fd5b6002600083815260200190815260200160002060010180548060200260200160405190810160405280929190818152602001828054801561215157602002820191906000526020600020905b81548152602001906001019080831161213d575b50505050509050919050565b61216561326b565b6003600083815260200190815260200160002060010160009054906101000a900460ff166121c8576040517f08c379a00000000000000000000000000000000000000000000000000000000081526004016121bf906149f5565b60405180910390fd5b60036000838152602001908152602001600020604051806040016040529081600082015481526020016001820160009054906101000a900460ff1615151515815250509050919050565b6060600080838152602001908152602001600020600d0160009054906101000a900460ff16612276576040517f08c379a000000000000000000000000000000000000000000000000000000000815260040161226d906149b5565b60405180910390fd5b606060005b600080858152602001908152602001600020600c01805490508110156124505760056000806000878152602001908152602001600020600c0183815481106122bf57fe5b906000526020600020015481526020019081526020016000206040518061016001604052908160008201548152602001600182015481526020016002820160009054906101000a900460681b6cffffffffffffffffffffffffff19166cffffffffffffffffffffffffff1916815260200160038201548152602001600482015481526020016005820154815260200160068201548152602001600782018054806020026020016040519081016040528092919081815260200182805480156123a657602002820191906000526020600020905b815481526020019060010190808311612392575b50505050508152602001600882015481526020016009820180548060200260200160405190810160405280929190818152602001828054801561240857602002820191906000526020600020905b8154815260200190600101908083116123f4575b50505050508152602001600a820160009054906101000a900460ff16151515158152505082828151811061243857fe5b6020026020010181905250808060010191505061227b565b5080915050919050565b60606001600083815260200190815260200160002060030160009054906101000a900460ff166124bf576040517f08c379a00000000000000000000000000000000000000000000000000000000081526004016124b690614955565b60405180910390fd5b6001600083815260200190815260200160002060010180548060200260200160405190810160405280929190818152602001828054801561251f57602002820191906000526020600020905b81548152602001906001019080831161250b575b50505050509050919050565b61253361323e565b600080838152602001908152602001600020600d0160009054906101000a900460ff16612595576040517f08c379a000000000000000000000000000000000000000000000000000000000815260040161258c906149b5565b60405180910390fd5b60016000806000858152602001908152602001600020600901600080868152602001908152602001600020600a0154815481106125ce57fe5b90600052602060002001548152602001908152602001600020604051806080016040529081600082015481526020016001820180548060200260200160405190810160405280929190818152602001828054801561264b57602002820191906000526020600020905b815481526020019060010190808311612637575b50505050508152602001600282018054806020026020016040519081016040528092919081815260200182805480156126a357602002820191906000526020600020905b81548152602001906001019080831161268f575b505050505081526020016003820160009054906101000a900460ff1615151515815250509050919050565b6060600080838152602001908152602001600020600d0160009054906101000a900460ff16612732576040517f08c379a0000000000000000000000000000000000000000000000000000000008152600401612729906149b5565b60405180910390fd5b606060005b600080858152602001908152602001600020600b018054905081101561285c5760046000806000878152602001908152602001600020600b01838154811061277b57fe5b906000526020600020015481526020019081526020016000206040518061012001604052908160008201548152602001600182015481526020016002820160009054906101000a900460681b6cffffffffffffffffffffffffff19166cffffffffffffffffffffffffff1916815260200160038201548152602001600482015481526020016005820154815260200160068201548152602001600782015481526020016008820160009054906101000a900460ff16151515158152505082828151811061284457fe5b60200260200101819052508080600101915050612737565b5080915050919050565b6000808b8152602001908152602001600020600d0160009054906101000a900460ff166128c8576040517f08c379a00000000000000000000000000000000000000000000000000000000081526004016128bf906149b5565b60405180910390fd5b600160008a815260200190815260200160002060030160009054906101000a900460ff1661292b576040517f08c379a000000000000000000000000000000000000000000000000000000000815260040161292290614955565b60405180910390fd5b6002600086815260200190815260200160002060030160009054906101000a900460ff1661298e576040517f08c379a000000000000000000000000000000000000000000000000000000000815260040161298590614995565b60405180910390fd5b8361299886610858565b146129d8576040517f08c379a00000000000000000000000000000000000000000000000000000000081526004016129cf906149d5565b60405180910390fd5b89600560008d81526020019081526020016000206000018190555088600560008d81526020019081526020016000206001018190555087600560008d815260200190815260200160002060020160006101000a81548172ffffffffffffffffffffffffffffffffffffff021916908360681c021790555086600560008d81526020019081526020016000206003018190555085600560008d81526020019081526020016000206004018190555084600560008d81526020019081526020016000206005018190555083600560008d81526020019081526020016000206006018190555082600560008d81526020019081526020016000206007019080519060200190612ae592919061328a565b5081600560008d81526020019081526020016000206008018190555080600560008d81526020019081526020016000206009019080519060200190612b2b92919061328a565b506000808b8152602001908152602001600020600c018b9080600181540180825580915050600190039060005260206000200160009091909190915055600260008681526020019081526020016000206005018a90806001815401808255809150506001900390600052602060002001600090919091909150555050505050505050505050565b60608060005b600780549050811015612d55576002600060078381548110612bd657fe5b906000526020600020015481526020019081526020016000206040518060c00160405290816000820154815260200160018201805480602002602001604051908101604052809291908181526020018280548015612c5357602002820191906000526020600020905b815481526020019060010190808311612c3f575b50505050508152602001600282015481526020016003820160009054906101000a900460ff1615151515815260200160048201805480602002602001604051908101604052809291908181526020018280548015612cd057602002820191906000526020600020905b815481526020019060010190808311612cbc575b5050505050815260200160058201805480602002602001604051908101604052809291908181526020018280548015612d2857602002820191906000526020600020905b815481526020019060010190808311612d14575b505050505081525050828281518110612d3d57fe5b60200260200101819052508080600101915050612bb8565b508091505090565b876000808b815260200190815260200160002060000181905550866000808b815260200190815260200160002060010181905550856000808b815260200190815260200160002060020181905550846000808b815260200190815260200160002060030160006101000a81548160ff02191690836001811115612ddc57fe5b0217905550836000808b815260200190815260200160002060030160016101000a81548172ffffffffffffffffffffffffffffffffffffff021916908360681c02179055506000831415612e845760008060008b8152602001908152602001600020600401819055507f506172656e74207769746820756e6b6e6f776e207065646967726565000000006000808b815260200190815260200160002060050181905550612ece565b826000808b815260200190815260200160002060040181905550600080848152602001908152602001600020600001546000808b8152602001908152602001600020600501819055505b6000821415612f315760008060008b8152602001908152602001600020600601819055507f506172656e74207769746820756e6b6e6f776e207065646967726565000000006000808b815260200190815260200160002060070181905550612f7b565b816000808b815260200190815260200160002060060181905550600080838152602001908152602001600020600001546000808b8152602001908152602001600020600701819055505b806000808b8152602001908152602001600020600801819055506000808a81526020019081526020016000206009018190806001815401808255809150506001900390600052602060002001600090919091909150556001600082815260200190815260200160002060010189908060018154018082558091505060019003906000526020600020016000909190919091505560008060008b8152602001908152602001600020600a018190555060016000808b8152602001908152602001600020600d0160006101000a81548160ff0219169083151502179055506008899080600181540180825580915050600190039060005260206000200160009091909190915055505050505050505050565b604051806101e00160405280600080191681526020016000801916815260200160008019168152602001600060018111156130c257fe5b815260200160006cffffffffffffffffffffffffff191681526020016000815260200160008019168152602001600081526020016000801916815260200160008152602001606081526020016000815260200160608152602001606081526020016000151581525090565b6040518060c0016040528060008019168152602001606081526020016000815260200160001515815260200160608152602001606081525090565b604051806101200160405280600081526020016000815260200160006cffffffffffffffffffffffffff1916815260200160008152602001600081526020016000815260200160008019168152602001600080191681526020016000151581525090565b604051806101600160405280600081526020016000815260200160006cffffffffffffffffffffffffff19168152602001600081526020016000815260200160008152602001600080191681526020016060815260200160008019168152602001606081526020016000151581525090565b60405180608001604052806000801916815260200160608152602001606081526020016000151581525090565b6040518060400160405280600080191681526020016000151581525090565b8280548282559060005260206000209081019282156132c6579160200282015b828111156132c55782518255916020019190600101906132aa565b5b5090506132d391906132d7565b5090565b5b808211156132f05760008160009055506001016132d8565b5090565b600082601f83011261330557600080fd5b813561331861331382614b41565b614b14565b9150818183526020840193506020810190508385602084028201111561333d57600080fd5b60005b8381101561336d5781613353888261340f565b845260208401935060208301925050600181019050613340565b5050505092915050565b600082601f83011261338857600080fd5b813561339b61339682614b69565b614b14565b915081818352602084019350602081019050838560208402820111156133c057600080fd5b60005b838110156133f057816133d68882613439565b8452602084019350602083019250506001810190506133c3565b5050505092915050565b60008135905061340981614dd1565b92915050565b60008135905061341e81614de8565b92915050565b60008135905061343381614dff565b92915050565b60008135905061344881614e0f565b92915050565b60006020828403121561346057600080fd5b600082013567ffffffffffffffff81111561347a57600080fd5b61348684828501613377565b91505092915050565b6000602082840312156134a157600080fd5b60006134af84828501613439565b91505092915050565b600080604083850312156134cb57600080fd5b60006134d985828601613439565b92505060206134ea8582860161340f565b9150509250929050565b60008060006060848603121561350957600080fd5b600061351786828701613439565b93505060206135288682870161340f565b92505060406135398682870161340f565b9150509250925092565b60008060008060008060008060006101208a8c03121561356257600080fd5b60006135708c828d01613439565b99505060206135818c828d0161340f565b98505060406135928c828d0161340f565b97505060606135a38c828d0161340f565b96505060806135b48c828d01613424565b95505060a06135c58c828d016133fa565b94505060c06135d68c828d01613439565b93505060e06135e78c828d01613439565b9250506101006135f98c828d01613439565b9150509295985092959850929598565b60008060006060848603121561361e57600080fd5b600061362c86828701613439565b935050602061363d86828701613439565b925050604061364e86828701613439565b9150509250925092565b60008060008060008060008060008060006101608c8e03121561367a57600080fd5b60006136888e828f01613439565b9b505060206136998e828f01613439565b9a505060406136aa8e828f01613439565b99505060606136bb8e828f016133fa565b98505060806136cc8e828f01613439565b97505060a06136dd8e828f01613439565b96505060c06136ee8e828f01613439565b95505060e06136ff8e828f0161340f565b9450506101008c013567ffffffffffffffff81111561371d57600080fd5b6137298e828f016132f4565b93505061012061373b8e828f0161340f565b9250506101408c013567ffffffffffffffff81111561375957600080fd5b6137658e828f016132f4565b9150509295989b509295989b9093969950565b60008060008060008060008060006101208a8c03121561379757600080fd5b60006137a58c828d01613439565b99505060206137b68c828d01613439565b98505060406137c78c828d01613439565b97505060606137d88c828d016133fa565b96505060806137e98c828d01613439565b95505060a06137fa8c828d01613439565b94505060c061380b8c828d01613439565b93505060e061381c8c828d0161340f565b92505061010061382e8c828d0161340f565b9150509295985092959850929598565b600061384a8383613c9f565b60208301905092915050565b6000613862838361401f565b905092915050565b600061387683836140f3565b905092915050565b600061388a8383614221565b905092915050565b600061389e83836144c3565b905092915050565b60006138b283836146af565b6101208301905092915050565b60006138cb838361481d565b60208301905092915050565b60006138e282614c01565b6138ec8185614ca9565b93506138f783614b91565b8060005b8381101561392857815161390f888261383e565b975061391a83614c4e565b9250506001810190506138fb565b5085935050505092915050565b600061394082614c01565b61394a8185614cba565b935061395583614b91565b8060005b8381101561398657815161396d888261383e565b975061397883614c4e565b925050600181019050613959565b5085935050505092915050565b600061399e82614c0c565b6139a88185614ccb565b9350836020820285016139ba85614ba1565b8060005b858110156139f657848403895281516139d78582613856565b94506139e283614c5b565b925060208a019950506001810190506139be565b50829750879550505050505092915050565b6000613a1382614c17565b613a1d8185614cdc565b935083602082028501613a2f85614bb1565b8060005b85811015613a6b5784840389528151613a4c858261386a565b9450613a5783614c68565b925060208a01995050600181019050613a33565b50829750879550505050505092915050565b6000613a8882614c22565b613a928185614ced565b935083602082028501613aa485614bc1565b8060005b85811015613ae05784840389528151613ac1858261387e565b9450613acc83614c75565b925060208a01995050600181019050613aa8565b50829750879550505050505092915050565b6000613afd82614c2d565b613b078185614cfe565b935083602082028501613b1985614bd1565b8060005b85811015613b555784840389528151613b368582613892565b9450613b4183614c82565b925060208a01995050600181019050613b1d565b50829750879550505050505092915050565b6000613b7282614c38565b613b7c8185614d0f565b9350613b8783614be1565b8060005b83811015613bb8578151613b9f88826138a6565b9750613baa83614c8f565b925050600181019050613b8b565b5085935050505092915050565b6000613bd082614c43565b613bda8185614d20565b9350613be583614bf1565b8060005b83811015613c16578151613bfd88826138bf565b9750613c0883614c9c565b925050600181019050613be9565b5085935050505092915050565b6000613c2e82614c43565b613c388185614d31565b9350613c4383614bf1565b8060005b83811015613c74578151613c5b88826138bf565b9750613c6683614c9c565b925050600181019050613c47565b5085935050505092915050565b613c8a81614d53565b82525050565b613c9981614d5f565b82525050565b613ca881614d8b565b82525050565b613cb781614d8b565b82525050565b613cc681614db2565b82525050565b6000613cd9602283614d42565b91507f5472656174656d656e74207265636f726420646f6573206e6f7420657869737460008301527f732e0000000000000000000000000000000000000000000000000000000000006020830152604082019050919050565b6000613d3f602683614d42565b91507f427265656465722f4f776e6572206163636f756e7420646f6573206e6f74206560008301527f78697374732e00000000000000000000000000000000000000000000000000006020830152604082019050919050565b6000613da5603783614d42565b91507f427265656465722f4f776e6572206163636f756e74206f662063757272656e7460008301527f206f776e657220646f6573206e6f74206578697374732e0000000000000000006020830152604082019050919050565b6000613e0b601f83614d42565b91507f446f63746f72206163636f756e7420646f6573206e6f74206578697374732e006000830152602082019050919050565b6000613e4b601c83614d42565b91507f446f67206163636f756e7420646f6573206e6f74206578697374732e000000006000830152602082019050919050565b6000613e8b601683614d42565b91507f496e76616c696420686f73706974616c206e616d652e000000000000000000006000830152602082019050919050565b6000613ecb602183614d42565b91507f417574686f72697479206163636f756e7420646f6573206e6f7420657869737460008301527f73000000000000000000000000000000000000000000000000000000000000006020830152604082019050919050565b6000613f31603383614d42565b91507f427265656465722f4f776e6572206163636f756e74206f66206e6577206f776e60008301527f657220646f6573206e6f74206578697374732e000000000000000000000000006020830152604082019050919050565b6000613f97602383614d42565b91507f56616363696e6174696f6e207265636f726420646f6573206e6f74206578697360008301527f74732e00000000000000000000000000000000000000000000000000000000006020830152604082019050919050565b6040820160008201516140066000850182613c9f565b5060208201516140196020850182613c81565b50505050565b60006080830160008301516140376000860182613c9f565b506020830151848203602086015261404f8282613bc5565b915050604083015184820360408601526140698282613bc5565b915050606083015161407e6060860182613c81565b508091505092915050565b60006080830160008301516140a16000860182613c9f565b50602083015184820360208601526140b98282613bc5565b915050604083015184820360408601526140d38282613bc5565b91505060608301516140e86060860182613c81565b508091505092915050565b600060c08301600083015161410b6000860182613c9f565b506020830151848203602086015261412382826138d7565b9150506040830151614138604086018261481d565b50606083015161414b6060860182613c81565b50608083015184820360808601526141638282613bc5565b91505060a083015184820360a086015261417d8282613bc5565b9150508091505092915050565b600060c0830160008301516141a26000860182613c9f565b50602083015184820360208601526141ba82826138d7565b91505060408301516141cf604086018261481d565b5060608301516141e26060860182613c81565b50608083015184820360808601526141fa8282613bc5565b91505060a083015184820360a08601526142148282613bc5565b9150508091505092915050565b60006101e08301600083015161423a6000860182613c9f565b50602083015161424d6020860182613c9f565b5060408301516142606040860182613c9f565b5060608301516142736060860182613cbd565b5060808301516142866080860182613c90565b5060a083015161429960a086018261481d565b5060c08301516142ac60c0860182613c9f565b5060e08301516142bf60e086018261481d565b506101008301516142d4610100860182613c9f565b506101208301516142e961012086018261481d565b506101408301518482036101408601526143038282613bc5565b91505061016083015161431a61016086018261481d565b506101808301518482036101808601526143348282613bc5565b9150506101a08301518482036101a08601526143508282613bc5565b9150506101c08301516143676101c0860182613c81565b508091505092915050565b60006101e08301600083015161438b6000860182613c9f565b50602083015161439e6020860182613c9f565b5060408301516143b16040860182613c9f565b5060608301516143c46060860182613cbd565b5060808301516143d76080860182613c90565b5060a08301516143ea60a086018261481d565b5060c08301516143fd60c0860182613c9f565b5060e083015161441060e086018261481d565b50610100830151614425610100860182613c9f565b5061012083015161443a61012086018261481d565b506101408301518482036101408601526144548282613bc5565b91505061016083015161446b61016086018261481d565b506101808301518482036101808601526144858282613bc5565b9150506101a08301518482036101a08601526144a18282613bc5565b9150506101c08301516144b86101c0860182613c81565b508091505092915050565b6000610160830160008301516144dc600086018261481d565b5060208301516144ef602086018261481d565b5060408301516145026040860182613c90565b506060830151614515606086018261481d565b506080830151614528608086018261481d565b5060a083015161453b60a086018261481d565b5060c083015161454e60c0860182613c9f565b5060e083015184820360e086015261456682826138d7565b91505061010083015161457d610100860182613c9f565b5061012083015184820361012086015261459782826138d7565b9150506101408301516145ae610140860182613c81565b508091505092915050565b6000610160830160008301516145d2600086018261481d565b5060208301516145e5602086018261481d565b5060408301516145f86040860182613c90565b50606083015161460b606086018261481d565b50608083015161461e608086018261481d565b5060a083015161463160a086018261481d565b5060c083015161464460c0860182613c9f565b5060e083015184820360e086015261465c82826138d7565b915050610100830151614673610100860182613c9f565b5061012083015184820361012086015261468d82826138d7565b9150506101408301516146a4610140860182613c81565b508091505092915050565b610120820160008201516146c6600085018261481d565b5060208201516146d9602085018261481d565b5060408201516146ec6040850182613c90565b5060608201516146ff606085018261481d565b506080820151614712608085018261481d565b5060a082015161472560a085018261481d565b5060c082015161473860c0850182613c9f565b5060e082015161474b60e0850182613c9f565b50610100820151614760610100850182613c81565b50505050565b6101208201600082015161477d600085018261481d565b506020820151614790602085018261481d565b5060408201516147a36040850182613c90565b5060608201516147b6606085018261481d565b5060808201516147c9608085018261481d565b5060a08201516147dc60a085018261481d565b5060c08201516147ef60c0850182613c9f565b5060e082015161480260e0850182613c9f565b50610100820151614817610100850182613c81565b50505050565b61482681614da8565b82525050565b600060208201905081810360008301526148468184613935565b905092915050565b600060208201905081810360008301526148688184613993565b905092915050565b6000602082019050818103600083015261488a8184613a08565b905092915050565b600060208201905081810360008301526148ac8184613a7d565b905092915050565b600060208201905081810360008301526148ce8184613af2565b905092915050565b600060208201905081810360008301526148f08184613b67565b905092915050565b600060208201905081810360008301526149128184613c23565b905092915050565b600060208201905061492f6000830184613cae565b92915050565b6000602082019050818103600083015261494e81613ccc565b9050919050565b6000602082019050818103600083015261496e81613d32565b9050919050565b6000602082019050818103600083015261498e81613d98565b9050919050565b600060208201905081810360008301526149ae81613dfe565b9050919050565b600060208201905081810360008301526149ce81613e3e565b9050919050565b600060208201905081810360008301526149ee81613e7e565b9050919050565b60006020820190508181036000830152614a0e81613ebe565b9050919050565b60006020820190508181036000830152614a2e81613f24565b9050919050565b60006020820190508181036000830152614a4e81613f8a565b9050919050565b6000604082019050614a6a6000830184613ff0565b92915050565b60006020820190508181036000830152614a8a8184614089565b905092915050565b60006020820190508181036000830152614aac818461418a565b905092915050565b60006020820190508181036000830152614ace8184614372565b905092915050565b60006020820190508181036000830152614af081846145b9565b905092915050565b600061012082019050614b0e6000830184614766565b92915050565b6000604051905081810181811067ffffffffffffffff82111715614b3757600080fd5b8060405250919050565b600067ffffffffffffffff821115614b5857600080fd5b602082029050602081019050919050565b600067ffffffffffffffff821115614b8057600080fd5b602082029050602081019050919050565b6000819050602082019050919050565b6000819050602082019050919050565b6000819050602082019050919050565b6000819050602082019050919050565b6000819050602082019050919050565b6000819050602082019050919050565b6000819050602082019050919050565b600081519050919050565b600081519050919050565b600081519050919050565b600081519050919050565b600081519050919050565b600081519050919050565b600081519050919050565b6000602082019050919050565b6000602082019050919050565b6000602082019050919050565b6000602082019050919050565b6000602082019050919050565b6000602082019050919050565b6000602082019050919050565b600082825260208201905092915050565b600082825260208201905092915050565b600082825260208201905092915050565b600082825260208201905092915050565b600082825260208201905092915050565b600082825260208201905092915050565b600082825260208201905092915050565b600082825260208201905092915050565b600082825260208201905092915050565b600082825260208201905092915050565b60008115159050919050565b60007fffffffffffffffffffffffffffffffffffffff0000000000000000000000000082169050919050565b6000819050919050565b6000819050614da382614dc4565b919050565b6000819050919050565b6000614dbd82614d95565b9050919050565b60028110614dce57fe5b50565b614dda81614d5f565b8114614de557600080fd5b50565b614df181614d8b565b8114614dfc57600080fd5b50565b60028110614e0c57600080fd5b50565b614e1881614da8565b8114614e2357600080fd5b5056fea2646970667358221220140ff4b9e8cc63f0faf7bc0d607b99dd78db747069f6991dd507ecd91730d29564736f6c63430007000033",
  "immutableReferences": {},
  "source": "// SPDX-License-Identifier: GPL-3.0\npragma solidity ^0.7.0;\npragma experimental ABIEncoderV2;\n\ncontract DogChain{\n    enum dogSex{ dog, bitch }\n    \n    struct dog{\n        bytes32 dogName;\n        bytes32 breed;\n        bytes32 colour;\n        dogSex sex;\n        bytes19 dateOfBirth;\n        uint fatherId;\n        bytes32 fatherName;\n        uint motherId;\n        bytes32 motherName;\n        uint breederId;\n        uint[] ownerIds;\n        uint currentOwner;\n        uint[] vaccineIds;\n        uint[] treatmentIds;\n        bool exists;\n    }\n    \n    struct breeder{\n        bytes32 breederName;\n        uint[] dogIds;\n        uint[] soldDogIds;\n        bool exists;\n    }\n    \n    struct doctor{\n        bytes32 doctorName;\n        bytes32[] hospitalNames;\n        uint currentHospital;\n        bool exists;\n        uint[] vaccinatedDogs;\n        uint[] treatedDogs;\n    }\n    \n    struct authority{\n        bytes32 authorityName;\n        bool exists;\n    }\n    \n    struct vaccine{\n        uint dogId;\n        uint ownerId;\n        bytes19 vaccinatedDate;\n        uint dogAgeYears;\n        uint dogAgeMonths;\n        uint doctorId;\n        bytes32 hospitalName;\n        bytes32 vaccineName;\n        bool exists;\n    }\n    \n    struct treatment{\n        uint dogId;\n        uint ownerId;\n        bytes19 admissionDate;\n        uint dogAgeYears;\n        uint dogAgeMonths;\n        uint doctorId;\n        bytes32 hospitalName;\n        bytes32[] symptoms;\n        bytes32 verdict;\n        bytes32[] medicinesPrescribed;\n        bool exists;\n    }\n    \n    mapping ( uint => dog ) private kennelClub;\n    mapping ( uint => breeder ) private breeders;\n    mapping ( uint => doctor ) private doctors;\n    mapping ( uint => authority ) private kennelClubAuthority;\n    mapping ( uint => vaccine ) private vaccinationRecord;\n    mapping ( uint => treatment ) private treatmentRecord;\n    \n    uint[] private breederUsers;\n    uint[] private doctorUsers;\n    uint[] private dogs;\n    \n    \n    // AUTHORITY FUNCTIONS\n    \n    function registerAuthority(\n        uint _authId,\n        bytes32 _authName\n    ) public {\n        kennelClubAuthority[_authId].authorityName = _authName;\n        kennelClubAuthority[_authId].exists = true;\n    }\n    \n    function getAuthorityData(uint _authId) public view returns (authority memory) {\n        require(kennelClubAuthority[_authId].exists, 'Authority account does not exists');\n        \n        return kennelClubAuthority[_authId];\n    }\n    \n    function getAllBreeders() public view returns (breeder[] memory) {\n        breeder[] memory breedersList;\n        for(uint i = 0; i < breederUsers.length; i++) {\n            breedersList[i] = breeders[breederUsers[i]];\n        }\n        return breedersList;\n    }\n    \n    function getAllDoctors() public view returns (doctor[] memory) {\n        doctor[] memory doctorsList;\n        for(uint i = 0; i < doctorUsers.length; i++) {\n            doctorsList[i] = doctors[doctorUsers[i]];\n        }\n        return doctorsList;\n    }\n    \n    function getAllDogs() public view returns (dog[] memory) {\n        dog[] memory dogsList;\n        for(uint i = 0; i < dogs.length; i++) {\n            dogsList[i] = kennelClub[dogs[i]];\n        }\n        return dogsList;\n    }\n    \n    \n    // BREEDER/OWNER FUNCTIONS\n    \n    function registerBreeder(\n        uint _breederId,\n        bytes32 _breederName\n    ) public {\n        breeders[_breederId].breederName = _breederName;\n        breeders[_breederId].exists = true;\n        breederUsers.push(_breederId);\n    }\n    \n    function getBreederData(uint _breederId) public view returns (breeder memory) {\n        require(breeders[_breederId].exists, 'Breeder/Owner account does not exists.');\n        \n        return breeders[_breederId];\n    }\n    \n    function getTotalDogIds(uint _breederId) public view returns(uint[] memory) {\n        require(breeders[_breederId].exists, 'Breeder/Owner account does not exists.');\n        \n        return breeders[_breederId].dogIds;\n    }\n    \n    function getSoldDogIds(uint _breederId) public view returns(uint[] memory) {\n        require(breeders[_breederId].exists, 'Breeder/Owner account does not exists.');\n        \n        return breeders[_breederId].soldDogIds;\n    }\n    \n    function getDogGroupDetails(uint[] memory _dogIds) public view returns(dog[] memory) {\n        //require(breeders[_breederId].exists, 'Breeder/Owner account does not exists.');\n        \n        dog[] memory _dogs;\n        for(uint i = 0; i < _dogIds.length; i++) {\n            _dogs[i] = kennelClub[_dogIds[i]];\n        }\n        return _dogs;\n    }\n    \n    \n    // DOCTOR FUNCTIONS\n    \n    function registerDoctor(\n        uint _docId, \n        bytes32 _docName,\n        bytes32 _hospitalName\n    ) public{\n        doctors[_docId].doctorName = _docName;\n        doctors[_docId].hospitalNames.push(_hospitalName);\n        doctors[_docId].currentHospital = 0;\n        doctors[_docId].exists = true;\n        doctorUsers.push(_docId);\n    }\n    \n    function getDoctorData(uint _docId) public view returns (doctor memory) {\n        require(doctors[_docId].exists, \"Doctor account does not exists.\");\n        \n        return doctors[_docId];\n    }\n    \n    function changeHospital(uint _docId, bytes32 _newHospitalName) public {\n        require(doctors[_docId].exists, \"Doctor account does not exists.\");\n        \n        doctors[_docId].hospitalNames.push(_newHospitalName);\n        doctors[_docId].currentHospital++;\n    }\n    \n    function getWorkedHospitals(uint _docId) public view returns(bytes32[] memory) {\n        require(doctors[_docId].exists, \"Doctor account does not exists.\");\n        \n        return doctors[_docId].hospitalNames;\n    }\n    \n    function getCurrentWorkingHospital(uint _docId) public view returns (bytes32) {\n        require(doctors[_docId].exists, \"Doctor account does not exists.\");\n        \n        return doctors[_docId].hospitalNames[doctors[_docId].currentHospital];\n    }\n    \n    \n    // DOG FUNCTIONS\n    \n    function dogBirthRegistration(\n        uint _dogId,\n        bytes32 _dogName,\n        bytes32 _breed,\n        bytes32 _colour,\n        dogSex _sex,\n        bytes19 _dob,\n        uint _fatherId,\n        uint _motherId,\n        uint _breederId\n    ) public {\n        kennelClub[_dogId].dogName = _dogName;\n        kennelClub[_dogId].breed = _breed;\n        kennelClub[_dogId].colour = _colour;\n        kennelClub[_dogId].sex = _sex;\n        kennelClub[_dogId].dateOfBirth = _dob;\n        if (_fatherId == 0) {\n            kennelClub[_dogId].fatherId = 0;\n            kennelClub[_dogId].fatherName = \"Parent with unknown pedigree\";\n        } else {\n            kennelClub[_dogId].fatherId = _fatherId;\n            kennelClub[_dogId].fatherName = kennelClub[_fatherId].dogName;\n        }\n        if (_motherId == 0) {\n            kennelClub[_dogId].motherId = 0;\n            kennelClub[_dogId].motherName = \"Parent with unknown pedigree\";\n        } else {\n            kennelClub[_dogId].motherId = _motherId;\n            kennelClub[_dogId].motherName = kennelClub[_motherId].dogName;\n        }\n        kennelClub[_dogId].breederId = _breederId;\n        kennelClub[_dogId].ownerIds.push(_breederId);\n        breeders[_breederId].dogIds.push(_dogId);\n        kennelClub[_dogId].currentOwner = 0;\n        kennelClub[_dogId].exists = true;\n        dogs.push(_dogId);\n    }\n    \n    function getDogData(uint _dogId) public view returns (dog memory) {\n        require(kennelClub[_dogId].exists, 'Dog account does not exists.');\n        \n        return kennelClub[_dogId];\n    }\n    \n    function sellDog(uint _dogId, uint _oldOwnerId, uint _newOwnerId) public {\n        require(kennelClub[_dogId].exists, 'Dog account does not exists.');\n        require(breeders[_oldOwnerId].exists, 'Breeder/Owner account of current owner does not exists.');\n        require(breeders[_newOwnerId].exists, 'Breeder/Owner account of new owner does not exists.');\n        \n        breeders[_oldOwnerId].soldDogIds.push(_dogId);\n        kennelClub[_dogId].ownerIds.push(_newOwnerId);\n        kennelClub[_dogId].currentOwner++;\n    }\n    \n    function getDogBreeder(uint _dogId) public view returns(breeder memory) {\n        require(kennelClub[_dogId].exists, 'Dog account does not exists.');\n        \n        return breeders[kennelClub[_dogId].breederId];\n    }\n    \n    function getDogOwnersList(uint _dogId) public view returns (breeder[] memory) {\n        require(kennelClub[_dogId].exists, 'Dog account does not exists.');\n        \n        breeder[] memory dogOwners;\n        for(uint i = 0; i < kennelClub[_dogId].ownerIds.length; i++) {\n            dogOwners[i] = breeders[kennelClub[_dogId].ownerIds[i]];\n        }\n        \n        return dogOwners;\n    }\n    \n    function getDogCurrentOwner(uint _dogId) public view returns(breeder memory) {\n        require(kennelClub[_dogId].exists, 'Dog account does not exists.');\n        \n        return breeders[kennelClub[_dogId].ownerIds[kennelClub[_dogId].currentOwner]];\n    }\n    \n    function getDogVaccines(uint _dogId) public view returns(vaccine[] memory) {\n        require(kennelClub[_dogId].exists, 'Dog account does not exists.');\n        \n        vaccine[] memory _dogVaccine;\n        \n        for(uint i = 0; i < kennelClub[_dogId].vaccineIds.length; i++) {\n            _dogVaccine[i] = vaccinationRecord[kennelClub[_dogId].vaccineIds[i]];\n        }\n        \n        return _dogVaccine;\n    }\n    \n    function getDogTreatments(uint _dogId) public view returns(treatment[] memory) {\n        require(kennelClub[_dogId].exists, 'Dog account does not exists.');\n        \n        treatment[] memory _dogTreatment;\n        \n        for(uint i = 0; i < kennelClub[_dogId].treatmentIds.length; i++) {\n            _dogTreatment[i] = treatmentRecord[kennelClub[_dogId].treatmentIds[i]];\n        }\n        \n        return _dogTreatment;\n    }\n    \n    \n    // VACCINATION FUNCTIONS\n    \n    function vaccinateDog(\n        uint _vaccId,\n        uint _dogId,\n        uint _ownerId,\n        bytes19 _vaccDate,\n        uint _dogAgeYears,\n        uint _dogAgeMonths,\n        uint _docId,\n        bytes32 _hospitalName,\n        bytes32 _vaccName\n    ) public {\n        require(kennelClub[_dogId].exists, 'Dog account does not exists.');\n        require(breeders[_ownerId].exists, 'Breeder/Owner account does not exists.');\n        require(doctors[_docId].exists, \"Doctor account does not exists.\");\n        require(getCurrentWorkingHospital(_docId) == _hospitalName, 'Invalid hospital name.');\n        \n        vaccinationRecord[_vaccId].dogId = _dogId;\n        vaccinationRecord[_vaccId].ownerId = _ownerId;\n        vaccinationRecord[_vaccId].vaccinatedDate = _vaccDate;\n        vaccinationRecord[_vaccId].dogAgeYears = _dogAgeYears;\n        vaccinationRecord[_vaccId].dogAgeMonths = _dogAgeMonths;\n        vaccinationRecord[_vaccId].doctorId = _docId;\n        vaccinationRecord[_vaccId].hospitalName = _hospitalName;\n        vaccinationRecord[_vaccId].vaccineName = _vaccName;\n        vaccinationRecord[_vaccId].exists = true;\n        kennelClub[_dogId].vaccineIds.push(_vaccId);\n        doctors[_docId].vaccinatedDogs.push(_dogId);\n    }\n    \n    function getVaccineData(uint _vaccId) public view returns (vaccine memory){\n        require(vaccinationRecord[_vaccId].exists, 'Vaccination record does not exists.');\n        \n        return vaccinationRecord[_vaccId];\n    }\n    \n    \n    // TREATMENT FUNCTIONS\n    \n    function treatDog(\n        uint _treatmentId,\n        uint _dogId,\n        uint _ownerId,\n        bytes19 _admissionDate,\n        uint _dogAgeYears,\n        uint _dogAgeMonths,\n        uint _docId,\n        bytes32 _hospitalName,\n        bytes32[] memory _symptoms,\n        bytes32 _verdict,\n        bytes32[] memory _medicines\n    ) public {\n        require(kennelClub[_dogId].exists, 'Dog account does not exists.');\n        require(breeders[_ownerId].exists, 'Breeder/Owner account does not exists.');\n        require(doctors[_docId].exists, \"Doctor account does not exists.\");\n        require(getCurrentWorkingHospital(_docId) == _hospitalName, 'Invalid hospital name.');\n        \n        treatmentRecord[_treatmentId].dogId = _dogId;\n        treatmentRecord[_treatmentId].ownerId = _ownerId;\n        treatmentRecord[_treatmentId].admissionDate = _admissionDate;\n        treatmentRecord[_treatmentId].dogAgeYears = _dogAgeYears;\n        treatmentRecord[_treatmentId].dogAgeMonths = _dogAgeMonths;\n        treatmentRecord[_treatmentId].doctorId = _docId;\n        treatmentRecord[_treatmentId].hospitalName = _hospitalName;\n        treatmentRecord[_treatmentId].symptoms = _symptoms;\n        treatmentRecord[_treatmentId].verdict = _verdict;\n        treatmentRecord[_treatmentId].medicinesPrescribed = _medicines;\n        kennelClub[_dogId].treatmentIds.push(_treatmentId);\n        doctors[_docId].treatedDogs.push(_dogId);\n    }\n    \n    function getDogTreatmentData(uint _treatmentId) public view returns (treatment memory) {\n        require(treatmentRecord[_treatmentId].exists, 'Treatement record does not exists.');\n        \n        return treatmentRecord[_treatmentId];\n    }\n}",
  "sourcePath": "/home/mikhil/ced-b5-020-project/DogChain/Backend/contracts/DogChain.sol",
  "compiler": {
    "name": "solc",
    "version": "0.7.0+commit.9e61f92b.Emscripten.clang"
  },
  "schemaVersion": "3.3.0",
  "updatedAt": "2020-12-19T10:56:00.260Z",
  "networkType": "ethereum",
  "devdoc": {
    "kind": "dev",
    "methods": {},
    "version": 1
  },
  "userdoc": {
    "kind": "user",
    "methods": {},
    "version": 1
  }
}