{
  "contractName": "DogChain",
  "abi": [
    {
      "inputs": [
        {
          "internalType": "uint256",
          "name": "_authId",
          "type": "uint256"
        },
        {
          "internalType": "bytes32",
          "name": "_authName",
          "type": "bytes32"
        }
      ],
      "name": "registerAuthority",
      "outputs": [],
      "stateMutability": "nonpayable",
      "type": "function"
    },
    {
      "inputs": [
        {
          "internalType": "uint256",
          "name": "_authId",
          "type": "uint256"
        }
      ],
      "name": "getAuthorityData",
      "outputs": [
        {
          "components": [
            {
              "internalType": "bytes32",
              "name": "authorityName",
              "type": "bytes32"
            },
            {
              "internalType": "bool",
              "name": "exists",
              "type": "bool"
            }
          ],
          "internalType": "struct DogChain.authority",
          "name": "",
          "type": "tuple"
        }
      ],
      "stateMutability": "view",
      "type": "function",
      "constant": true
    },
    {
      "inputs": [],
      "name": "getAllBreeders",
      "outputs": [
        {
          "internalType": "uint256[]",
          "name": "",
          "type": "uint256[]"
        }
      ],
      "stateMutability": "view",
      "type": "function",
      "constant": true
    },
    {
      "inputs": [],
      "name": "getAllDoctors",
      "outputs": [
        {
          "internalType": "uint256[]",
          "name": "",
          "type": "uint256[]"
        }
      ],
      "stateMutability": "view",
      "type": "function",
      "constant": true
    },
    {
      "inputs": [],
      "name": "getAllDogs",
      "outputs": [
        {
          "internalType": "uint256[]",
          "name": "",
          "type": "uint256[]"
        }
      ],
      "stateMutability": "view",
      "type": "function",
      "constant": true
    },
    {
      "inputs": [
        {
          "internalType": "uint256[]",
          "name": "_breederIds",
          "type": "uint256[]"
        }
      ],
      "name": "getBreedersList",
      "outputs": [
        {
          "components": [
            {
              "internalType": "bytes32",
              "name": "breederName",
              "type": "bytes32"
            },
            {
              "internalType": "uint256[]",
              "name": "dogIds",
              "type": "uint256[]"
            },
            {
              "internalType": "uint256[]",
              "name": "soldDogIds",
              "type": "uint256[]"
            },
            {
              "internalType": "bool",
              "name": "exists",
              "type": "bool"
            }
          ],
          "internalType": "struct DogChain.breeder[]",
          "name": "",
          "type": "tuple[]"
        }
      ],
      "stateMutability": "view",
      "type": "function",
      "constant": true
    },
    {
      "inputs": [
        {
          "internalType": "uint256[]",
          "name": "_docIds",
          "type": "uint256[]"
        }
      ],
      "name": "getDoctorsList",
      "outputs": [
        {
          "components": [
            {
              "internalType": "bytes32",
              "name": "doctorName",
              "type": "bytes32"
            },
            {
              "internalType": "bytes32[]",
              "name": "hospitalNames",
              "type": "bytes32[]"
            },
            {
              "internalType": "uint256",
              "name": "currentHospital",
              "type": "uint256"
            },
            {
              "internalType": "bool",
              "name": "exists",
              "type": "bool"
            },
            {
              "internalType": "uint256[]",
              "name": "vaccinationRecordIds",
              "type": "uint256[]"
            },
            {
              "internalType": "uint256[]",
              "name": "treatmentRecordIds",
              "type": "uint256[]"
            }
          ],
          "internalType": "struct DogChain.doctor[]",
          "name": "",
          "type": "tuple[]"
        }
      ],
      "stateMutability": "view",
      "type": "function",
      "constant": true
    },
    {
      "inputs": [
        {
          "internalType": "uint256[]",
          "name": "_dogIds",
          "type": "uint256[]"
        }
      ],
      "name": "getDogsList",
      "outputs": [
        {
          "components": [
            {
              "internalType": "bytes32",
              "name": "dogName",
              "type": "bytes32"
            },
            {
              "internalType": "bytes32",
              "name": "breed",
              "type": "bytes32"
            },
            {
              "internalType": "bytes32",
              "name": "colour",
              "type": "bytes32"
            },
            {
              "internalType": "enum DogChain.dogSex",
              "name": "sex",
              "type": "uint8"
            },
            {
              "internalType": "bytes19",
              "name": "dateOfBirth",
              "type": "bytes19"
            },
            {
              "internalType": "uint256",
              "name": "fatherId",
              "type": "uint256"
            },
            {
              "internalType": "bytes32",
              "name": "fatherName",
              "type": "bytes32"
            },
            {
              "internalType": "uint256",
              "name": "motherId",
              "type": "uint256"
            },
            {
              "internalType": "bytes32",
              "name": "motherName",
              "type": "bytes32"
            },
            {
              "internalType": "uint256",
              "name": "breederId",
              "type": "uint256"
            },
            {
              "internalType": "uint256[]",
              "name": "ownerIds",
              "type": "uint256[]"
            },
            {
              "internalType": "uint256",
              "name": "currentOwner",
              "type": "uint256"
            },
            {
              "internalType": "uint256[]",
              "name": "vaccineIds",
              "type": "uint256[]"
            },
            {
              "internalType": "uint256[]",
              "name": "treatmentIds",
              "type": "uint256[]"
            },
            {
              "internalType": "bool",
              "name": "exists",
              "type": "bool"
            }
          ],
          "internalType": "struct DogChain.dog[]",
          "name": "",
          "type": "tuple[]"
        }
      ],
      "stateMutability": "view",
      "type": "function",
      "constant": true
    },
    {
      "inputs": [
        {
          "internalType": "uint256[]",
          "name": "_vaccIds",
          "type": "uint256[]"
        }
      ],
      "name": "getVaccinesList",
      "outputs": [
        {
          "components": [
            {
              "internalType": "uint256",
              "name": "dogId",
              "type": "uint256"
            },
            {
              "internalType": "uint256",
              "name": "ownerId",
              "type": "uint256"
            },
            {
              "internalType": "bytes19",
              "name": "vaccinatedDate",
              "type": "bytes19"
            },
            {
              "internalType": "uint256",
              "name": "dogAgeYears",
              "type": "uint256"
            },
            {
              "internalType": "uint256",
              "name": "dogAgeMonths",
              "type": "uint256"
            },
            {
              "internalType": "uint256",
              "name": "doctorId",
              "type": "uint256"
            },
            {
              "internalType": "bytes32",
              "name": "hospitalName",
              "type": "bytes32"
            },
            {
              "internalType": "bytes32",
              "name": "vaccineName",
              "type": "bytes32"
            },
            {
              "internalType": "bool",
              "name": "exists",
              "type": "bool"
            }
          ],
          "internalType": "struct DogChain.vaccine[]",
          "name": "",
          "type": "tuple[]"
        }
      ],
      "stateMutability": "view",
      "type": "function",
      "constant": true
    },
    {
      "inputs": [
        {
          "internalType": "uint256[]",
          "name": "_treatIds",
          "type": "uint256[]"
        }
      ],
      "name": "getTreatmentList",
      "outputs": [
        {
          "components": [
            {
              "internalType": "uint256",
              "name": "dogId",
              "type": "uint256"
            },
            {
              "internalType": "uint256",
              "name": "ownerId",
              "type": "uint256"
            },
            {
              "internalType": "bytes19",
              "name": "admissionDate",
              "type": "bytes19"
            },
            {
              "internalType": "uint256",
              "name": "dogAgeYears",
              "type": "uint256"
            },
            {
              "internalType": "uint256",
              "name": "dogAgeMonths",
              "type": "uint256"
            },
            {
              "internalType": "uint256",
              "name": "doctorId",
              "type": "uint256"
            },
            {
              "internalType": "bytes32",
              "name": "hospitalName",
              "type": "bytes32"
            },
            {
              "internalType": "bytes32[]",
              "name": "symptoms",
              "type": "bytes32[]"
            },
            {
              "internalType": "bytes32",
              "name": "verdict",
              "type": "bytes32"
            },
            {
              "internalType": "bytes32[]",
              "name": "medicinesPrescribed",
              "type": "bytes32[]"
            },
            {
              "internalType": "bool",
              "name": "exists",
              "type": "bool"
            }
          ],
          "internalType": "struct DogChain.treatment[]",
          "name": "",
          "type": "tuple[]"
        }
      ],
      "stateMutability": "view",
      "type": "function",
      "constant": true
    },
    {
      "inputs": [
        {
          "internalType": "uint256",
          "name": "_breederId",
          "type": "uint256"
        }
      ],
      "name": "isBreederPresent",
      "outputs": [
        {
          "internalType": "bool",
          "name": "",
          "type": "bool"
        }
      ],
      "stateMutability": "view",
      "type": "function",
      "constant": true
    },
    {
      "inputs": [
        {
          "internalType": "uint256",
          "name": "_docId",
          "type": "uint256"
        }
      ],
      "name": "isDoctorPresent",
      "outputs": [
        {
          "internalType": "bool",
          "name": "",
          "type": "bool"
        }
      ],
      "stateMutability": "view",
      "type": "function",
      "constant": true
    },
    {
      "inputs": [
        {
          "internalType": "uint256",
          "name": "_dogId",
          "type": "uint256"
        }
      ],
      "name": "isDogPresent",
      "outputs": [
        {
          "internalType": "bool",
          "name": "",
          "type": "bool"
        }
      ],
      "stateMutability": "view",
      "type": "function",
      "constant": true
    },
    {
      "inputs": [
        {
          "internalType": "uint256",
          "name": "_breederId",
          "type": "uint256"
        },
        {
          "internalType": "bytes32",
          "name": "_breederName",
          "type": "bytes32"
        }
      ],
      "name": "registerBreeder",
      "outputs": [],
      "stateMutability": "nonpayable",
      "type": "function"
    },
    {
      "inputs": [
        {
          "internalType": "uint256",
          "name": "_breederId",
          "type": "uint256"
        }
      ],
      "name": "getBreederData",
      "outputs": [
        {
          "components": [
            {
              "internalType": "bytes32",
              "name": "breederName",
              "type": "bytes32"
            },
            {
              "internalType": "uint256[]",
              "name": "dogIds",
              "type": "uint256[]"
            },
            {
              "internalType": "uint256[]",
              "name": "soldDogIds",
              "type": "uint256[]"
            },
            {
              "internalType": "bool",
              "name": "exists",
              "type": "bool"
            }
          ],
          "internalType": "struct DogChain.breeder",
          "name": "",
          "type": "tuple"
        }
      ],
      "stateMutability": "view",
      "type": "function",
      "constant": true
    },
    {
      "inputs": [
        {
          "internalType": "uint256",
          "name": "_breederId",
          "type": "uint256"
        }
      ],
      "name": "getTotalDogIds",
      "outputs": [
        {
          "internalType": "uint256[]",
          "name": "",
          "type": "uint256[]"
        }
      ],
      "stateMutability": "view",
      "type": "function",
      "constant": true
    },
    {
      "inputs": [
        {
          "internalType": "uint256",
          "name": "_breederId",
          "type": "uint256"
        }
      ],
      "name": "getSoldDogIds",
      "outputs": [
        {
          "internalType": "uint256[]",
          "name": "",
          "type": "uint256[]"
        }
      ],
      "stateMutability": "view",
      "type": "function",
      "constant": true
    },
    {
      "inputs": [
        {
          "internalType": "uint256",
          "name": "_breederId",
          "type": "uint256"
        }
      ],
      "name": "getCurrentDogIds",
      "outputs": [
        {
          "internalType": "uint256[]",
          "name": "",
          "type": "uint256[]"
        }
      ],
      "stateMutability": "view",
      "type": "function",
      "constant": true
    },
    {
      "inputs": [
        {
          "internalType": "uint256",
          "name": "_docId",
          "type": "uint256"
        },
        {
          "internalType": "bytes32",
          "name": "_docName",
          "type": "bytes32"
        },
        {
          "internalType": "bytes32",
          "name": "_hospitalName",
          "type": "bytes32"
        }
      ],
      "name": "registerDoctor",
      "outputs": [],
      "stateMutability": "nonpayable",
      "type": "function"
    },
    {
      "inputs": [
        {
          "internalType": "uint256",
          "name": "_docId",
          "type": "uint256"
        }
      ],
      "name": "getDoctorData",
      "outputs": [
        {
          "components": [
            {
              "internalType": "bytes32",
              "name": "doctorName",
              "type": "bytes32"
            },
            {
              "internalType": "bytes32[]",
              "name": "hospitalNames",
              "type": "bytes32[]"
            },
            {
              "internalType": "uint256",
              "name": "currentHospital",
              "type": "uint256"
            },
            {
              "internalType": "bool",
              "name": "exists",
              "type": "bool"
            },
            {
              "internalType": "uint256[]",
              "name": "vaccinationRecordIds",
              "type": "uint256[]"
            },
            {
              "internalType": "uint256[]",
              "name": "treatmentRecordIds",
              "type": "uint256[]"
            }
          ],
          "internalType": "struct DogChain.doctor",
          "name": "",
          "type": "tuple"
        }
      ],
      "stateMutability": "view",
      "type": "function",
      "constant": true
    },
    {
      "inputs": [
        {
          "internalType": "uint256",
          "name": "_docId",
          "type": "uint256"
        }
      ],
      "name": "getDoctorVaccinations",
      "outputs": [
        {
          "internalType": "uint256[]",
          "name": "",
          "type": "uint256[]"
        }
      ],
      "stateMutability": "view",
      "type": "function",
      "constant": true
    },
    {
      "inputs": [
        {
          "internalType": "uint256",
          "name": "_docId",
          "type": "uint256"
        }
      ],
      "name": "getDoctorTreatments",
      "outputs": [
        {
          "internalType": "uint256[]",
          "name": "",
          "type": "uint256[]"
        }
      ],
      "stateMutability": "view",
      "type": "function",
      "constant": true
    },
    {
      "inputs": [
        {
          "internalType": "uint256",
          "name": "_docId",
          "type": "uint256"
        },
        {
          "internalType": "bytes32",
          "name": "_newHospitalName",
          "type": "bytes32"
        }
      ],
      "name": "changeHospital",
      "outputs": [],
      "stateMutability": "nonpayable",
      "type": "function"
    },
    {
      "inputs": [
        {
          "internalType": "uint256",
          "name": "_docId",
          "type": "uint256"
        }
      ],
      "name": "getWorkedHospitals",
      "outputs": [
        {
          "internalType": "bytes32[]",
          "name": "",
          "type": "bytes32[]"
        }
      ],
      "stateMutability": "view",
      "type": "function",
      "constant": true
    },
    {
      "inputs": [
        {
          "internalType": "uint256",
          "name": "_docId",
          "type": "uint256"
        }
      ],
      "name": "getCurrentWorkingHospital",
      "outputs": [
        {
          "internalType": "bytes32",
          "name": "",
          "type": "bytes32"
        }
      ],
      "stateMutability": "view",
      "type": "function",
      "constant": true
    },
    {
      "inputs": [
        {
          "internalType": "uint256",
          "name": "_dogId",
          "type": "uint256"
        },
        {
          "internalType": "bytes32",
          "name": "_dogName",
          "type": "bytes32"
        },
        {
          "internalType": "bytes32",
          "name": "_breed",
          "type": "bytes32"
        },
        {
          "internalType": "bytes32",
          "name": "_colour",
          "type": "bytes32"
        },
        {
          "internalType": "enum DogChain.dogSex",
          "name": "_sex",
          "type": "uint8"
        },
        {
          "internalType": "bytes19",
          "name": "_dob",
          "type": "bytes19"
        },
        {
          "internalType": "uint256",
          "name": "_fatherId",
          "type": "uint256"
        },
        {
          "internalType": "uint256",
          "name": "_motherId",
          "type": "uint256"
        },
        {
          "internalType": "uint256",
          "name": "_breederId",
          "type": "uint256"
        }
      ],
      "name": "dogBirthRegistration",
      "outputs": [],
      "stateMutability": "nonpayable",
      "type": "function"
    },
    {
      "inputs": [
        {
          "internalType": "uint256",
          "name": "_dogId",
          "type": "uint256"
        }
      ],
      "name": "getDogData",
      "outputs": [
        {
          "components": [
            {
              "internalType": "bytes32",
              "name": "dogName",
              "type": "bytes32"
            },
            {
              "internalType": "bytes32",
              "name": "breed",
              "type": "bytes32"
            },
            {
              "internalType": "bytes32",
              "name": "colour",
              "type": "bytes32"
            },
            {
              "internalType": "enum DogChain.dogSex",
              "name": "sex",
              "type": "uint8"
            },
            {
              "internalType": "bytes19",
              "name": "dateOfBirth",
              "type": "bytes19"
            },
            {
              "internalType": "uint256",
              "name": "fatherId",
              "type": "uint256"
            },
            {
              "internalType": "bytes32",
              "name": "fatherName",
              "type": "bytes32"
            },
            {
              "internalType": "uint256",
              "name": "motherId",
              "type": "uint256"
            },
            {
              "internalType": "bytes32",
              "name": "motherName",
              "type": "bytes32"
            },
            {
              "internalType": "uint256",
              "name": "breederId",
              "type": "uint256"
            },
            {
              "internalType": "uint256[]",
              "name": "ownerIds",
              "type": "uint256[]"
            },
            {
              "internalType": "uint256",
              "name": "currentOwner",
              "type": "uint256"
            },
            {
              "internalType": "uint256[]",
              "name": "vaccineIds",
              "type": "uint256[]"
            },
            {
              "internalType": "uint256[]",
              "name": "treatmentIds",
              "type": "uint256[]"
            },
            {
              "internalType": "bool",
              "name": "exists",
              "type": "bool"
            }
          ],
          "internalType": "struct DogChain.dog",
          "name": "",
          "type": "tuple"
        }
      ],
      "stateMutability": "view",
      "type": "function",
      "constant": true
    },
    {
      "inputs": [
        {
          "internalType": "uint256",
          "name": "_dogId",
          "type": "uint256"
        },
        {
          "internalType": "uint256",
          "name": "_currentOwnerId",
          "type": "uint256"
        },
        {
          "internalType": "uint256",
          "name": "_newOwnerId",
          "type": "uint256"
        }
      ],
      "name": "transferDogOwnership",
      "outputs": [],
      "stateMutability": "nonpayable",
      "type": "function"
    },
    {
      "inputs": [
        {
          "internalType": "uint256",
          "name": "_dogId",
          "type": "uint256"
        }
      ],
      "name": "getDogBreeder",
      "outputs": [
        {
          "internalType": "uint256",
          "name": "",
          "type": "uint256"
        }
      ],
      "stateMutability": "view",
      "type": "function",
      "constant": true
    },
    {
      "inputs": [
        {
          "internalType": "uint256",
          "name": "_dogId",
          "type": "uint256"
        }
      ],
      "name": "getDogOwnersList",
      "outputs": [
        {
          "internalType": "uint256[]",
          "name": "",
          "type": "uint256[]"
        }
      ],
      "stateMutability": "view",
      "type": "function",
      "constant": true
    },
    {
      "inputs": [
        {
          "internalType": "uint256",
          "name": "_dogId",
          "type": "uint256"
        }
      ],
      "name": "getDogCurrentOwner",
      "outputs": [
        {
          "internalType": "uint256",
          "name": "",
          "type": "uint256"
        }
      ],
      "stateMutability": "view",
      "type": "function",
      "constant": true
    },
    {
      "inputs": [
        {
          "internalType": "uint256",
          "name": "_dogId",
          "type": "uint256"
        }
      ],
      "name": "getDogVaccines",
      "outputs": [
        {
          "internalType": "uint256[]",
          "name": "",
          "type": "uint256[]"
        }
      ],
      "stateMutability": "view",
      "type": "function",
      "constant": true
    },
    {
      "inputs": [
        {
          "internalType": "uint256",
          "name": "_dogId",
          "type": "uint256"
        }
      ],
      "name": "getDogTreatments",
      "outputs": [
        {
          "internalType": "uint256[]",
          "name": "",
          "type": "uint256[]"
        }
      ],
      "stateMutability": "view",
      "type": "function",
      "constant": true
    },
    {
      "inputs": [
        {
          "internalType": "uint256",
          "name": "_vaccId",
          "type": "uint256"
        },
        {
          "internalType": "uint256",
          "name": "_dogId",
          "type": "uint256"
        },
        {
          "internalType": "bytes19",
          "name": "_vaccDate",
          "type": "bytes19"
        },
        {
          "internalType": "uint256",
          "name": "_dogAgeYears",
          "type": "uint256"
        },
        {
          "internalType": "uint256",
          "name": "_dogAgeMonths",
          "type": "uint256"
        },
        {
          "internalType": "uint256",
          "name": "_docId",
          "type": "uint256"
        },
        {
          "internalType": "bytes32",
          "name": "_vaccName",
          "type": "bytes32"
        }
      ],
      "name": "vaccinateDog",
      "outputs": [],
      "stateMutability": "nonpayable",
      "type": "function"
    },
    {
      "inputs": [
        {
          "internalType": "uint256",
          "name": "_vaccId",
          "type": "uint256"
        }
      ],
      "name": "getVaccineData",
      "outputs": [
        {
          "components": [
            {
              "internalType": "uint256",
              "name": "dogId",
              "type": "uint256"
            },
            {
              "internalType": "uint256",
              "name": "ownerId",
              "type": "uint256"
            },
            {
              "internalType": "bytes19",
              "name": "vaccinatedDate",
              "type": "bytes19"
            },
            {
              "internalType": "uint256",
              "name": "dogAgeYears",
              "type": "uint256"
            },
            {
              "internalType": "uint256",
              "name": "dogAgeMonths",
              "type": "uint256"
            },
            {
              "internalType": "uint256",
              "name": "doctorId",
              "type": "uint256"
            },
            {
              "internalType": "bytes32",
              "name": "hospitalName",
              "type": "bytes32"
            },
            {
              "internalType": "bytes32",
              "name": "vaccineName",
              "type": "bytes32"
            },
            {
              "internalType": "bool",
              "name": "exists",
              "type": "bool"
            }
          ],
          "internalType": "struct DogChain.vaccine",
          "name": "",
          "type": "tuple"
        }
      ],
      "stateMutability": "view",
      "type": "function",
      "constant": true
    },
    {
      "inputs": [
        {
          "internalType": "uint256",
          "name": "_treatmentId",
          "type": "uint256"
        },
        {
          "internalType": "uint256",
          "name": "_dogId",
          "type": "uint256"
        },
        {
          "internalType": "bytes19",
          "name": "_admissionDate",
          "type": "bytes19"
        },
        {
          "internalType": "uint256",
          "name": "_dogAgeYears",
          "type": "uint256"
        },
        {
          "internalType": "uint256",
          "name": "_dogAgeMonths",
          "type": "uint256"
        },
        {
          "internalType": "uint256",
          "name": "_docId",
          "type": "uint256"
        },
        {
          "internalType": "bytes32[]",
          "name": "_symptoms",
          "type": "bytes32[]"
        },
        {
          "internalType": "bytes32",
          "name": "_verdict",
          "type": "bytes32"
        },
        {
          "internalType": "bytes32[]",
          "name": "_medicines",
          "type": "bytes32[]"
        }
      ],
      "name": "treatDog",
      "outputs": [],
      "stateMutability": "nonpayable",
      "type": "function"
    },
    {
      "inputs": [
        {
          "internalType": "uint256",
          "name": "_treatmentId",
          "type": "uint256"
        }
      ],
      "name": "getDogTreatmentData",
      "outputs": [
        {
          "components": [
            {
              "internalType": "uint256",
              "name": "dogId",
              "type": "uint256"
            },
            {
              "internalType": "uint256",
              "name": "ownerId",
              "type": "uint256"
            },
            {
              "internalType": "bytes19",
              "name": "admissionDate",
              "type": "bytes19"
            },
            {
              "internalType": "uint256",
              "name": "dogAgeYears",
              "type": "uint256"
            },
            {
              "internalType": "uint256",
              "name": "dogAgeMonths",
              "type": "uint256"
            },
            {
              "internalType": "uint256",
              "name": "doctorId",
              "type": "uint256"
            },
            {
              "internalType": "bytes32",
              "name": "hospitalName",
              "type": "bytes32"
            },
            {
              "internalType": "bytes32[]",
              "name": "symptoms",
              "type": "bytes32[]"
            },
            {
              "internalType": "bytes32",
              "name": "verdict",
              "type": "bytes32"
            },
            {
              "internalType": "bytes32[]",
              "name": "medicinesPrescribed",
              "type": "bytes32[]"
            },
            {
              "internalType": "bool",
              "name": "exists",
              "type": "bool"
            }
          ],
          "internalType": "struct DogChain.treatment",
          "name": "",
          "type": "tuple"
        }
      ],
      "stateMutability": "view",
      "type": "function",
      "constant": true
    }
  ],
  "bytecode": "0x608060405234801561001057600080fd5b50615550806100206000396000f3fe608060405234801561001057600080fd5b50600436106102275760003560e01c8063736be40111610130578063aec412f5116100b8578063c66961891161007c578063c669618914610790578063ca4c1160146107c0578063e363b320146107f0578063f0d950901461080c578063ff0a3cd91461082a57610227565b8063aec412f5146106b4578063b377b8d4146106e4578063b886904514610714578063bd276fee14610744578063c0a1c3471461076057610227565b80637a9d848d116100ff5780637a9d848d146105c45780637fef96a4146105f4578063806f253a1461062457806387007ee9146106545780639a7c05cb1461068457610227565b8063736be4011461051857806373e74244146105485780637459a35d1461057857806378ee12ff1461059457610227565b806329a4041c116101b3578063500392ed11610182578063500392ed1461043c57806359a2a83b1461046c5780635a9ec3b91461049c5780636c89c07e146104cc5780636ce5c0e7146104fc57610227565b806329a4041c146103b6578063322c2629146103d4578063386c460e146104045780633fc516281461042057610227565b80631e859912116101fa5780631e859912146102da57806320721e291461030a578063207ffda71461033a5780632171169a1461036a57806328676d5a1461038657610227565b80630b03d4b51461022c5780631228af651461025c578063180cad131461028c578063181fe0df146102bc575b600080fd5b61024660048036038101906102419190613a4f565b610846565b604051610253919061518d565b60405180910390f35b61027660048036038101906102719190613a4f565b610ab8565b6040516102839190614fb3565b60405180910390f35b6102a660048036038101906102a19190613a4f565b610b66565b6040516102b3919061516b565b60405180910390f35b6102c4610d2d565b6040516102d19190614f76565b60405180910390f35b6102f460048036038101906102ef9190613a4f565b610d85565b6040516103019190614f76565b60405180910390f35b610324600480360381019061031f9190613a4f565b610e56565b6040516103319190614f98565b60405180910390f35b610354600480360381019061034f9190613a0e565b610e94565b6040516103619190614f54565b60405180910390f35b610384600480360381019061037f9190613bc9565b610ff0565b005b6103a0600480360381019061039b9190613a0e565b6112ce565b6040516103ad9190614eee565b60405180910390f35b6103be6114c8565b6040516103cb9190614f76565b60405180910390f35b6103ee60048036038101906103e99190613a4f565b611520565b6040516103fb9190614f98565b60405180910390f35b61041e60048036038101906104199190613a78565b61155e565b005b61043a60048036038101906104359190613ab4565b611628565b005b61045660048036038101906104519190613a4f565b6116f9565b60405161046391906151d1565b60405180910390f35b61048660048036038101906104819190613a4f565b611822565b60405161049391906151af565b60405180910390f35b6104b660048036038101906104b19190613a0e565b6119fb565b6040516104c39190614f32565b60405180910390f35b6104e660048036038101906104e19190613a4f565b611c07565b6040516104f39190614f76565b60405180910390f35b61051660048036038101906105119190613a78565b611d7c565b005b610532600480360381019061052d9190613a4f565b611dca565b60405161053f9190614f76565b60405180910390f35b610562600480360381019061055d9190613a4f565b611e9b565b60405161056f9190615149565b60405180910390f35b610592600480360381019061058d9190613a78565b612000565b005b6105ae60048036038101906105a99190613a0e565b612077565b6040516105bb9190614f10565b60405180910390f35b6105de60048036038101906105d99190613a4f565b61231c565b6040516105eb91906151ed565b60405180910390f35b61060e60048036038101906106099190613a4f565b61239f565b60405161061b9190614f76565b60405180910390f35b61063e60048036038101906106399190613a4f565b612470565b60405161064b9190614eaa565b60405180910390f35b61066e60048036038101906106699190613a4f565b612541565b60405161067b919061512e565b60405180910390f35b61069e60048036038101906106999190613a4f565b6125f6565b6040516106ab9190614f76565b60405180910390f35b6106ce60048036038101906106c99190613a4f565b6126c7565b6040516106db9190614f76565b60405180910390f35b6106fe60048036038101906106f99190613a0e565b612798565b60405161070b9190614ecc565b60405180910390f35b61072e60048036038101906107299190613a4f565b612930565b60405161073b9190614f76565b60405180910390f35b61075e60048036038101906107599190613cbf565b612a01565b005b61077a60048036038101906107759190613a4f565b612c87565b6040516107879190614f98565b60405180910390f35b6107aa60048036038101906107a59190613a4f565b612cc5565b6040516107b791906151ed565b60405180910390f35b6107da60048036038101906107d59190613a4f565b612d73565b6040516107e79190614f76565b60405180910390f35b61080a60048036038101906108059190613d5d565b612e44565b005b610814613138565b6040516108219190614f76565b60405180910390f35b610844600480360381019061083f9190613b03565b613190565b005b61084e61364b565b60016000838152602001908152602001600020600d0160009054906101000a900460ff166108b1576040517f08c379a00000000000000000000000000000000000000000000000000000000081526004016108a89061506e565b60405180910390fd5b60016000838152602001908152602001600020604051806101e00160405290816000820154815260200160018201548152602001600282015481526020016003820160009054906101000a900460ff16600181111561090c57fe5b600181111561091757fe5b81526020016003820160019054906101000a900460681b6cffffffffffffffffffffffffff19166cffffffffffffffffffffffffff191681526020016004820154815260200160058201548152602001600682015481526020016007820154815260200160088201548152602001600982018054806020026020016040519081016040528092919081815260200182805480156109d357602002820191906000526020600020905b8154815260200190600101908083116109bf575b50505050508152602001600a8201548152602001600b8201805480602002602001604051908101604052809291908181526020018280548015610a3557602002820191906000526020600020905b815481526020019060010190808311610a21575b50505050508152602001600c8201805480602002602001604051908101604052809291908181526020018280548015610a8d57602002820191906000526020600020905b815481526020019060010190808311610a79575b50505050508152602001600d820160009054906101000a900460ff1615151515815250509050919050565b60006003600083815260200190815260200160002060030160009054906101000a900460ff16610b1d576040517f08c379a0000000000000000000000000000000000000000000000000000000008152600401610b149061504e565b60405180910390fd5b60036000838152602001908152602001600020600101600360008481526020019081526020016000206002015481548110610b5457fe5b90600052602060002001549050919050565b610b6e6136ed565b6003600083815260200190815260200160002060030160009054906101000a900460ff16610bd1576040517f08c379a0000000000000000000000000000000000000000000000000000000008152600401610bc89061504e565b60405180910390fd5b600360008381526020019081526020016000206040518060c00160405290816000820154815260200160018201805480602002602001604051908101604052809291908181526020018280548015610c4857602002820191906000526020600020905b815481526020019060010190808311610c34575b50505050508152602001600282015481526020016003820160009054906101000a900460ff1615151515815260200160048201805480602002602001604051908101604052809291908181526020018280548015610cc557602002820191906000526020600020905b815481526020019060010190808311610cb1575b5050505050815260200160058201805480602002602001604051908101604052809291908181526020018280548015610d1d57602002820191906000526020600020905b815481526020019060010190808311610d09575b5050505050815250509050919050565b60606007805480602002602001604051908101604052809291908181526020018280548015610d7b57602002820191906000526020600020905b815481526020019060010190808311610d67575b5050505050905090565b60606002600083815260200190815260200160002060030160009054906101000a900460ff16610dea576040517f08c379a0000000000000000000000000000000000000000000000000000000008152600401610de19061500e565b60405180910390fd5b60026000838152602001908152602001600020600201805480602002602001604051908101604052809291908181526020018280548015610e4a57602002820191906000526020600020905b815481526020019060010190808311610e36575b50505050509050919050565b600060016000838152602001908152602001600020600d0160009054906101000a900460ff1615610e8a5760019050610e8f565b600090505b919050565b606080825167ffffffffffffffff81118015610eaf57600080fd5b50604051908082528060200260200182016040528015610ee957816020015b610ed6613728565b815260200190600190039081610ece5790505b50905060005b8351811015610fe65760056000858381518110610f0857fe5b602002602001015181526020019081526020016000206040518061012001604052908160008201548152602001600182015481526020016002820160009054906101000a900460681b6cffffffffffffffffffffffffff19166cffffffffffffffffffffffffff1916815260200160038201548152602001600482015481526020016005820154815260200160068201548152602001600782015481526020016008820160009054906101000a900460ff161515151581525050828281518110610fce57fe5b60200260200101819052508080600101915050610eef565b5080915050919050565b60016000898152602001908152602001600020600d0160009054906101000a900460ff16611053576040517f08c379a000000000000000000000000000000000000000000000000000000000815260040161104a9061506e565b60405180910390fd5b6003600085815260200190815260200160002060030160009054906101000a900460ff166110b6576040517f08c379a00000000000000000000000000000000000000000000000000000000081526004016110ad9061504e565b60405180910390fd5b87600660008b8152602001908152602001600020600001819055506110da88612cc5565b600660008b81526020019081526020016000206001018190555086600660008b815260200190815260200160002060020160006101000a81548172ffffffffffffffffffffffffffffffffffffff021916908360681c021790555085600660008b81526020019081526020016000206003018190555084600660008b81526020019081526020016000206004018190555083600660008b81526020019081526020016000206005018190555061118f84610ab8565b600660008b81526020019081526020016000206006018190555082600660008b815260200190815260200160002060070190805190602001906111d392919061378c565b5081600660008b81526020019081526020016000206008018190555080600660008b8152602001908152602001600020600901908051906020019061121992919061378c565b506001600660008b8152602001908152602001600020600a0160006101000a81548160ff02191690831515021790555060016000898152602001908152602001600020600c0189908060018154018082558091505060019003906000526020600020016000909190919091505560036000858152602001908152602001600020600501899080600181540180825580915050600190039060005260206000200160009091909190915055505050505050505050565b606080825167ffffffffffffffff811180156112e957600080fd5b5060405190808252806020026020018201604052801561132357816020015b6113106136ed565b8152602001906001900390816113085790505b50905060005b83518110156114be576003600085838151811061134257fe5b602002602001015181526020019081526020016000206040518060c001604052908160008201548152602001600182018054806020026020016040519081016040528092919081815260200182805480156113bc57602002820191906000526020600020905b8154815260200190600101908083116113a8575b50505050508152602001600282015481526020016003820160009054906101000a900460ff161515151581526020016004820180548060200260200160405190810160405280929190818152602001828054801561143957602002820191906000526020600020905b815481526020019060010190808311611425575b505050505081526020016005820180548060200260200160405190810160405280929190818152602001828054801561149157602002820191906000526020600020905b81548152602001906001019080831161147d575b5050505050815250508282815181106114a657fe5b60200260200101819052508080600101915050611329565b5080915050919050565b6060600980548060200260200160405190810160405280929190818152602001828054801561151657602002820191906000526020600020905b815481526020019060010190808311611502575b5050505050905090565b60006003600083815260200190815260200160002060030160009054906101000a900460ff16156115545760019050611559565b600090505b919050565b6003600083815260200190815260200160002060030160009054906101000a900460ff166115c1576040517f08c379a00000000000000000000000000000000000000000000000000000000081526004016115b89061504e565b60405180910390fd5b6003600083815260200190815260200160002060010181908060018154018082558091505060019003906000526020600020016000909190919091505560036000838152602001908152602001600020600201600081548092919060010191905055505050565b816003600085815260200190815260200160002060000181905550600360008481526020019081526020016000206001018190806001815401808255809150506001900390600052602060002001600090919091909150556000600360008581526020019081526020016000206002018190555060016003600085815260200190815260200160002060030160006101000a81548160ff0219169083151502179055506008839080600181540180825580915050600190039060005260206000200160009091909190915055505050565b611701613728565b6005600083815260200190815260200160002060080160009054906101000a900460ff16611764576040517f08c379a000000000000000000000000000000000000000000000000000000000815260040161175b906150ee565b60405180910390fd5b600560008381526020019081526020016000206040518061012001604052908160008201548152602001600182015481526020016002820160009054906101000a900460681b6cffffffffffffffffffffffffff19166cffffffffffffffffffffffffff1916815260200160038201548152602001600482015481526020016005820154815260200160068201548152602001600782015481526020016008820160009054906101000a900460ff1615151515815250509050919050565b61182a6137d9565b60066000838152602001908152602001600020600a0160009054906101000a900460ff1661188d576040517f08c379a000000000000000000000000000000000000000000000000000000000815260040161188490614fce565b60405180910390fd5b600660008381526020019081526020016000206040518061016001604052908160008201548152602001600182015481526020016002820160009054906101000a900460681b6cffffffffffffffffffffffffff19166cffffffffffffffffffffffffff19168152602001600382015481526020016004820154815260200160058201548152602001600682015481526020016007820180548060200260200160405190810160405280929190818152602001828054801561196e57602002820191906000526020600020905b81548152602001906001019080831161195a575b5050505050815260200160088201548152602001600982018054806020026020016040519081016040528092919081815260200182805480156119d057602002820191906000526020600020905b8154815260200190600101908083116119bc575b50505050508152602001600a820160009054906101000a900460ff1615151515815250509050919050565b606080825167ffffffffffffffff81118015611a1657600080fd5b50604051908082528060200260200182016040528015611a5057816020015b611a3d6137d9565b815260200190600190039081611a355790505b50905060005b8351811015611bfd5760066000858381518110611a6f57fe5b602002602001015181526020019081526020016000206040518061016001604052908160008201548152602001600182015481526020016002820160009054906101000a900460681b6cffffffffffffffffffffffffff19166cffffffffffffffffffffffffff191681526020016003820154815260200160048201548152602001600582015481526020016006820154815260200160078201805480602002602001604051908101604052809291908181526020018280548015611b5357602002820191906000526020600020905b815481526020019060010190808311611b3f575b505050505081526020016008820154815260200160098201805480602002602001604051908101604052809291908181526020018280548015611bb557602002820191906000526020600020905b815481526020019060010190808311611ba1575b50505050508152602001600a820160009054906101000a900460ff161515151581525050828281518110611be557fe5b60200260200101819052508080600101915050611a56565b5080915050919050565b60606002600083815260200190815260200160002060030160009054906101000a900460ff16611c6c576040517f08c379a0000000000000000000000000000000000000000000000000000000008152600401611c639061500e565b60405180910390fd5b6060611c7783610d85565b51611c8184612930565b510367ffffffffffffffff81118015611c9957600080fd5b50604051908082528060200260200182016040528015611cc85781602001602082028036833780820191505090505b50905060006060611cd885612930565b905060005b8151811015611d70576000808781526020019081526020016000206000838381518110611d0657fe5b6020026020010151815260200190815260200160002060009054906101000a900460ff16611d6357818181518110611d3a57fe5b6020026020010151848481518110611d4e57fe5b60200260200101818152505082806001019350505b8080600101915050611cdd565b50829350505050919050565b80600460008481526020019081526020016000206000018190555060016004600084815260200190815260200160002060010160006101000a81548160ff0219169083151502179055505050565b606060016000838152602001908152602001600020600d0160009054906101000a900460ff16611e2f576040517f08c379a0000000000000000000000000000000000000000000000000000000008152600401611e269061506e565b60405180910390fd5b60016000838152602001908152602001600020600901805480602002602001604051908101604052809291908181526020018280548015611e8f57602002820191906000526020600020905b815481526020019060010190808311611e7b575b50505050509050919050565b611ea361384b565b6002600083815260200190815260200160002060030160009054906101000a900460ff16611f06576040517f08c379a0000000000000000000000000000000000000000000000000000000008152600401611efd9061500e565b60405180910390fd5b600260008381526020019081526020016000206040518060800160405290816000820154815260200160018201805480602002602001604051908101604052809291908181526020018280548015611f7d57602002820191906000526020600020905b815481526020019060010190808311611f69575b5050505050815260200160028201805480602002602001604051908101604052809291908181526020018280548015611fd557602002820191906000526020600020905b815481526020019060010190808311611fc1575b505050505081526020016003820160009054906101000a900460ff1615151515815250509050919050565b80600260008481526020019081526020016000206000018190555060016002600084815260200190815260200160002060030160006101000a81548160ff02191690831515021790555060078290806001815401808255809150506001900390600052602060002001600090919091909150555050565b606080825167ffffffffffffffff8111801561209257600080fd5b506040519080825280602002602001820160405280156120cc57816020015b6120b961364b565b8152602001906001900390816120b15790505b50905060005b835181101561231257600160008583815181106120eb57fe5b60200260200101518152602001908152602001600020604051806101e00160405290816000820154815260200160018201548152602001600282015481526020016003820160009054906101000a900460ff16600181111561214957fe5b600181111561215457fe5b81526020016003820160019054906101000a900460681b6cffffffffffffffffffffffffff19166cffffffffffffffffffffffffff1916815260200160048201548152602001600582015481526020016006820154815260200160078201548152602001600882015481526020016009820180548060200260200160405190810160405280929190818152602001828054801561221057602002820191906000526020600020905b8154815260200190600101908083116121fc575b50505050508152602001600a8201548152602001600b820180548060200260200160405190810160405280929190818152602001828054801561227257602002820191906000526020600020905b81548152602001906001019080831161225e575b50505050508152602001600c82018054806020026020016040519081016040528092919081815260200182805480156122ca57602002820191906000526020600020905b8154815260200190600101908083116122b6575b50505050508152602001600d820160009054906101000a900460ff1615151515815250508282815181106122fa57fe5b602002602001018190525080806001019150506120d2565b5080915050919050565b600060016000838152602001908152602001600020600d0160009054906101000a900460ff16612381576040517f08c379a00000000000000000000000000000000000000000000000000000000081526004016123789061506e565b60405180910390fd5b60016000838152602001908152602001600020600801549050919050565b60606003600083815260200190815260200160002060030160009054906101000a900460ff16612404576040517f08c379a00000000000000000000000000000000000000000000000000000000081526004016123fb9061504e565b60405180910390fd5b6003600083815260200190815260200160002060040180548060200260200160405190810160405280929190818152602001828054801561246457602002820191906000526020600020905b815481526020019060010190808311612450575b50505050509050919050565b60606003600083815260200190815260200160002060030160009054906101000a900460ff166124d5576040517f08c379a00000000000000000000000000000000000000000000000000000000081526004016124cc9061504e565b60405180910390fd5b6003600083815260200190815260200160002060010180548060200260200160405190810160405280929190818152602001828054801561253557602002820191906000526020600020905b815481526020019060010190808311612521575b50505050509050919050565b612549613878565b6004600083815260200190815260200160002060010160009054906101000a900460ff166125ac576040517f08c379a00000000000000000000000000000000000000000000000000000000081526004016125a3906150ae565b60405180910390fd5b60046000838152602001908152602001600020604051806040016040529081600082015481526020016001820160009054906101000a900460ff1615151515815250509050919050565b606060016000838152602001908152602001600020600d0160009054906101000a900460ff1661265b576040517f08c379a00000000000000000000000000000000000000000000000000000000081526004016126529061506e565b60405180910390fd5b60016000838152602001908152602001600020600c018054806020026020016040519081016040528092919081815260200182805480156126bb57602002820191906000526020600020905b8154815260200190600101908083116126a7575b50505050509050919050565b60606003600083815260200190815260200160002060030160009054906101000a900460ff1661272c576040517f08c379a00000000000000000000000000000000000000000000000000000000081526004016127239061504e565b60405180910390fd5b6003600083815260200190815260200160002060050180548060200260200160405190810160405280929190818152602001828054801561278c57602002820191906000526020600020905b815481526020019060010190808311612778575b50505050509050919050565b606080825167ffffffffffffffff811180156127b357600080fd5b506040519080825280602002602001820160405280156127ed57816020015b6127da61384b565b8152602001906001900390816127d25790505b50905060005b8351811015612926576002600085838151811061280c57fe5b60200260200101518152602001908152602001600020604051806080016040529081600082015481526020016001820180548060200260200160405190810160405280929190818152602001828054801561288657602002820191906000526020600020905b815481526020019060010190808311612872575b50505050508152602001600282018054806020026020016040519081016040528092919081815260200182805480156128de57602002820191906000526020600020905b8154815260200190600101908083116128ca575b505050505081526020016003820160009054906101000a900460ff16151515158152505082828151811061290e57fe5b602002602001018190525080806001019150506127f3565b5080915050919050565b60606002600083815260200190815260200160002060030160009054906101000a900460ff16612995576040517f08c379a000000000000000000000000000000000000000000000000000000000815260040161298c9061500e565b60405180910390fd5b600260008381526020019081526020016000206001018054806020026020016040519081016040528092919081815260200182805480156129f557602002820191906000526020600020905b8154815260200190600101908083116129e1575b50505050509050919050565b60016000878152602001908152602001600020600d0160009054906101000a900460ff16612a64576040517f08c379a0000000000000000000000000000000000000000000000000000000008152600401612a5b9061506e565b60405180910390fd5b6003600083815260200190815260200160002060030160009054906101000a900460ff16612ac7576040517f08c379a0000000000000000000000000000000000000000000000000000000008152600401612abe9061504e565b60405180910390fd5b856005600089815260200190815260200160002060000181905550612aeb86612cc5565b6005600089815260200190815260200160002060010181905550846005600089815260200190815260200160002060020160006101000a81548172ffffffffffffffffffffffffffffffffffffff021916908360681c0217905550836005600089815260200190815260200160002060030181905550826005600089815260200190815260200160002060040181905550816005600089815260200190815260200160002060050181905550612ba082610ab8565b600560008981526020019081526020016000206006018190555080600560008981526020019081526020016000206007018190555060016005600089815260200190815260200160002060080160006101000a81548160ff02191690831515021790555060016000878152602001908152602001600020600b018790806001815401808255809150506001900390600052602060002001600090919091909150556003600083815260200190815260200160002060040187908060018154018082558091505060019003906000526020600020016000909190919091505550505050505050565b60006002600083815260200190815260200160002060030160009054906101000a900460ff1615612cbb5760019050612cc0565b600090505b919050565b600060016000838152602001908152602001600020600d0160009054906101000a900460ff16612d2a576040517f08c379a0000000000000000000000000000000000000000000000000000000008152600401612d219061506e565b60405180910390fd5b6001600083815260200190815260200160002060090160016000848152602001908152602001600020600a015481548110612d6157fe5b90600052602060002001549050919050565b606060016000838152602001908152602001600020600d0160009054906101000a900460ff16612dd8576040517f08c379a0000000000000000000000000000000000000000000000000000000008152600401612dcf9061506e565b60405180910390fd5b60016000838152602001908152602001600020600b01805480602002602001604051908101604052809291908181526020018280548015612e3857602002820191906000526020600020905b815481526020019060010190808311612e24575b50505050509050919050565b60016000848152602001908152602001600020600d0160009054906101000a900460ff16612ea7576040517f08c379a0000000000000000000000000000000000000000000000000000000008152600401612e9e9061506e565b60405180910390fd5b6002600083815260200190815260200160002060030160009054906101000a900460ff16612f0a576040517f08c379a0000000000000000000000000000000000000000000000000000000008152600401612f019061502e565b60405180910390fd5b600080838152602001908152602001600020600084815260200190815260200160002060009054906101000a900460ff1615612f7b576040517f08c379a0000000000000000000000000000000000000000000000000000000008152600401612f7290614fee565b60405180910390fd5b6002600082815260200190815260200160002060030160009054906101000a900460ff16612fde576040517f08c379a0000000000000000000000000000000000000000000000000000000008152600401612fd5906150ce565b60405180910390fd5b60026000838152602001908152602001600020600201839080600181540180825580915050600190039060005260206000200160009091909190915055600260008281526020019081526020016000206001018390806001815401808255809150506001900390600052602060002001600090919091909150556001600084815260200190815260200160002060090181908060018154018082558091505060019003906000526020600020016000909190919091505560016000848152602001908152602001600020600a01600081548092919060010191905055506001600080848152602001908152602001600020600085815260200190815260200160002060006101000a81548160ff0219169083151502179055506000806000838152602001908152602001600020600085815260200190815260200160002060006101000a81548160ff021916908315150217905550505050565b6060600880548060200260200160405190810160405280929190818152602001828054801561318657602002820191906000526020600020905b815481526020019060010190808311613172575b5050505050905090565b60008314806131bf575060016000848152602001908152602001600020600d0160009054906101000a900460ff165b6131fe576040517f08c379a00000000000000000000000000000000000000000000000000000000081526004016131f59061510e565b60405180910390fd5b600082148061322d575060016000838152602001908152602001600020600d0160009054906101000a900460ff165b61326c576040517f08c379a00000000000000000000000000000000000000000000000000000000081526004016132639061508e565b60405180910390fd5b6002600082815260200190815260200160002060030160009054906101000a900460ff166132cf576040517f08c379a00000000000000000000000000000000000000000000000000000000081526004016132c69061500e565b60405180910390fd5b87600160008b81526020019081526020016000206000018190555086600160008b81526020019081526020016000206001018190555085600160008b81526020019081526020016000206002018190555084600160008b815260200190815260200160002060030160006101000a81548160ff0219169083600181111561335257fe5b021790555083600160008b815260200190815260200160002060030160016101000a81548172ffffffffffffffffffffffffffffffffffffff021916908360681c021790555060008314156133fd576000600160008b8152602001908152602001600020600401819055507f506172656e74207769746820756e6b6e6f776e20706564696772656500000000600160008b81526020019081526020016000206005018190555061344a565b82600160008b8152602001908152602001600020600401819055506001600084815260200190815260200160002060000154600160008b8152602001908152602001600020600501819055505b60008214156134af576000600160008b8152602001908152602001600020600601819055507f506172656e74207769746820756e6b6e6f776e20706564696772656500000000600160008b8152602001908152602001600020600701819055506134fc565b81600160008b8152602001908152602001600020600601819055506001600083815260200190815260200160002060000154600160008b8152602001908152602001600020600701819055505b80600160008b815260200190815260200160002060080181905550600160008a8152602001908152602001600020600901819080600181540180825580915050600190039060005260206000200160009091909190915055600260008281526020019081526020016000206001018990806001815401808255809150506001900390600052602060002001600090919091909150556000600160008b8152602001908152602001600020600a018190555060018060008b8152602001908152602001600020600d0160006101000a81548160ff0219169083151502179055506009899080600181540180825580915050600190039060005260206000200160009091909190915055600080600083815260200190815260200160002060008b815260200190815260200160002060006101000a81548160ff021916908315150217905550505050505050505050565b604051806101e001604052806000801916815260200160008019168152602001600080191681526020016000600181111561368257fe5b815260200160006cffffffffffffffffffffffffff191681526020016000815260200160008019168152602001600081526020016000801916815260200160008152602001606081526020016000815260200160608152602001606081526020016000151581525090565b6040518060c0016040528060008019168152602001606081526020016000815260200160001515815260200160608152602001606081525090565b604051806101200160405280600081526020016000815260200160006cffffffffffffffffffffffffff1916815260200160008152602001600081526020016000815260200160008019168152602001600080191681526020016000151581525090565b8280548282559060005260206000209081019282156137c8579160200282015b828111156137c75782518255916020019190600101906137ac565b5b5090506137d59190613897565b5090565b604051806101600160405280600081526020016000815260200160006cffffffffffffffffffffffffff19168152602001600081526020016000815260200160008152602001600080191681526020016060815260200160008019168152602001606081526020016000151581525090565b60405180608001604052806000801916815260200160608152602001606081526020016000151581525090565b6040518060400160405280600080191681526020016000151581525090565b5b808211156138b0576000816000905550600101613898565b5090565b600082601f8301126138c557600080fd5b81356138d86138d382615235565b615208565b915081818352602084019350602081019050838560208402820111156138fd57600080fd5b60005b8381101561392d578161391388826139cf565b845260208401935060208301925050600181019050613900565b5050505092915050565b600082601f83011261394857600080fd5b813561395b6139568261525d565b615208565b9150818183526020840193506020810190508385602084028201111561398057600080fd5b60005b838110156139b0578161399688826139f9565b845260208401935060208301925050600181019050613983565b5050505092915050565b6000813590506139c9816154c5565b92915050565b6000813590506139de816154dc565b92915050565b6000813590506139f3816154f3565b92915050565b600081359050613a0881615503565b92915050565b600060208284031215613a2057600080fd5b600082013567ffffffffffffffff811115613a3a57600080fd5b613a4684828501613937565b91505092915050565b600060208284031215613a6157600080fd5b6000613a6f848285016139f9565b91505092915050565b60008060408385031215613a8b57600080fd5b6000613a99858286016139f9565b9250506020613aaa858286016139cf565b9150509250929050565b600080600060608486031215613ac957600080fd5b6000613ad7868287016139f9565b9350506020613ae8868287016139cf565b9250506040613af9868287016139cf565b9150509250925092565b60008060008060008060008060006101208a8c031215613b2257600080fd5b6000613b308c828d016139f9565b9950506020613b418c828d016139cf565b9850506040613b528c828d016139cf565b9750506060613b638c828d016139cf565b9650506080613b748c828d016139e4565b95505060a0613b858c828d016139ba565b94505060c0613b968c828d016139f9565b93505060e0613ba78c828d016139f9565b925050610100613bb98c828d016139f9565b9150509295985092959850929598565b60008060008060008060008060006101208a8c031215613be857600080fd5b6000613bf68c828d016139f9565b9950506020613c078c828d016139f9565b9850506040613c188c828d016139ba565b9750506060613c298c828d016139f9565b9650506080613c3a8c828d016139f9565b95505060a0613c4b8c828d016139f9565b94505060c08a013567ffffffffffffffff811115613c6857600080fd5b613c748c828d016138b4565b93505060e0613c858c828d016139cf565b9250506101008a013567ffffffffffffffff811115613ca357600080fd5b613caf8c828d016138b4565b9150509295985092959850929598565b600080600080600080600060e0888a031215613cda57600080fd5b6000613ce88a828b016139f9565b9750506020613cf98a828b016139f9565b9650506040613d0a8a828b016139ba565b9550506060613d1b8a828b016139f9565b9450506080613d2c8a828b016139f9565b93505060a0613d3d8a828b016139f9565b92505060c0613d4e8a828b016139cf565b91505092959891949750929550565b600080600060608486031215613d7257600080fd5b6000613d80868287016139f9565b9350506020613d91868287016139f9565b9250506040613da2868287016139f9565b9150509250925092565b6000613db8838361421c565b60208301905092915050565b6000613dd0838361468e565b905092915050565b6000613de48383614762565b905092915050565b6000613df88383614890565b905092915050565b6000613e0c8383614b32565b905092915050565b6000613e208383614d1e565b6101208301905092915050565b6000613e398383614e8c565b60208301905092915050565b6000613e50826152f5565b613e5a818561539d565b9350613e6583615285565b8060005b83811015613e96578151613e7d8882613dac565b9750613e8883615342565b925050600181019050613e69565b5085935050505092915050565b6000613eae826152f5565b613eb881856153ae565b9350613ec383615285565b8060005b83811015613ef4578151613edb8882613dac565b9750613ee683615342565b925050600181019050613ec7565b5085935050505092915050565b6000613f0c82615300565b613f1681856153bf565b935083602082028501613f2885615295565b8060005b85811015613f645784840389528151613f458582613dc4565b9450613f508361534f565b925060208a01995050600181019050613f2c565b50829750879550505050505092915050565b6000613f818261530b565b613f8b81856153d0565b935083602082028501613f9d856152a5565b8060005b85811015613fd95784840389528151613fba8582613dd8565b9450613fc58361535c565b925060208a01995050600181019050613fa1565b50829750879550505050505092915050565b6000613ff682615316565b61400081856153e1565b935083602082028501614012856152b5565b8060005b8581101561404e578484038952815161402f8582613dec565b945061403a83615369565b925060208a01995050600181019050614016565b50829750879550505050505092915050565b600061406b82615321565b61407581856153f2565b935083602082028501614087856152c5565b8060005b858110156140c357848403895281516140a48582613e00565b94506140af83615376565b925060208a0199505060018101905061408b565b50829750879550505050505092915050565b60006140e08261532c565b6140ea8185615403565b93506140f5836152d5565b8060005b8381101561412657815161410d8882613e14565b975061411883615383565b9250506001810190506140f9565b5085935050505092915050565b600061413e82615337565b6141488185615414565b9350614153836152e5565b8060005b8381101561418457815161416b8882613e2d565b975061417683615390565b925050600181019050614157565b5085935050505092915050565b600061419c82615337565b6141a68185615425565b93506141b1836152e5565b8060005b838110156141e25781516141c98882613e2d565b97506141d483615390565b9250506001810190506141b5565b5085935050505092915050565b6141f881615447565b82525050565b61420781615447565b82525050565b61421681615453565b82525050565b6142258161547f565b82525050565b6142348161547f565b82525050565b614243816154a6565b82525050565b6000614256602283615436565b91507f5472656174656d656e74207265636f726420646f6573206e6f7420657869737460008301527f732e0000000000000000000000000000000000000000000000000000000000006020830152604082019050919050565b60006142bc603583615436565b91507f4272656564657220646f6573206e6f74206861766520616e79207065726d697360008301527f73696f6e20746f2073656c6c207468697320646f6700000000000000000000006020830152604082019050919050565b6000614322602683615436565b91507f427265656465722f4f776e6572206163636f756e7420646f6573206e6f74206560008301527f78697374732e00000000000000000000000000000000000000000000000000006020830152604082019050919050565b6000614388603783615436565b91507f427265656465722f4f776e6572206163636f756e74206f662063757272656e7460008301527f206f776e657220646f6573206e6f74206578697374732e0000000000000000006020830152604082019050919050565b60006143ee601f83615436565b91507f446f63746f72206163636f756e7420646f6573206e6f74206578697374732e006000830152602082019050919050565b600061442e601c83615436565b91507f446f67206163636f756e7420646f6573206e6f74206578697374732e000000006000830152602082019050919050565b600061446e602a83615436565b91507f446f67206163636f756e74206f6620746865206d6f7468657220646f6573206e60008301527f6f74206578697374732e000000000000000000000000000000000000000000006020830152604082019050919050565b60006144d4602183615436565b91507f417574686f72697479206163636f756e7420646f6573206e6f7420657869737460008301527f73000000000000000000000000000000000000000000000000000000000000006020830152604082019050919050565b600061453a603383615436565b91507f427265656465722f4f776e6572206163636f756e74206f66206e6577206f776e60008301527f657220646f6573206e6f74206578697374732e000000000000000000000000006020830152604082019050919050565b60006145a0602383615436565b91507f56616363696e6174696f6e207265636f726420646f6573206e6f74206578697360008301527f74732e00000000000000000000000000000000000000000000000000000000006020830152604082019050919050565b6000614606602a83615436565b91507f446f67206163636f756e74206f66207468652066617468657220646f6573206e60008301527f6f74206578697374732e000000000000000000000000000000000000000000006020830152604082019050919050565b604082016000820151614675600085018261421c565b50602082015161468860208501826141ef565b50505050565b60006080830160008301516146a6600086018261421c565b50602083015184820360208601526146be8282614133565b915050604083015184820360408601526146d88282614133565b91505060608301516146ed60608601826141ef565b508091505092915050565b6000608083016000830151614710600086018261421c565b50602083015184820360208601526147288282614133565b915050604083015184820360408601526147428282614133565b915050606083015161475760608601826141ef565b508091505092915050565b600060c08301600083015161477a600086018261421c565b50602083015184820360208601526147928282613e45565b91505060408301516147a76040860182614e8c565b5060608301516147ba60608601826141ef565b50608083015184820360808601526147d28282614133565b91505060a083015184820360a08601526147ec8282614133565b9150508091505092915050565b600060c083016000830151614811600086018261421c565b50602083015184820360208601526148298282613e45565b915050604083015161483e6040860182614e8c565b50606083015161485160608601826141ef565b50608083015184820360808601526148698282614133565b91505060a083015184820360a08601526148838282614133565b9150508091505092915050565b60006101e0830160008301516148a9600086018261421c565b5060208301516148bc602086018261421c565b5060408301516148cf604086018261421c565b5060608301516148e2606086018261423a565b5060808301516148f5608086018261420d565b5060a083015161490860a0860182614e8c565b5060c083015161491b60c086018261421c565b5060e083015161492e60e0860182614e8c565b5061010083015161494361010086018261421c565b50610120830151614958610120860182614e8c565b506101408301518482036101408601526149728282614133565b915050610160830151614989610160860182614e8c565b506101808301518482036101808601526149a38282614133565b9150506101a08301518482036101a08601526149bf8282614133565b9150506101c08301516149d66101c08601826141ef565b508091505092915050565b60006101e0830160008301516149fa600086018261421c565b506020830151614a0d602086018261421c565b506040830151614a20604086018261421c565b506060830151614a33606086018261423a565b506080830151614a46608086018261420d565b5060a0830151614a5960a0860182614e8c565b5060c0830151614a6c60c086018261421c565b5060e0830151614a7f60e0860182614e8c565b50610100830151614a9461010086018261421c565b50610120830151614aa9610120860182614e8c565b50610140830151848203610140860152614ac38282614133565b915050610160830151614ada610160860182614e8c565b50610180830151848203610180860152614af48282614133565b9150506101a08301518482036101a0860152614b108282614133565b9150506101c0830151614b276101c08601826141ef565b508091505092915050565b600061016083016000830151614b4b6000860182614e8c565b506020830151614b5e6020860182614e8c565b506040830151614b71604086018261420d565b506060830151614b846060860182614e8c565b506080830151614b976080860182614e8c565b5060a0830151614baa60a0860182614e8c565b5060c0830151614bbd60c086018261421c565b5060e083015184820360e0860152614bd58282613e45565b915050610100830151614bec61010086018261421c565b50610120830151848203610120860152614c068282613e45565b915050610140830151614c1d6101408601826141ef565b508091505092915050565b600061016083016000830151614c416000860182614e8c565b506020830151614c546020860182614e8c565b506040830151614c67604086018261420d565b506060830151614c7a6060860182614e8c565b506080830151614c8d6080860182614e8c565b5060a0830151614ca060a0860182614e8c565b5060c0830151614cb360c086018261421c565b5060e083015184820360e0860152614ccb8282613e45565b915050610100830151614ce261010086018261421c565b50610120830151848203610120860152614cfc8282613e45565b915050610140830151614d136101408601826141ef565b508091505092915050565b61012082016000820151614d356000850182614e8c565b506020820151614d486020850182614e8c565b506040820151614d5b604085018261420d565b506060820151614d6e6060850182614e8c565b506080820151614d816080850182614e8c565b5060a0820151614d9460a0850182614e8c565b5060c0820151614da760c085018261421c565b5060e0820151614dba60e085018261421c565b50610100820151614dcf6101008501826141ef565b50505050565b61012082016000820151614dec6000850182614e8c565b506020820151614dff6020850182614e8c565b506040820151614e12604085018261420d565b506060820151614e256060850182614e8c565b506080820151614e386080850182614e8c565b5060a0820151614e4b60a0850182614e8c565b5060c0820151614e5e60c085018261421c565b5060e0820151614e7160e085018261421c565b50610100820151614e866101008501826141ef565b50505050565b614e958161549c565b82525050565b614ea48161549c565b82525050565b60006020820190508181036000830152614ec48184613ea3565b905092915050565b60006020820190508181036000830152614ee68184613f01565b905092915050565b60006020820190508181036000830152614f088184613f76565b905092915050565b60006020820190508181036000830152614f2a8184613feb565b905092915050565b60006020820190508181036000830152614f4c8184614060565b905092915050565b60006020820190508181036000830152614f6e81846140d5565b905092915050565b60006020820190508181036000830152614f908184614191565b905092915050565b6000602082019050614fad60008301846141fe565b92915050565b6000602082019050614fc8600083018461422b565b92915050565b60006020820190508181036000830152614fe781614249565b9050919050565b60006020820190508181036000830152615007816142af565b9050919050565b6000602082019050818103600083015261502781614315565b9050919050565b600060208201905081810360008301526150478161437b565b9050919050565b60006020820190508181036000830152615067816143e1565b9050919050565b6000602082019050818103600083015261508781614421565b9050919050565b600060208201905081810360008301526150a781614461565b9050919050565b600060208201905081810360008301526150c7816144c7565b9050919050565b600060208201905081810360008301526150e78161452d565b9050919050565b6000602082019050818103600083015261510781614593565b9050919050565b60006020820190508181036000830152615127816145f9565b9050919050565b6000604082019050615143600083018461465f565b92915050565b6000602082019050818103600083015261516381846146f8565b905092915050565b6000602082019050818103600083015261518581846147f9565b905092915050565b600060208201905081810360008301526151a781846149e1565b905092915050565b600060208201905081810360008301526151c98184614c28565b905092915050565b6000610120820190506151e76000830184614dd5565b92915050565b60006020820190506152026000830184614e9b565b92915050565b6000604051905081810181811067ffffffffffffffff8211171561522b57600080fd5b8060405250919050565b600067ffffffffffffffff82111561524c57600080fd5b602082029050602081019050919050565b600067ffffffffffffffff82111561527457600080fd5b602082029050602081019050919050565b6000819050602082019050919050565b6000819050602082019050919050565b6000819050602082019050919050565b6000819050602082019050919050565b6000819050602082019050919050565b6000819050602082019050919050565b6000819050602082019050919050565b600081519050919050565b600081519050919050565b600081519050919050565b600081519050919050565b600081519050919050565b600081519050919050565b600081519050919050565b6000602082019050919050565b6000602082019050919050565b6000602082019050919050565b6000602082019050919050565b6000602082019050919050565b6000602082019050919050565b6000602082019050919050565b600082825260208201905092915050565b600082825260208201905092915050565b600082825260208201905092915050565b600082825260208201905092915050565b600082825260208201905092915050565b600082825260208201905092915050565b600082825260208201905092915050565b600082825260208201905092915050565b600082825260208201905092915050565b600082825260208201905092915050565b60008115159050919050565b60007fffffffffffffffffffffffffffffffffffffff0000000000000000000000000082169050919050565b6000819050919050565b6000819050615497826154b8565b919050565b6000819050919050565b60006154b182615489565b9050919050565b600281106154c257fe5b50565b6154ce81615453565b81146154d957600080fd5b50565b6154e58161547f565b81146154f057600080fd5b50565b6002811061550057600080fd5b50565b61550c8161549c565b811461551757600080fd5b5056fea2646970667358221220886e7c87d04cbcb627140f77fec5bded132b892c4641f21053c33ef7b4d321c564736f6c63430007000033",
  "immutableReferences": {},
  "source": "// SPDX-License-Identifier: GPL-3.0\npragma solidity ^0.7.0;\npragma experimental ABIEncoderV2;\n\ncontract DogChain{\n    enum dogSex{ dog, bitch }\n    \n    struct dog{\n        bytes32 dogName;\n        bytes32 breed;\n        bytes32 colour;\n        dogSex sex;\n        bytes19 dateOfBirth;\n        uint fatherId;\n        bytes32 fatherName;\n        uint motherId;\n        bytes32 motherName;\n        uint breederId;\n        uint[] ownerIds;\n        uint currentOwner;\n        uint[] vaccineIds;\n        uint[] treatmentIds;\n        bool exists;\n    }\n    \n    struct breeder{\n        bytes32 breederName;\n        uint[] dogIds;\n        uint[] soldDogIds;\n        bool exists;\n    }\n    \n    struct doctor{\n        bytes32 doctorName;\n        bytes32[] hospitalNames;\n        uint currentHospital;\n        bool exists;\n        uint[] vaccinationRecordIds;\n        uint[] treatmentRecordIds;\n    }\n    \n    struct authority{\n        bytes32 authorityName;\n        bool exists;\n    }\n    \n    struct vaccine{\n        uint dogId;\n        uint ownerId;\n        bytes19 vaccinatedDate;\n        uint dogAgeYears;\n        uint dogAgeMonths;\n        uint doctorId;\n        bytes32 hospitalName;\n        bytes32 vaccineName;\n        bool exists;\n    }\n    \n    struct treatment{\n        uint dogId;\n        uint ownerId;\n        bytes19 admissionDate;\n        uint dogAgeYears;\n        uint dogAgeMonths;\n        uint doctorId;\n        bytes32 hospitalName;\n        bytes32[] symptoms;\n        bytes32 verdict;\n        bytes32[] medicinesPrescribed;\n        bool exists;\n    }\n    \n    mapping ( uint => mapping ( uint => bool) ) private allSoldDogs;\n    \n    mapping ( uint => dog ) private kennelClub;\n    mapping ( uint => breeder ) private breeders;\n    mapping ( uint => doctor ) private doctors;\n    mapping ( uint => authority ) private kennelClubAuthority;\n    mapping ( uint => vaccine ) private vaccinationRecord;\n    mapping ( uint => treatment ) private treatmentRecord;\n    \n    uint[] private breederUsers;\n    uint[] private doctorUsers;\n    uint[] private dogs;\n    \n    \n    // AUTHORITY FUNCTIONS\n    \n    function registerAuthority(\n        uint _authId,\n        bytes32 _authName\n    ) public {\n        kennelClubAuthority[_authId].authorityName = _authName;\n        kennelClubAuthority[_authId].exists = true;\n    }\n    \n    function getAuthorityData(uint _authId) public view returns (authority memory) {\n        require(kennelClubAuthority[_authId].exists, 'Authority account does not exists');\n        \n        return kennelClubAuthority[_authId];\n    }\n    \n    function getAllBreeders() public view returns (uint[] memory) {\n        return breederUsers;\n    }\n    \n    function getAllDoctors() public view returns (uint[] memory) {\n        return doctorUsers;\n    }\n    \n    function getAllDogs() public view returns (uint[] memory) {\n        return dogs;\n    }\n    \n    function getBreedersList(uint[] memory _breederIds) public view returns (breeder[] memory) {\n        breeder[] memory _breeders = new breeder[](_breederIds.length);\n        for(uint i = 0; i < _breederIds.length; i++) {\n            _breeders[i] = breeders[_breederIds[i]];\n        }\n        return _breeders;\n    }\n    \n    function getDoctorsList(uint[] memory _docIds) public view returns (doctor[] memory) {\n        doctor[] memory _doctors = new doctor[](_docIds.length);\n        for(uint i = 0; i < _docIds.length; i++) {\n            _doctors[i] = doctors[_docIds[i]];\n        }\n        return _doctors;\n    }\n    \n    function getDogsList(uint[] memory _dogIds) public view returns (dog[] memory) {\n        dog[] memory _dogs = new dog[](_dogIds.length);\n        for(uint i = 0; i < _dogIds.length; i++) {\n            _dogs[i] = kennelClub[_dogIds[i]];\n        }\n        return _dogs;\n    }\n    \n    function getVaccinesList(uint[] memory _vaccIds) public view returns (vaccine[] memory) {\n        vaccine[] memory _vaccines = new vaccine[](_vaccIds.length);\n        for(uint i = 0; i < _vaccIds.length; i++) {\n            _vaccines[i] = vaccinationRecord[_vaccIds[i]];\n        }\n        return _vaccines;\n    }\n    \n    function getTreatmentList(uint[] memory _treatIds) public view returns (treatment[] memory) {\n        treatment[] memory _treatments = new treatment[](_treatIds.length);\n        for(uint i = 0; i < _treatIds.length; i++) {\n            _treatments[i] = treatmentRecord[_treatIds[i]];\n        }\n        return _treatments;\n    }\n    \n    function isBreederPresent(uint _breederId) public view returns(bool) {\n        if (breeders[_breederId].exists) {\n            return true;\n        } else {\n            return false;\n        }\n    }\n    \n    function isDoctorPresent(uint _docId) public view returns(bool) {\n        if (doctors[_docId].exists) {\n            return true;\n        } else {\n            return false;\n        }\n    }\n    \n    function isDogPresent(uint _dogId) public view returns(bool) {\n        if (kennelClub[_dogId].exists) {\n            return true;\n        } else {\n            return false;\n        }\n    }\n    \n    // BREEDER/OWNER FUNCTIONS\n    \n    function registerBreeder(\n        uint _breederId,\n        bytes32 _breederName\n    ) public {\n        breeders[_breederId].breederName = _breederName;\n        breeders[_breederId].exists = true;\n        breederUsers.push(_breederId);\n    }\n    \n    function getBreederData(uint _breederId) public view returns (breeder memory) {\n        require(breeders[_breederId].exists, 'Breeder/Owner account does not exists.');\n        \n        return breeders[_breederId];\n    }\n    \n    function getTotalDogIds(uint _breederId) public view returns(uint[] memory) {\n        require(breeders[_breederId].exists, 'Breeder/Owner account does not exists.');\n        \n        return breeders[_breederId].dogIds;\n    }\n    \n    function getSoldDogIds(uint _breederId) public view returns(uint[] memory) {\n        require(breeders[_breederId].exists, 'Breeder/Owner account does not exists.');\n        \n        return breeders[_breederId].soldDogIds;\n    }\n    \n    function getCurrentDogIds(uint _breederId) public view returns(uint[] memory) {\n        require(breeders[_breederId].exists, 'Breeder/Owner account does not exists.');\n        \n        uint[] memory _currentDogIds = new uint[](getTotalDogIds(_breederId).length - getSoldDogIds(_breederId).length);\n        uint j = 0;\n        uint[] memory _totalDogs = getTotalDogIds(_breederId);\n        \n        for(uint i = 0; i < _totalDogs.length; i++) {\n            if (!allSoldDogs[_breederId][_totalDogs[i]]) {\n                _currentDogIds[j] = _totalDogs[i];\n                j++;\n            }\n        }\n        return _currentDogIds;\n    }\n    \n    \n    // DOCTOR FUNCTIONS\n    \n    function registerDoctor(\n        uint _docId, \n        bytes32 _docName,\n        bytes32 _hospitalName\n    ) public{\n        doctors[_docId].doctorName = _docName;\n        doctors[_docId].hospitalNames.push(_hospitalName);\n        doctors[_docId].currentHospital = 0;\n        doctors[_docId].exists = true;\n        doctorUsers.push(_docId);\n    }\n    \n    function getDoctorData(uint _docId) public view returns (doctor memory) {\n        require(doctors[_docId].exists, \"Doctor account does not exists.\");\n        \n        return doctors[_docId];\n    }\n    \n    function getDoctorVaccinations(uint _docId) public view returns (uint[] memory) {\n        require(doctors[_docId].exists, \"Doctor account does not exists.\");\n        \n        return doctors[_docId].vaccinationRecordIds;\n    }\n    \n    function getDoctorTreatments(uint _docId) public view returns (uint[] memory) {\n        require(doctors[_docId].exists, \"Doctor account does not exists.\");\n        \n        return doctors[_docId].treatmentRecordIds;\n    }\n    \n    function changeHospital(uint _docId, bytes32 _newHospitalName) public {\n        require(doctors[_docId].exists, \"Doctor account does not exists.\");\n        \n        doctors[_docId].hospitalNames.push(_newHospitalName);\n        doctors[_docId].currentHospital++;\n    }\n    \n    function getWorkedHospitals(uint _docId) public view returns(bytes32[] memory) {\n        require(doctors[_docId].exists, \"Doctor account does not exists.\");\n        \n        return doctors[_docId].hospitalNames;\n    }\n    \n    function getCurrentWorkingHospital(uint _docId) public view returns (bytes32) {\n        require(doctors[_docId].exists, \"Doctor account does not exists.\");\n        \n        return doctors[_docId].hospitalNames[doctors[_docId].currentHospital];\n    }\n    \n    \n    // DOG FUNCTIONS\n    \n    function dogBirthRegistration(\n        uint _dogId,\n        bytes32 _dogName,\n        bytes32 _breed,\n        bytes32 _colour,\n        dogSex _sex,\n        bytes19 _dob,\n        uint _fatherId,\n        uint _motherId,\n        uint _breederId\n    ) public {\n        require(_fatherId == 0 || kennelClub[_fatherId].exists, 'Dog account of the father does not exists.');\n        require(_motherId == 0 || kennelClub[_motherId].exists, 'Dog account of the mother does not exists.');\n        require(breeders[_breederId].exists, 'Breeder/Owner account does not exists.');\n        \n        kennelClub[_dogId].dogName = _dogName;\n        kennelClub[_dogId].breed = _breed;\n        kennelClub[_dogId].colour = _colour;\n        kennelClub[_dogId].sex = _sex;\n        kennelClub[_dogId].dateOfBirth = _dob;\n        if (_fatherId == 0) {\n            kennelClub[_dogId].fatherId = 0;\n            kennelClub[_dogId].fatherName = \"Parent with unknown pedigree\";\n        } else {\n            kennelClub[_dogId].fatherId = _fatherId;\n            kennelClub[_dogId].fatherName = kennelClub[_fatherId].dogName;\n        }\n        if (_motherId == 0) {\n            kennelClub[_dogId].motherId = 0;\n            kennelClub[_dogId].motherName = \"Parent with unknown pedigree\";\n        } else {\n            kennelClub[_dogId].motherId = _motherId;\n            kennelClub[_dogId].motherName = kennelClub[_motherId].dogName;\n        }\n        kennelClub[_dogId].breederId = _breederId;\n        kennelClub[_dogId].ownerIds.push(_breederId);\n        breeders[_breederId].dogIds.push(_dogId);\n        kennelClub[_dogId].currentOwner = 0;\n        kennelClub[_dogId].exists = true;\n        dogs.push(_dogId);\n        allSoldDogs[_breederId][_dogId] = false;\n    }\n    \n    function getDogData(uint _dogId) public view returns (dog memory) {\n        require(kennelClub[_dogId].exists, 'Dog account does not exists.');\n        \n        return kennelClub[_dogId];\n    }\n    \n    function transferDogOwnership(uint _dogId, uint _currentOwnerId, uint _newOwnerId) public {\n        require(kennelClub[_dogId].exists, 'Dog account does not exists.');\n        require(breeders[_currentOwnerId].exists, 'Breeder/Owner account of current owner does not exists.');\n        require(!allSoldDogs[_currentOwnerId][_dogId], 'Breeder does not have any permission to sell this dog');\n        require(breeders[_newOwnerId].exists, 'Breeder/Owner account of new owner does not exists.');\n        \n        breeders[_currentOwnerId].soldDogIds.push(_dogId);\n        breeders[_newOwnerId].dogIds.push(_dogId);\n        kennelClub[_dogId].ownerIds.push(_newOwnerId);\n        kennelClub[_dogId].currentOwner++;\n        allSoldDogs[_currentOwnerId][_dogId] = true;\n        allSoldDogs[_newOwnerId][_dogId] = false;\n    }\n    \n    function getDogBreeder(uint _dogId) public view returns(uint) {\n        require(kennelClub[_dogId].exists, 'Dog account does not exists.');\n        \n        return kennelClub[_dogId].breederId;\n    }\n    \n    function getDogOwnersList(uint _dogId) public view returns (uint[] memory) {\n        require(kennelClub[_dogId].exists, 'Dog account does not exists.');\n        \n        return kennelClub[_dogId].ownerIds;\n    }\n    \n    function getDogCurrentOwner(uint _dogId) public view returns(uint) {\n        require(kennelClub[_dogId].exists, 'Dog account does not exists.');\n        \n        return kennelClub[_dogId].ownerIds[kennelClub[_dogId].currentOwner];\n    }\n    \n    function getDogVaccines(uint _dogId) public view returns(uint[] memory) {\n        require(kennelClub[_dogId].exists, 'Dog account does not exists.');\n        \n        return kennelClub[_dogId].vaccineIds;\n    }\n    \n    function getDogTreatments(uint _dogId) public view returns(uint[] memory) {\n        require(kennelClub[_dogId].exists, 'Dog account does not exists.');\n        \n        return kennelClub[_dogId].treatmentIds;\n    }\n    \n    \n    // VACCINATION FUNCTIONS\n    \n    function vaccinateDog(\n        uint _vaccId,\n        uint _dogId,\n        bytes19 _vaccDate,\n        uint _dogAgeYears,\n        uint _dogAgeMonths,\n        uint _docId,\n        bytes32 _vaccName\n    ) public {\n        require(kennelClub[_dogId].exists, 'Dog account does not exists.');\n        require(doctors[_docId].exists, \"Doctor account does not exists.\");\n        \n        vaccinationRecord[_vaccId].dogId = _dogId;\n        vaccinationRecord[_vaccId].ownerId = getDogCurrentOwner(_dogId);\n        vaccinationRecord[_vaccId].vaccinatedDate = _vaccDate;\n        vaccinationRecord[_vaccId].dogAgeYears = _dogAgeYears;\n        vaccinationRecord[_vaccId].dogAgeMonths = _dogAgeMonths;\n        vaccinationRecord[_vaccId].doctorId = _docId;\n        vaccinationRecord[_vaccId].hospitalName = getCurrentWorkingHospital(_docId);\n        vaccinationRecord[_vaccId].vaccineName = _vaccName;\n        vaccinationRecord[_vaccId].exists = true;\n        kennelClub[_dogId].vaccineIds.push(_vaccId);\n        doctors[_docId].vaccinationRecordIds.push(_vaccId);\n    }\n    \n    function getVaccineData(uint _vaccId) public view returns (vaccine memory){\n        require(vaccinationRecord[_vaccId].exists, 'Vaccination record does not exists.');\n        \n        return vaccinationRecord[_vaccId];\n    }\n    \n    \n    // TREATMENT FUNCTIONS\n    \n    function treatDog(\n        uint _treatmentId,\n        uint _dogId,\n        bytes19 _admissionDate,\n        uint _dogAgeYears,\n        uint _dogAgeMonths,\n        uint _docId,\n        bytes32[] memory _symptoms,\n        bytes32 _verdict,\n        bytes32[] memory _medicines\n    ) public {\n        require(kennelClub[_dogId].exists, 'Dog account does not exists.');\n        require(doctors[_docId].exists, \"Doctor account does not exists.\");\n        \n        treatmentRecord[_treatmentId].dogId = _dogId;\n        treatmentRecord[_treatmentId].ownerId = getDogCurrentOwner(_dogId);\n        treatmentRecord[_treatmentId].admissionDate = _admissionDate;\n        treatmentRecord[_treatmentId].dogAgeYears = _dogAgeYears;\n        treatmentRecord[_treatmentId].dogAgeMonths = _dogAgeMonths;\n        treatmentRecord[_treatmentId].doctorId = _docId;\n        treatmentRecord[_treatmentId].hospitalName = getCurrentWorkingHospital(_docId);\n        treatmentRecord[_treatmentId].symptoms = _symptoms;\n        treatmentRecord[_treatmentId].verdict = _verdict;\n        treatmentRecord[_treatmentId].medicinesPrescribed = _medicines;\n        treatmentRecord[_treatmentId].exists = true;\n        kennelClub[_dogId].treatmentIds.push(_treatmentId);\n        doctors[_docId].treatmentRecordIds.push(_treatmentId);\n    }\n    \n    function getDogTreatmentData(uint _treatmentId) public view returns (treatment memory) {\n        require(treatmentRecord[_treatmentId].exists, 'Treatement record does not exists.');\n        \n        return treatmentRecord[_treatmentId];\n    }\n}",
  "sourcePath": "/home/mikhil/ced-b5-020-project/DogChain/Backend/contracts/DogChain.sol",
  "compiler": {
    "name": "solc",
    "version": "0.7.0+commit.9e61f92b.Emscripten.clang"
  },
  "schemaVersion": "3.3.0",
  "updatedAt": "2020-12-26T16:51:55.934Z",
  "networkType": "ethereum",
  "devdoc": {
    "kind": "dev",
    "methods": {},
    "version": 1
  },
  "userdoc": {
    "kind": "user",
    "methods": {},
    "version": 1
  }
}