{
  "contractName": "DogChain",
  "abi": [
    {
      "inputs": [
        {
          "internalType": "uint256",
          "name": "_authId",
          "type": "uint256"
        },
        {
          "internalType": "bytes32",
          "name": "_authName",
          "type": "bytes32"
        },
        {
          "internalType": "string",
          "name": "_dbId",
          "type": "string"
        }
      ],
      "name": "registerAuthority",
      "outputs": [],
      "stateMutability": "nonpayable",
      "type": "function"
    },
    {
      "inputs": [
        {
          "internalType": "uint256",
          "name": "_authId",
          "type": "uint256"
        }
      ],
      "name": "getAuthorityData",
      "outputs": [
        {
          "internalType": "bytes32",
          "name": "_authName",
          "type": "bytes32"
        },
        {
          "internalType": "string",
          "name": "_dbId",
          "type": "string"
        }
      ],
      "stateMutability": "view",
      "type": "function",
      "constant": true
    },
    {
      "inputs": [
        {
          "internalType": "uint256",
          "name": "_breederId",
          "type": "uint256"
        },
        {
          "internalType": "bytes32",
          "name": "_breederName",
          "type": "bytes32"
        },
        {
          "internalType": "string",
          "name": "_dbId",
          "type": "string"
        }
      ],
      "name": "registerBreeder",
      "outputs": [],
      "stateMutability": "nonpayable",
      "type": "function"
    },
    {
      "inputs": [
        {
          "internalType": "uint256",
          "name": "_breederId",
          "type": "uint256"
        }
      ],
      "name": "getBreederData",
      "outputs": [
        {
          "internalType": "bytes32",
          "name": "_breederName",
          "type": "bytes32"
        },
        {
          "internalType": "bytes32[]",
          "name": "_dogNames",
          "type": "bytes32[]"
        },
        {
          "internalType": "bytes32[]",
          "name": "_soldDogs",
          "type": "bytes32[]"
        },
        {
          "internalType": "string",
          "name": "_dbId",
          "type": "string"
        }
      ],
      "stateMutability": "view",
      "type": "function",
      "constant": true
    },
    {
      "inputs": [
        {
          "internalType": "uint256",
          "name": "_docId",
          "type": "uint256"
        },
        {
          "internalType": "bytes32",
          "name": "_docName",
          "type": "bytes32"
        },
        {
          "internalType": "bytes32",
          "name": "_hospitalName",
          "type": "bytes32"
        },
        {
          "internalType": "string",
          "name": "_dbId",
          "type": "string"
        }
      ],
      "name": "registerDoctor",
      "outputs": [],
      "stateMutability": "nonpayable",
      "type": "function"
    },
    {
      "inputs": [
        {
          "internalType": "uint256",
          "name": "_doctorId",
          "type": "uint256"
        }
      ],
      "name": "getDoctorData",
      "outputs": [
        {
          "internalType": "bytes32",
          "name": "_doctorName",
          "type": "bytes32"
        },
        {
          "internalType": "bytes32[]",
          "name": "_hospitals",
          "type": "bytes32[]"
        },
        {
          "internalType": "bytes32",
          "name": "_currentHospital",
          "type": "bytes32"
        },
        {
          "internalType": "string",
          "name": "_dbId",
          "type": "string"
        }
      ],
      "stateMutability": "view",
      "type": "function",
      "constant": true
    },
    {
      "inputs": [
        {
          "internalType": "uint256",
          "name": "_doctorId",
          "type": "uint256"
        },
        {
          "internalType": "bytes32",
          "name": "_newHospitalName",
          "type": "bytes32"
        }
      ],
      "name": "changeHospital",
      "outputs": [],
      "stateMutability": "nonpayable",
      "type": "function"
    },
    {
      "inputs": [
        {
          "internalType": "uint256",
          "name": "_dogId",
          "type": "uint256"
        },
        {
          "internalType": "bytes32",
          "name": "_dogName",
          "type": "bytes32"
        },
        {
          "internalType": "bytes32",
          "name": "_breed",
          "type": "bytes32"
        },
        {
          "internalType": "bytes32",
          "name": "_colour",
          "type": "bytes32"
        },
        {
          "internalType": "enum DogChain.dogSex",
          "name": "_sex",
          "type": "uint8"
        },
        {
          "internalType": "bytes19",
          "name": "_dob",
          "type": "bytes19"
        },
        {
          "internalType": "uint256",
          "name": "_fatherId",
          "type": "uint256"
        },
        {
          "internalType": "uint256",
          "name": "_motherId",
          "type": "uint256"
        },
        {
          "internalType": "uint256",
          "name": "_breederId",
          "type": "uint256"
        },
        {
          "internalType": "string",
          "name": "_dbId",
          "type": "string"
        }
      ],
      "name": "dogBirthRegistration",
      "outputs": [],
      "stateMutability": "nonpayable",
      "type": "function"
    },
    {
      "inputs": [
        {
          "internalType": "uint256",
          "name": "_dogId",
          "type": "uint256"
        }
      ],
      "name": "getDogData",
      "outputs": [
        {
          "components": [
            {
              "internalType": "bytes32",
              "name": "dogName",
              "type": "bytes32"
            },
            {
              "internalType": "bytes32",
              "name": "breed",
              "type": "bytes32"
            },
            {
              "internalType": "bytes32",
              "name": "colour",
              "type": "bytes32"
            },
            {
              "internalType": "enum DogChain.dogSex",
              "name": "sex",
              "type": "uint8"
            },
            {
              "internalType": "bytes19",
              "name": "dateOfBirth",
              "type": "bytes19"
            },
            {
              "internalType": "uint256",
              "name": "fatherId",
              "type": "uint256"
            },
            {
              "internalType": "bytes32",
              "name": "fatherName",
              "type": "bytes32"
            },
            {
              "internalType": "uint256",
              "name": "motherId",
              "type": "uint256"
            },
            {
              "internalType": "bytes32",
              "name": "motherName",
              "type": "bytes32"
            },
            {
              "internalType": "uint256",
              "name": "breederId",
              "type": "uint256"
            },
            {
              "internalType": "bytes32",
              "name": "breederName",
              "type": "bytes32"
            },
            {
              "internalType": "uint256[]",
              "name": "ownerIds",
              "type": "uint256[]"
            },
            {
              "internalType": "bytes32[]",
              "name": "ownerNames",
              "type": "bytes32[]"
            },
            {
              "internalType": "uint256",
              "name": "currentOwner",
              "type": "uint256"
            },
            {
              "internalType": "uint256[]",
              "name": "vaccineIds",
              "type": "uint256[]"
            },
            {
              "internalType": "uint256[]",
              "name": "treatmentIds",
              "type": "uint256[]"
            },
            {
              "internalType": "string",
              "name": "databaseId",
              "type": "string"
            }
          ],
          "internalType": "struct DogChain.dog",
          "name": "",
          "type": "tuple"
        }
      ],
      "stateMutability": "view",
      "type": "function",
      "constant": true
    },
    {
      "inputs": [
        {
          "internalType": "uint256",
          "name": "_dogId",
          "type": "uint256"
        },
        {
          "internalType": "uint256",
          "name": "oldOwnerId",
          "type": "uint256"
        },
        {
          "internalType": "uint256",
          "name": "_newOwnerId",
          "type": "uint256"
        }
      ],
      "name": "sellDog",
      "outputs": [],
      "stateMutability": "nonpayable",
      "type": "function"
    },
    {
      "inputs": [
        {
          "internalType": "uint256",
          "name": "_vaccId",
          "type": "uint256"
        },
        {
          "internalType": "uint256",
          "name": "_dogId",
          "type": "uint256"
        },
        {
          "internalType": "bytes32",
          "name": "_dogName",
          "type": "bytes32"
        },
        {
          "internalType": "bytes19",
          "name": "_vaccDate",
          "type": "bytes19"
        },
        {
          "internalType": "uint256",
          "name": "_dogAgeYears",
          "type": "uint256"
        },
        {
          "internalType": "uint256",
          "name": "_dogAgeMonths",
          "type": "uint256"
        },
        {
          "internalType": "uint256",
          "name": "_docId",
          "type": "uint256"
        },
        {
          "internalType": "bytes32",
          "name": "_docName",
          "type": "bytes32"
        },
        {
          "internalType": "bytes32",
          "name": "_vaccName",
          "type": "bytes32"
        }
      ],
      "name": "vaccinateDog",
      "outputs": [],
      "stateMutability": "nonpayable",
      "type": "function"
    },
    {
      "inputs": [
        {
          "internalType": "uint256",
          "name": "_vaccId",
          "type": "uint256"
        }
      ],
      "name": "getDogsVaccineData",
      "outputs": [
        {
          "internalType": "bytes32",
          "name": "_dogName",
          "type": "bytes32"
        },
        {
          "internalType": "bytes19",
          "name": "_vaccDate",
          "type": "bytes19"
        },
        {
          "internalType": "uint256",
          "name": "_dogAgeYears",
          "type": "uint256"
        },
        {
          "internalType": "uint256",
          "name": "_dogAgeMonths",
          "type": "uint256"
        },
        {
          "internalType": "uint256",
          "name": "_docId",
          "type": "uint256"
        },
        {
          "internalType": "bytes32",
          "name": "_docName",
          "type": "bytes32"
        },
        {
          "internalType": "bytes32",
          "name": "_vaccName",
          "type": "bytes32"
        }
      ],
      "stateMutability": "view",
      "type": "function",
      "constant": true
    },
    {
      "inputs": [
        {
          "internalType": "uint256",
          "name": "_treatmentId",
          "type": "uint256"
        },
        {
          "internalType": "bytes32",
          "name": "_dogName",
          "type": "bytes32"
        },
        {
          "internalType": "bytes19",
          "name": "_admissionDate",
          "type": "bytes19"
        },
        {
          "internalType": "uint256",
          "name": "_dogAgeYears",
          "type": "uint256"
        },
        {
          "internalType": "uint256",
          "name": "_dogAgeMonths",
          "type": "uint256"
        },
        {
          "internalType": "uint256",
          "name": "_docId",
          "type": "uint256"
        },
        {
          "internalType": "bytes32",
          "name": "_docName",
          "type": "bytes32"
        },
        {
          "internalType": "string",
          "name": "_symptoms",
          "type": "string"
        },
        {
          "internalType": "string",
          "name": "_verdict",
          "type": "string"
        },
        {
          "internalType": "string",
          "name": "_medicines",
          "type": "string"
        }
      ],
      "name": "treatDog",
      "outputs": [],
      "stateMutability": "nonpayable",
      "type": "function"
    },
    {
      "inputs": [
        {
          "internalType": "uint256",
          "name": "_treatmentId",
          "type": "uint256"
        }
      ],
      "name": "getDogTreatmentData",
      "outputs": [
        {
          "internalType": "bytes32",
          "name": "_dogName",
          "type": "bytes32"
        },
        {
          "internalType": "bytes19",
          "name": "_admissionDate",
          "type": "bytes19"
        },
        {
          "internalType": "uint256",
          "name": "_dogAgeYears",
          "type": "uint256"
        },
        {
          "internalType": "uint256",
          "name": "_dogAgeMonths",
          "type": "uint256"
        },
        {
          "internalType": "uint256",
          "name": "_docId",
          "type": "uint256"
        },
        {
          "internalType": "bytes32",
          "name": "_docName",
          "type": "bytes32"
        },
        {
          "internalType": "string",
          "name": "_symptoms",
          "type": "string"
        },
        {
          "internalType": "string",
          "name": "_verdict",
          "type": "string"
        },
        {
          "internalType": "string",
          "name": "_medicines",
          "type": "string"
        }
      ],
      "stateMutability": "view",
      "type": "function",
      "constant": true
    }
  ],
  "bytecode": "0x608060405234801561001057600080fd5b506126c2806100206000396000f3fe608060405234801561001057600080fd5b50600436106100e95760003560e01c806359a2a83b1161008c5780637631f3f5116100665780637631f3f51461026457806387007ee91461029a578063adc94553146102cb578063af10b039146102e7576100e9565b806359a2a83b146101dd5780635dd9a9fd1461021557806373e7424414610231576100e9565b80631b98db20116100c85780631b98db201461016d57806338541d5314610189578063386c460e146101a557806352913ca8146101c1576100e9565b8062adbb58146100ee5780630b03d4b51461010a578063180cad131461013a575b600080fd5b61010860048036038101906101039190611a9e565b610303565b005b610124600480360381019061011f9190611a39565b610458565b6040516101319190612447565b60405180910390f35b610154600480360381019061014f9190611a39565b61084d565b60405161016494939291906122b3565b60405180910390f35b61018760048036038101906101829190611e5c565b6109d1565b005b6101a3600480360381019061019e9190611bc1565b610b6a565b005b6101bf60048036038101906101ba9190611a62565b610f40565b005b6101db60048036038101906101d69190611d2f565b610fa7565b005b6101f760048036038101906101f29190611a39565b610ff2565b60405161020c99989796959493929190612375565b60405180910390f35b61022f600480360381019061022a9190611d96565b6112c3565b005b61024b60048036038101906102469190611a39565b611408565b60405161025b9493929190612259565b60405180910390f35b61027e60048036038101906102799190611a39565b6115ae565b6040516102919796959493929190612306565b60405180910390f35b6102b460048036038101906102af9190611a39565b611680565b6040516102c2929190612417565b60405180910390f35b6102e560048036038101906102e09190611cb4565b611753565b005b61030160048036038101906102fc9190611d2f565b6117f8565b005b88600560008c81526020019081526020016000206001018190555087600560008c815260200190815260200160002060020160006101000a81548172ffffffffffffffffffffffffffffffffffffff021916908360681c021790555086600560008c81526020019081526020016000206003018190555085600560008c81526020019081526020016000206004018190555084600560008c81526020019081526020016000206005018190555083600560008c81526020019081526020016000206006018190555082600560008c815260200190815260200160002060070190805190602001906103f5929190611843565b5081600560008c81526020019081526020016000206008019080519060200190610420929190611843565b5080600560008c8152602001908152602001600020600901908051906020019061044b929190611843565b5050505050505050505050565b6104606118c3565b6104686118c3565b60405180610220016040528060008086815260200190815260200160002060000154815260200160008086815260200190815260200160002060010154815260200160008086815260200190815260200160002060020154815260200160008086815260200190815260200160002060030160009054906101000a900460ff1660018111156104f357fe5b815260200160008086815260200190815260200160002060030160019054906101000a900460681b6cffffffffffffffffffffffffff19168152602001600080868152602001908152602001600020600401548152602001600080868152602001908152602001600020600501548152602001600080868152602001908152602001600020600601548152602001600080868152602001908152602001600020600701548152602001600080868152602001908152602001600020600801548152602001600080868152602001908152602001600020600901548152602001600080868152602001908152602001600020600a0180548060200260200160405190810160405280929190818152602001828054801561063157602002820191906000526020600020905b81548152602001906001019080831161061d575b50505050508152602001600080868152602001908152602001600020600b0180548060200260200160405190810160405280929190818152602001828054801561069a57602002820191906000526020600020905b815481526020019060010190808311610686575b50505050508152602001600080868152602001908152602001600020600c01548152602001600080868152602001908152602001600020600d0180548060200260200160405190810160405280929190818152602001828054801561071e57602002820191906000526020600020905b81548152602001906001019080831161070a575b50505050508152602001600080868152602001908152602001600020600e0180548060200260200160405190810160405280929190818152602001828054801561078757602002820191906000526020600020905b815481526020019060010190808311610773575b50505050508152602001600080868152602001908152602001600020600f018054600181600116156101000203166002900480601f01602080910402602001604051908101604052809291908181526020018280546001816001161561010002031660029004801561083a5780601f1061080f5761010080835404028352916020019161083a565b820191906000526020600020905b81548152906001019060200180831161081d57829003601f168201915b5050505050815250905080915050919050565b600060606000606060026000868152602001908152602001600020600001549350600260008681526020019081526020016000206001018054806020026020016040519081016040528092919081815260200182805480156108ce57602002820191906000526020600020905b8154815260200190600101908083116108ba575b505050505092506002600086815260200190815260200160002060010160026000878152602001908152602001600020600201548154811061090c57fe5b90600052602060002001549150600260008681526020019081526020016000206003018054600181600116156101000203166002900480601f0160208091040260200160405190810160405280929190818152602001828054600181600116156101000203166002900480156109c35780601f10610998576101008083540402835291602001916109c3565b820191906000526020600020905b8154815290600101906020018083116109a657829003601f168201915b505050505090509193509193565b6001600083815260200190815260200160002060030183908060018154018082558091505060019003906000526020600020016000909190919091505560016000838152602001908152602001600020600401600080858152602001908152602001600020600001549080600181540180825580915050600190039060005260206000200160009091909190915055600080848152602001908152602001600020600a01819080600181540180825580915050600190039060005260206000200160009091909190915055600080848152602001908152602001600020600b0160016000838152602001908152602001600020600001549080600181540180825580915050600190039060005260206000200160009091909190915055600080848152602001908152602001600020600c016000815480929190600101919050555060016000828152602001908152602001600020600201600080858152602001908152602001600020600001549080600181540180825580915050600190039060005260206000200160009091909190915055505050565b886000808c815260200190815260200160002060000181905550876000808c815260200190815260200160002060010181905550866000808c815260200190815260200160002060020181905550856000808c815260200190815260200160002060030160006101000a81548160ff02191690836001811115610be957fe5b0217905550846000808c815260200190815260200160002060030160016101000a81548172ffffffffffffffffffffffffffffffffffffff021916908360681c02179055506000841415610c915760008060008c8152602001908152602001600020600401819055507f506172656e74207769746820756e6b6e6f776e207065646967726565000000006000808c815260200190815260200160002060050181905550610cdb565b836000808c815260200190815260200160002060040181905550600080858152602001908152602001600020600001546000808c8152602001908152602001600020600501819055505b6000831415610d3e5760008060008c8152602001908152602001600020600601819055507f506172656e74207769746820756e6b6e6f776e207065646967726565000000006000808c815260200190815260200160002060070181905550610d88565b826000808c815260200190815260200160002060060181905550600080848152602001908152602001600020600001546000808c8152602001908152602001600020600701819055505b816000808c81526020019081526020016000206008018190555060016000838152602001908152602001600020600001546000808c8152602001908152602001600020600901819055506000808b8152602001908152602001600020600a018290806001815401808255809150506001900390600052602060002001600090919091909150556000808b8152602001908152602001600020600b0160016000848152602001908152602001600020600001549080600181540180825580915050600190039060005260206000200160009091909190915055600160008381526020019081526020016000206001018a9080600181540180825580915050600190039060005260206000200160009091909190915055600160008381526020019081526020016000206002016000808c815260200190815260200160002060000154908060018154018082558091505060019003906000526020600020016000909190919091505560008060008c8152602001908152602001600020600c0181905550806000808c8152602001908152602001600020600f019080519060200190610f33929190611843565b5050505050505050505050565b6002600083815260200190815260200160002060010181908060018154018082558091505060019003906000526020600020016000909190919091505560026000838152602001908152602001600020600201600081548092919060010191905055505050565b81600160008581526020019081526020016000206000018190555080600160008581526020019081526020016000206005019080519060200190610fec929190611843565b50505050565b6000806000806000806060806060600560008b8152602001908152602001600020600101549850600560008b815260200190815260200160002060020160009054906101000a900460681b9750600560008b8152602001908152602001600020600301549650600560008b8152602001908152602001600020600401549550600560008b8152602001908152602001600020600501549450600560008b8152602001908152602001600020600601549350600560008b81526020019081526020016000206007018054600181600116156101000203166002900480601f01602080910402602001604051908101604052809291908181526020018280546001816001161561010002031660029004801561114d5780601f106111225761010080835404028352916020019161114d565b820191906000526020600020905b81548152906001019060200180831161113057829003601f168201915b50505050509250600560008b81526020019081526020016000206008018054600181600116156101000203166002900480601f0160208091040260200160405190810160405280929190818152602001828054600181600116156101000203166002900480156111fe5780601f106111d3576101008083540402835291602001916111fe565b820191906000526020600020905b8154815290600101906020018083116111e157829003601f168201915b50505050509150600560008b81526020019081526020016000206009018054600181600116156101000203166002900480601f0160208091040260200160405190810160405280929190818152602001828054600181600116156101000203166002900480156112af5780601f10611284576101008083540402835291602001916112af565b820191906000526020600020905b81548152906001019060200180831161129257829003601f168201915b505050505090509193959799909294969850565b87600460008b81526020019081526020016000206000018190555086600460008b81526020019081526020016000206001018190555085600460008b815260200190815260200160002060020160006101000a81548172ffffffffffffffffffffffffffffffffffffff021916908360681c021790555084600460008b81526020019081526020016000206003018190555083600460008b81526020019081526020016000206004018190555082600460008b81526020019081526020016000206005018190555081600460008b81526020019081526020016000206006018190555080600460008b815260200190815260200160002060070181905550600080898152602001908152602001600020600d01899080600181540180825580915050600190039060005260206000200160009091909190915055505050505050505050565b60006060806060600160008681526020019081526020016000206000015493506001600086815260200190815260200160002060020180548060200260200160405190810160405280929190818152602001828054801561148857602002820191906000526020600020905b815481526020019060010190808311611474575b50505050509250600160008681526020019081526020016000206004018054806020026020016040519081016040528092919081815260200182805480156114ef57602002820191906000526020600020905b8154815260200190600101908083116114db575b50505050509150600160008681526020019081526020016000206005018054600181600116156101000203166002900480601f0160208091040260200160405190810160405280929190818152602001828054600181600116156101000203166002900480156115a05780601f10611575576101008083540402835291602001916115a0565b820191906000526020600020905b81548152906001019060200180831161158357829003601f168201915b505050505090509193509193565b6000806000806000806000600460008981526020019081526020016000206001015496506004600089815260200190815260200160002060020160009054906101000a900460681b95506004600089815260200190815260200160002060030154945060046000898152602001908152602001600020600401549350600460008981526020019081526020016000206005015492506004600089815260200190815260200160002060060154915060046000898152602001908152602001600020600701549050919395979092949650565b6000606060036000848152602001908152602001600020600001549150600360008481526020019081526020016000206001018054600181600116156101000203166002900480601f0160208091040260200160405190810160405280929190818152602001828054600181600116156101000203166002900480156117475780601f1061171c57610100808354040283529160200191611747565b820191906000526020600020905b81548152906001019060200180831161172a57829003601f168201915b50505050509050915091565b8260026000868152602001908152602001600020600001819055506002600085815260200190815260200160002060010182908060018154018082558091505060019003906000526020600020016000909190919091505560006002600086815260200190815260200160002060020181905550806002600086815260200190815260200160002060030190805190602001906117f1929190611843565b5050505050565b8160036000858152602001908152602001600020600001819055508060036000858152602001908152602001600020600101908051906020019061183d929190611843565b50505050565b828054600181600116156101000203166002900490600052602060002090601f016020900481019282601f1061188457805160ff19168380011785556118b2565b828001600101855582156118b2579182015b828111156118b1578251825591602001919060010190611896565b5b5090506118bf9190611974565b5090565b604051806102200160405280600080191681526020016000801916815260200160008019168152602001600060018111156118fa57fe5b815260200160006cffffffffffffffffffffffffff191681526020016000815260200160008019168152602001600081526020016000801916815260200160008152602001600080191681526020016060815260200160608152602001600081526020016060815260200160608152602001606081525090565b5b8082111561198d576000816000905550600101611975565b5090565b6000813590506119a081612637565b92915050565b6000813590506119b58161264e565b92915050565b6000813590506119ca81612665565b92915050565b600082601f8301126119e157600080fd5b81356119f46119ef82612496565b612469565b91508082526020830160208301858383011115611a1057600080fd5b611a1b8382846125d7565b50505092915050565b600081359050611a3381612675565b92915050565b600060208284031215611a4b57600080fd5b6000611a5984828501611a24565b91505092915050565b60008060408385031215611a7557600080fd5b6000611a8385828601611a24565b9250506020611a94858286016119a6565b9150509250929050565b6000806000806000806000806000806101408b8d031215611abe57600080fd5b6000611acc8d828e01611a24565b9a50506020611add8d828e016119a6565b9950506040611aee8d828e01611991565b9850506060611aff8d828e01611a24565b9750506080611b108d828e01611a24565b96505060a0611b218d828e01611a24565b95505060c0611b328d828e016119a6565b94505060e08b013567ffffffffffffffff811115611b4f57600080fd5b611b5b8d828e016119d0565b9350506101008b013567ffffffffffffffff811115611b7957600080fd5b611b858d828e016119d0565b9250506101208b013567ffffffffffffffff811115611ba357600080fd5b611baf8d828e016119d0565b9150509295989b9194979a5092959850565b6000806000806000806000806000806101408b8d031215611be157600080fd5b6000611bef8d828e01611a24565b9a50506020611c008d828e016119a6565b9950506040611c118d828e016119a6565b9850506060611c228d828e016119a6565b9750506080611c338d828e016119bb565b96505060a0611c448d828e01611991565b95505060c0611c558d828e01611a24565b94505060e0611c668d828e01611a24565b935050610100611c788d828e01611a24565b9250506101208b013567ffffffffffffffff811115611c9657600080fd5b611ca28d828e016119d0565b9150509295989b9194979a5092959850565b60008060008060808587031215611cca57600080fd5b6000611cd887828801611a24565b9450506020611ce9878288016119a6565b9350506040611cfa878288016119a6565b925050606085013567ffffffffffffffff811115611d1757600080fd5b611d23878288016119d0565b91505092959194509250565b600080600060608486031215611d4457600080fd5b6000611d5286828701611a24565b9350506020611d63868287016119a6565b925050604084013567ffffffffffffffff811115611d8057600080fd5b611d8c868287016119d0565b9150509250925092565b60008060008060008060008060006101208a8c031215611db557600080fd5b6000611dc38c828d01611a24565b9950506020611dd48c828d01611a24565b9850506040611de58c828d016119a6565b9750506060611df68c828d01611991565b9650506080611e078c828d01611a24565b95505060a0611e188c828d01611a24565b94505060c0611e298c828d01611a24565b93505060e0611e3a8c828d016119a6565b925050610100611e4c8c828d016119a6565b9150509295985092959850929598565b600080600060608486031215611e7157600080fd5b6000611e7f86828701611a24565b9350506020611e9086828701611a24565b9250506040611ea186828701611a24565b9150509250925092565b6000611eb78383612013565b60208301905092915050565b6000611ecf838361223b565b60208301905092915050565b6000611ee6826124e2565b611ef0818561251d565b9350611efb836124c2565b8060005b83811015611f2c578151611f138882611eab565b9750611f1e83612503565b925050600181019050611eff565b5085935050505092915050565b6000611f44826124e2565b611f4e818561252e565b9350611f59836124c2565b8060005b83811015611f8a578151611f718882611eab565b9750611f7c83612503565b925050600181019050611f5d565b5085935050505092915050565b6000611fa2826124ed565b611fac818561253f565b9350611fb7836124d2565b8060005b83811015611fe8578151611fcf8882611ec3565b9750611fda83612510565b925050600181019050611fbb565b5085935050505092915050565b611ffe81612572565b82525050565b61200d81612572565b82525050565b61201c8161259e565b82525050565b61202b8161259e565b82525050565b61203a816125c5565b82525050565b600061204b826124f8565b6120558185612550565b93506120658185602086016125e6565b61206e81612619565b840191505092915050565b6000612084826124f8565b61208e8185612561565b935061209e8185602086016125e6565b6120a781612619565b840191505092915050565b6000610220830160008301516120cb6000860182612013565b5060208301516120de6020860182612013565b5060408301516120f16040860182612013565b5060608301516121046060860182612031565b5060808301516121176080860182611ff5565b5060a083015161212a60a086018261223b565b5060c083015161213d60c0860182612013565b5060e083015161215060e086018261223b565b50610100830151612165610100860182612013565b5061012083015161217a61012086018261223b565b5061014083015161218f610140860182612013565b506101608301518482036101608601526121a98282611f97565b9150506101808301518482036101808601526121c58282611edb565b9150506101a08301516121dc6101a086018261223b565b506101c08301518482036101c08601526121f68282611f97565b9150506101e08301518482036101e08601526122128282611f97565b91505061020083015184820361020086015261222e8282612040565b9150508091505092915050565b612244816125bb565b82525050565b612253816125bb565b82525050565b600060808201905061226e6000830187612022565b81810360208301526122808186611f39565b905081810360408301526122948185611f39565b905081810360608301526122a88184612079565b905095945050505050565b60006080820190506122c86000830187612022565b81810360208301526122da8186611f39565b90506122e96040830185612022565b81810360608301526122fb8184612079565b905095945050505050565b600060e08201905061231b600083018a612022565b6123286020830189612004565b612335604083018861224a565b612342606083018761224a565b61234f608083018661224a565b61235c60a0830185612022565b61236960c0830184612022565b98975050505050505050565b60006101208201905061238b600083018c612022565b612398602083018b612004565b6123a5604083018a61224a565b6123b2606083018961224a565b6123bf608083018861224a565b6123cc60a0830187612022565b81810360c08301526123de8186612079565b905081810360e08301526123f28185612079565b90508181036101008301526124078184612079565b90509a9950505050505050505050565b600060408201905061242c6000830185612022565b818103602083015261243e8184612079565b90509392505050565b6000602082019050818103600083015261246181846120b2565b905092915050565b6000604051905081810181811067ffffffffffffffff8211171561248c57600080fd5b8060405250919050565b600067ffffffffffffffff8211156124ad57600080fd5b601f19601f8301169050602081019050919050565b6000819050602082019050919050565b6000819050602082019050919050565b600081519050919050565b600081519050919050565b600081519050919050565b6000602082019050919050565b6000602082019050919050565b600082825260208201905092915050565b600082825260208201905092915050565b600082825260208201905092915050565b600082825260208201905092915050565b600082825260208201905092915050565b60007fffffffffffffffffffffffffffffffffffffff0000000000000000000000000082169050919050565b6000819050919050565b60008190506125b68261262a565b919050565b6000819050919050565b60006125d0826125a8565b9050919050565b82818337600083830152505050565b60005b838110156126045780820151818401526020810190506125e9565b83811115612613576000848401525b50505050565b6000601f19601f8301169050919050565b6002811061263457fe5b50565b61264081612572565b811461264b57600080fd5b50565b6126578161259e565b811461266257600080fd5b50565b6002811061267257600080fd5b50565b61267e816125bb565b811461268957600080fd5b5056fea26469706673582212203986b6c14eea13a85df8d5b76825460b2de57d31320e84be9624da1dadc85a3564736f6c63430007000033",
  "immutableReferences": {},
  "source": "// SPDX-License-Identifier: GPL-3.0\npragma solidity ^0.7.0;\npragma experimental ABIEncoderV2;\n\ncontract DogChain{\n    enum dogSex{ dog, bitch }\n    \n    struct dog{\n        bytes32 dogName;\n        bytes32 breed;\n        bytes32 colour;\n        dogSex sex;\n        bytes19 dateOfBirth;\n        uint fatherId;\n        bytes32 fatherName;\n        uint motherId;\n        bytes32 motherName;\n        uint breederId;\n        bytes32 breederName;\n        uint[] ownerIds;\n        bytes32[] ownerNames;\n        uint currentOwner;\n        uint[] vaccineIds;\n        uint[] treatmentIds;\n        string databaseId;\n    }\n    \n    struct breeder{\n        bytes32 breederName;\n        uint[] dogIds;\n        bytes32 [] dogNames;\n        uint[] soldDogIds;\n        bytes32 [] soldDogs;\n        string databaseId;\n    }\n    \n    struct doctor{\n        bytes32 doctorName;\n        bytes32[] hospitalName;\n        uint currentHospital;\n        string databaseId;\n    }\n    \n    struct authority{\n        bytes32 authorityName;\n        string databaseId;\n    }\n    \n    struct vaccine{\n        uint dogId;\n        bytes32 dogName;\n        bytes19 vaccinatedDate;\n        uint dogAgeYears;\n        uint dogAgeMonths;\n        uint doctorId;\n        bytes32 doctorName;\n        bytes32 vaccineName;\n        string databaseId;\n    }\n    \n    struct treatment{\n        uint dogId;\n        bytes32 dogName;\n        bytes19 admissionDate;\n        uint dogAgeYears;\n        uint dogAgeMonths;\n        uint doctorId;\n        bytes32 doctorName;\n        string symptoms;\n        string verdict;\n        string medicinesPrescribed;\n        string databaseId;\n    }\n    \n    mapping ( uint => dog ) private kennelClub;\n    mapping ( uint => breeder ) private breeders;\n    mapping ( uint => doctor ) private doctors;\n    mapping ( uint => authority ) private kennelClubAuthority;\n    mapping ( uint => vaccine ) private vaccinationRecord;\n    mapping ( uint => treatment ) private treatmentRecord;\n    \n    \n    // AUTHORITY FUNCTIONS\n    \n    function registerAuthority(\n        uint _authId,\n        bytes32 _authName,\n        string memory _dbId\n    ) public {\n        kennelClubAuthority[_authId].authorityName = _authName;\n        kennelClubAuthority[_authId].databaseId = _dbId;\n    }\n    \n    function getAuthorityData(uint _authId) public view returns (\n        bytes32 _authName,\n        string memory _dbId\n    ) {\n        _authName = kennelClubAuthority[_authId].authorityName;\n        _dbId = kennelClubAuthority[_authId].databaseId;\n    }\n    \n    \n    // BREEDER/OWNER FUNCTIONS\n    \n    function registerBreeder(\n        uint _breederId,\n        bytes32 _breederName,\n        string memory _dbId\n    ) public {\n        breeders[_breederId].breederName = _breederName;\n        breeders[_breederId].databaseId = _dbId;\n    }\n    \n    function getBreederData(uint _breederId) public view returns (\n        bytes32 _breederName,\n        bytes32[] memory _dogNames,\n        bytes32[] memory _soldDogs,\n        string memory _dbId\n    ) {\n        _breederName = breeders[_breederId].breederName;\n        _dogNames = breeders[_breederId].dogNames;\n        _soldDogs = breeders[_breederId].soldDogs;\n        _dbId = breeders[_breederId].databaseId;\n    }\n    \n    \n    // DOCTOR FUNCTIONS\n    \n    function registerDoctor(\n        uint _docId, \n        bytes32 _docName,\n        bytes32 _hospitalName,\n        string memory _dbId\n    ) public{\n        doctors[_docId].doctorName = _docName;\n        doctors[_docId].hospitalName.push(_hospitalName);\n        doctors[_docId].currentHospital = 0;\n        doctors[_docId].databaseId = _dbId;\n    }\n    \n    function getDoctorData(uint _doctorId) public view returns (\n        bytes32 _doctorName,\n        bytes32[] memory _hospitals,\n        bytes32 _currentHospital,\n        string memory _dbId\n    ) {\n        _doctorName = doctors[_doctorId].doctorName;\n        _hospitals = doctors[_doctorId].hospitalName;\n        _currentHospital = doctors[_doctorId].hospitalName[doctors[_doctorId].currentHospital];\n        _dbId = doctors[_doctorId].databaseId;\n    }\n    \n    function changeHospital(uint _doctorId, bytes32 _newHospitalName) public {\n        doctors[_doctorId].hospitalName.push(_newHospitalName);\n        doctors[_doctorId].currentHospital++;\n    }\n    \n    \n    // DOG FUNCTIONS\n    \n    function dogBirthRegistration(\n        uint _dogId,\n        bytes32 _dogName,\n        bytes32 _breed,\n        bytes32 _colour,\n        dogSex _sex,\n        bytes19 _dob,\n        uint _fatherId,\n        uint _motherId,\n        uint _breederId,\n        string memory _dbId\n    ) public {\n        kennelClub[_dogId].dogName = _dogName;\n        kennelClub[_dogId].breed = _breed;\n        kennelClub[_dogId].colour = _colour;\n        kennelClub[_dogId].sex = _sex;\n        kennelClub[_dogId].dateOfBirth = _dob;\n        if (_fatherId == 0) {\n            kennelClub[_dogId].fatherId = 0;\n            kennelClub[_dogId].fatherName = \"Parent with unknown pedigree\";\n        } else {\n            kennelClub[_dogId].fatherId = _fatherId;\n            kennelClub[_dogId].fatherName = kennelClub[_fatherId].dogName;\n        }\n        if (_motherId == 0) {\n            kennelClub[_dogId].motherId = 0;\n            kennelClub[_dogId].motherName = \"Parent with unknown pedigree\";\n        } else {\n            kennelClub[_dogId].motherId = _motherId;\n            kennelClub[_dogId].motherName = kennelClub[_motherId].dogName;\n        }\n        kennelClub[_dogId].breederId = _breederId;\n        kennelClub[_dogId].breederName = breeders[_breederId].breederName;\n        kennelClub[_dogId].ownerIds.push(_breederId);\n        kennelClub[_dogId].ownerNames.push(breeders[_breederId].breederName);\n        breeders[_breederId].dogIds.push(_dogId);\n        breeders[_breederId].dogNames.push(kennelClub[_dogId].dogName);\n        kennelClub[_dogId].currentOwner = 0;\n        kennelClub[_dogId].databaseId = _dbId;\n    }\n    \n    function getDogData(uint _dogId) public view returns (dog memory) {\n        dog memory dogData = dog(\n            kennelClub[_dogId].dogName,\n            kennelClub[_dogId].breed,\n            kennelClub[_dogId].colour,\n            kennelClub[_dogId].sex,\n            kennelClub[_dogId].dateOfBirth,\n            kennelClub[_dogId].fatherId,\n            kennelClub[_dogId].fatherName,\n            kennelClub[_dogId].motherId,\n            kennelClub[_dogId].motherName,\n            kennelClub[_dogId].breederId,\n            kennelClub[_dogId].breederName,\n            kennelClub[_dogId].ownerIds,\n            kennelClub[_dogId].ownerNames,\n            kennelClub[_dogId].currentOwner,\n            kennelClub[_dogId].vaccineIds,\n            kennelClub[_dogId].treatmentIds,\n            kennelClub[_dogId].databaseId\n        );\n        return dogData;\n    }\n    \n    function sellDog(uint _dogId, uint oldOwnerId, uint _newOwnerId) public {\n        breeders[oldOwnerId].soldDogIds.push(_dogId);\n        breeders[oldOwnerId].soldDogs.push(kennelClub[_dogId].dogName);\n        kennelClub[_dogId].ownerIds.push(_newOwnerId);\n        kennelClub[_dogId].ownerNames.push(breeders[_newOwnerId].breederName);\n        kennelClub[_dogId].currentOwner++;\n        breeders[_newOwnerId].dogNames.push(kennelClub[_dogId].dogName);\n    }\n    \n    \n    // VACCINATION FUNCTIONS\n    \n    function vaccinateDog(\n        uint _vaccId,\n        uint _dogId,\n        bytes32 _dogName,\n        bytes19 _vaccDate,\n        uint _dogAgeYears,\n        uint _dogAgeMonths,\n        uint _docId,\n        bytes32 _docName,\n        bytes32 _vaccName\n    ) public {\n        vaccinationRecord[_vaccId].dogId = _dogId;\n        vaccinationRecord[_vaccId].dogName = _dogName;\n        vaccinationRecord[_vaccId].vaccinatedDate = _vaccDate;\n        vaccinationRecord[_vaccId].dogAgeYears = _dogAgeYears;\n        vaccinationRecord[_vaccId].dogAgeMonths = _dogAgeMonths;\n        vaccinationRecord[_vaccId].doctorId = _docId;\n        vaccinationRecord[_vaccId].doctorName = _docName;\n        vaccinationRecord[_vaccId].vaccineName = _vaccName;\n        kennelClub[_dogId].vaccineIds.push(_vaccId);\n    }\n    \n    function getDogsVaccineData(uint _vaccId) public view returns (\n        bytes32 _dogName,\n        bytes19 _vaccDate,\n        uint _dogAgeYears,\n        uint _dogAgeMonths,\n        uint _docId,\n        bytes32 _docName,\n        bytes32 _vaccName\n    ){\n        _dogName = vaccinationRecord[_vaccId].dogName;\n        _vaccDate = vaccinationRecord[_vaccId].vaccinatedDate;\n        _dogAgeYears = vaccinationRecord[_vaccId].dogAgeYears;\n        _dogAgeMonths = vaccinationRecord[_vaccId].dogAgeMonths;\n        _docId = vaccinationRecord[_vaccId].doctorId;\n        _docName = vaccinationRecord[_vaccId].doctorName;\n        _vaccName = vaccinationRecord[_vaccId].vaccineName;\n    }\n    \n    \n    // TREATMENT FUNCTIONS\n    \n    function treatDog(\n        uint _treatmentId,\n        bytes32 _dogName,\n        bytes19 _admissionDate,\n        uint _dogAgeYears,\n        uint _dogAgeMonths,\n        uint _docId,\n        bytes32 _docName,\n        string memory _symptoms,\n        string memory _verdict,\n        string memory _medicines\n    ) public {\n        treatmentRecord[_treatmentId].dogName = _dogName;\n        treatmentRecord[_treatmentId].admissionDate = _admissionDate;\n        treatmentRecord[_treatmentId].dogAgeYears = _dogAgeYears;\n        treatmentRecord[_treatmentId].dogAgeMonths = _dogAgeMonths;\n        treatmentRecord[_treatmentId].doctorId = _docId;\n        treatmentRecord[_treatmentId].doctorName = _docName;\n        treatmentRecord[_treatmentId].symptoms = _symptoms;\n        treatmentRecord[_treatmentId].verdict = _verdict;\n        treatmentRecord[_treatmentId].medicinesPrescribed = _medicines;\n    }\n    \n    function getDogTreatmentData(uint _treatmentId) public view returns (\n        bytes32 _dogName,\n        bytes19 _admissionDate,\n        uint _dogAgeYears,\n        uint _dogAgeMonths,\n        uint _docId,\n        bytes32 _docName,\n        string memory _symptoms,\n        string memory _verdict,\n        string memory _medicines\n    ) {\n        _dogName = treatmentRecord[_treatmentId].dogName;\n        _admissionDate = treatmentRecord[_treatmentId].admissionDate;\n        _dogAgeYears = treatmentRecord[_treatmentId].dogAgeYears;\n        _dogAgeMonths = treatmentRecord[_treatmentId].dogAgeMonths;\n        _docId = treatmentRecord[_treatmentId].doctorId;\n        _docName = treatmentRecord[_treatmentId].doctorName;\n        _symptoms = treatmentRecord[_treatmentId].symptoms;\n        _verdict = treatmentRecord[_treatmentId].verdict;\n        _medicines = treatmentRecord[_treatmentId].medicinesPrescribed;\n    }\n}",
  "sourcePath": "/home/mikhil/ced-b5-020-project/DogChain/DogChainBackend/contracts/DogChain.sol",
  "compiler": {
    "name": "solc",
    "version": "0.7.0+commit.9e61f92b.Emscripten.clang"
  },
  "schemaVersion": "3.3.0",
  "updatedAt": "2020-12-07T10:35:15.252Z",
  "networkType": "ethereum",
  "devdoc": {
    "kind": "dev",
    "methods": {},
    "version": 1
  },
  "userdoc": {
    "kind": "user",
    "methods": {},
    "version": 1
  }
}